{
	"eVoter.sol": {
		"eVoting": {
			"abi": [
				{
					"inputs": [
						{
							"internalType": "string[]",
							"name": "candNames",
							"type": "string[]"
						}
					],
					"stateMutability": "nonpayable",
					"type": "constructor"
				},
				{
					"anonymous": false,
					"inputs": [
						{
							"indexed": false,
							"internalType": "string",
							"name": "philsys_id",
							"type": "string"
						},
						{
							"indexed": false,
							"internalType": "string",
							"name": "candidate",
							"type": "string"
						}
					],
					"name": "VoteCasted",
					"type": "event"
				},
				{
					"inputs": [],
					"name": "COMELEC",
					"outputs": [
						{
							"internalType": "address",
							"name": "",
							"type": "address"
						}
					],
					"stateMutability": "view",
					"type": "function"
				},
				{
					"inputs": [],
					"name": "Government",
					"outputs": [
						{
							"internalType": "address",
							"name": "",
							"type": "address"
						}
					],
					"stateMutability": "view",
					"type": "function"
				},
				{
					"inputs": [
						{
							"internalType": "string",
							"name": "_id",
							"type": "string"
						},
						{
							"internalType": "string",
							"name": "candNames",
							"type": "string"
						}
					],
					"name": "Vote",
					"outputs": [],
					"stateMutability": "nonpayable",
					"type": "function"
				},
				{
					"inputs": [
						{
							"internalType": "string",
							"name": "candNames",
							"type": "string"
						}
					],
					"name": "allVotes",
					"outputs": [
						{
							"internalType": "uint256",
							"name": "",
							"type": "uint256"
						}
					],
					"stateMutability": "view",
					"type": "function"
				},
				{
					"inputs": [
						{
							"internalType": "string",
							"name": "",
							"type": "string"
						}
					],
					"name": "count",
					"outputs": [
						{
							"internalType": "uint256",
							"name": "",
							"type": "uint256"
						}
					],
					"stateMutability": "view",
					"type": "function"
				},
				{
					"inputs": [
						{
							"internalType": "uint256",
							"name": "",
							"type": "uint256"
						}
					],
					"name": "master_list",
					"outputs": [
						{
							"internalType": "string",
							"name": "",
							"type": "string"
						}
					],
					"stateMutability": "view",
					"type": "function"
				},
				{
					"inputs": [
						{
							"internalType": "string",
							"name": "_id",
							"type": "string"
						},
						{
							"internalType": "bool",
							"name": "fingerprint",
							"type": "bool"
						},
						{
							"internalType": "bool",
							"name": "_valid",
							"type": "bool"
						},
						{
							"internalType": "bool",
							"name": "_eligible",
							"type": "bool"
						}
					],
					"name": "registerVoter",
					"outputs": [],
					"stateMutability": "nonpayable",
					"type": "function"
				},
				{
					"inputs": [
						{
							"internalType": "string",
							"name": "",
							"type": "string"
						}
					],
					"name": "voter",
					"outputs": [
						{
							"internalType": "bool",
							"name": "fingerprint_registered",
							"type": "bool"
						},
						{
							"internalType": "bool",
							"name": "data_valid",
							"type": "bool"
						},
						{
							"internalType": "bool",
							"name": "eligible",
							"type": "bool"
						},
						{
							"internalType": "bool",
							"name": "has_voted",
							"type": "bool"
						}
					],
					"stateMutability": "view",
					"type": "function"
				}
			],
			"devdoc": {
				"kind": "dev",
				"methods": {},
				"version": 1
			},
			"evm": {
				"assembly": "    /* \"eVoter.sol\":63:2579  contract eVoting{... */\n  mstore(0x40, 0x80)\n    /* \"eVoter.sol\":521:634  constructor(string[] memory candNames){... */\n  callvalue\n  dup1\n  iszero\n  tag_1\n  jumpi\n  0x00\n  dup1\n  revert\ntag_1:\n  pop\n  mload(0x40)\n  sub(codesize, bytecodeSize)\n  dup1\n  bytecodeSize\n  dup4\n  codecopy\n  dup2\n  dup2\n  add\n  0x40\n  mstore\n  dup2\n  add\n  swap1\n  tag_2\n  swap2\n  swap1\n  tag_3\n  jump\t// in\ntag_2:\n    /* \"eVoter.sol\":580:590  msg.sender */\n  caller\n    /* \"eVoter.sol\":570:577  COMELEC */\n  0x00\n  dup1\n    /* \"eVoter.sol\":570:590  COMELEC = msg.sender */\n  0x0100\n  exp\n  dup2\n  sload\n  dup2\n  0xffffffffffffffffffffffffffffffffffffffff\n  mul\n  not\n  and\n  swap1\n  dup4\n  0xffffffffffffffffffffffffffffffffffffffff\n  and\n  mul\n  or\n  swap1\n  sstore\n  pop\n    /* \"eVoter.sol\":615:624  candNames */\n  dup1\n    /* \"eVoter.sol\":601:612  master_list */\n  0x04\n    /* \"eVoter.sol\":601:624  master_list = candNames */\n  swap1\n  dup1\n  mload\n  swap1\n  0x20\n  add\n  swap1\n  tag_6\n  swap3\n  swap2\n  swap1\n  tag_7\n  jump\t// in\ntag_6:\n  pop\n    /* \"eVoter.sol\":521:634  constructor(string[] memory candNames){... */\n  pop\n    /* \"eVoter.sol\":63:2579  contract eVoting{... */\n  jump(tag_8)\ntag_7:\n  dup3\n  dup1\n  sload\n  dup3\n  dup3\n  sstore\n  swap1\n  0x00\n  mstore\n  keccak256(0x00, 0x20)\n  swap1\n  dup2\n  add\n  swap3\n  dup3\n  iszero\n  tag_9\n  jumpi\n  swap2\n  0x20\n  mul\n  dup3\n  add\ntag_10:\n  dup3\n  dup2\n  gt\n  iszero\n  tag_11\n  jumpi\n  dup3\n  mload\n  dup3\n  swap1\n  dup2\n  tag_12\n  swap2\n  swap1\n  tag_13\n  jump\t// in\ntag_12:\n  pop\n  swap2\n  0x20\n  add\n  swap2\n  swap1\n  0x01\n  add\n  swap1\n  jump(tag_10)\ntag_11:\ntag_9:\n  pop\n  swap1\n  pop\n  tag_14\n  swap2\n  swap1\n  tag_15\n  jump\t// in\ntag_14:\n  pop\n  swap1\n  jump\t// out\ntag_15:\ntag_16:\n  dup1\n  dup3\n  gt\n  iszero\n  tag_17\n  jumpi\n  0x00\n  dup2\n  dup2\n  tag_18\n  swap2\n  swap1\n  tag_19\n  jump\t// in\ntag_18:\n  pop\n  0x01\n  add\n  jump(tag_16)\ntag_17:\n  pop\n  swap1\n  jump\t// out\ntag_19:\n  pop\n  dup1\n  sload\n  tag_20\n  swap1\n  tag_21\n  jump\t// in\ntag_20:\n  0x00\n  dup3\n  sstore\n  dup1\n  0x1f\n  lt\n  tag_23\n  jumpi\n  pop\n  jump(tag_22)\ntag_23:\n  0x1f\n  add\n  0x20\n  swap1\n  div\n  swap1\n  0x00\n  mstore\n  keccak256(0x00, 0x20)\n  swap1\n  dup2\n  add\n  swap1\n  tag_24\n  swap2\n  swap1\n  tag_25\n  jump\t// in\ntag_24:\ntag_22:\n  pop\n  jump\t// out\ntag_25:\ntag_26:\n  dup1\n  dup3\n  gt\n  iszero\n  tag_27\n  jumpi\n  0x00\n  dup2\n  0x00\n  swap1\n  sstore\n  pop\n  0x01\n  add\n  jump(tag_26)\ntag_27:\n  pop\n  swap1\n  jump\t// out\n    /* \"#utility.yul\":7:82   */\ntag_28:\n    /* \"#utility.yul\":40:46   */\n  0x00\n    /* \"#utility.yul\":73:75   */\n  0x40\n    /* \"#utility.yul\":67:76   */\n  mload\n    /* \"#utility.yul\":57:76   */\n  swap1\n  pop\n    /* \"#utility.yul\":7:82   */\n  swap1\n  jump\t// out\n    /* \"#utility.yul\":88:205   */\ntag_29:\n    /* \"#utility.yul\":197:198   */\n  0x00\n    /* \"#utility.yul\":194:195   */\n  dup1\n    /* \"#utility.yul\":187:199   */\n  revert\n    /* \"#utility.yul\":211:328   */\ntag_30:\n    /* \"#utility.yul\":320:321   */\n  0x00\n    /* \"#utility.yul\":317:318   */\n  dup1\n    /* \"#utility.yul\":310:322   */\n  revert\n    /* \"#utility.yul\":334:451   */\ntag_31:\n    /* \"#utility.yul\":443:444   */\n  0x00\n    /* \"#utility.yul\":440:441   */\n  dup1\n    /* \"#utility.yul\":433:445   */\n  revert\n    /* \"#utility.yul\":457:559   */\ntag_32:\n    /* \"#utility.yul\":498:504   */\n  0x00\n    /* \"#utility.yul\":549:551   */\n  0x1f\n    /* \"#utility.yul\":545:552   */\n  not\n    /* \"#utility.yul\":540:542   */\n  0x1f\n    /* \"#utility.yul\":533:538   */\n  dup4\n    /* \"#utility.yul\":529:543   */\n  add\n    /* \"#utility.yul\":525:553   */\n  and\n    /* \"#utility.yul\":515:553   */\n  swap1\n  pop\n    /* \"#utility.yul\":457:559   */\n  swap2\n  swap1\n  pop\n  jump\t// out\n    /* \"#utility.yul\":565:745   */\ntag_33:\n    /* \"#utility.yul\":613:690   */\n  0x4e487b7100000000000000000000000000000000000000000000000000000000\n    /* \"#utility.yul\":610:611   */\n  0x00\n    /* \"#utility.yul\":603:691   */\n  mstore\n    /* \"#utility.yul\":710:714   */\n  0x41\n    /* \"#utility.yul\":707:708   */\n  0x04\n    /* \"#utility.yul\":700:715   */\n  mstore\n    /* \"#utility.yul\":734:738   */\n  0x24\n    /* \"#utility.yul\":731:732   */\n  0x00\n    /* \"#utility.yul\":724:739   */\n  revert\n    /* \"#utility.yul\":751:1032   */\ntag_34:\n    /* \"#utility.yul\":834:861   */\n  tag_71\n    /* \"#utility.yul\":856:860   */\n  dup3\n    /* \"#utility.yul\":834:861   */\n  tag_32\n  jump\t// in\ntag_71:\n    /* \"#utility.yul\":826:832   */\n  dup2\n    /* \"#utility.yul\":822:862   */\n  add\n    /* \"#utility.yul\":964:970   */\n  dup2\n    /* \"#utility.yul\":952:962   */\n  dup2\n    /* \"#utility.yul\":949:971   */\n  lt\n    /* \"#utility.yul\":928:946   */\n  0xffffffffffffffff\n    /* \"#utility.yul\":916:926   */\n  dup3\n    /* \"#utility.yul\":913:947   */\n  gt\n    /* \"#utility.yul\":910:972   */\n  or\n    /* \"#utility.yul\":907:995   */\n  iszero\n  tag_72\n  jumpi\n    /* \"#utility.yul\":975:993   */\n  tag_73\n  tag_33\n  jump\t// in\ntag_73:\n    /* \"#utility.yul\":907:995   */\ntag_72:\n    /* \"#utility.yul\":1015:1025   */\n  dup1\n    /* \"#utility.yul\":1011:1013   */\n  0x40\n    /* \"#utility.yul\":1004:1026   */\n  mstore\n    /* \"#utility.yul\":794:1032   */\n  pop\n    /* \"#utility.yul\":751:1032   */\n  pop\n  pop\n  jump\t// out\n    /* \"#utility.yul\":1038:1167   */\ntag_35:\n    /* \"#utility.yul\":1072:1078   */\n  0x00\n    /* \"#utility.yul\":1099:1119   */\n  tag_75\n  tag_28\n  jump\t// in\ntag_75:\n    /* \"#utility.yul\":1089:1119   */\n  swap1\n  pop\n    /* \"#utility.yul\":1128:1161   */\n  tag_76\n    /* \"#utility.yul\":1156:1160   */\n  dup3\n    /* \"#utility.yul\":1148:1154   */\n  dup3\n    /* \"#utility.yul\":1128:1161   */\n  tag_34\n  jump\t// in\ntag_76:\n    /* \"#utility.yul\":1038:1167   */\n  swap2\n  swap1\n  pop\n  jump\t// out\n    /* \"#utility.yul\":1173:1494   */\ntag_36:\n    /* \"#utility.yul\":1260:1264   */\n  0x00\n    /* \"#utility.yul\":1350:1368   */\n  0xffffffffffffffff\n    /* \"#utility.yul\":1342:1348   */\n  dup3\n    /* \"#utility.yul\":1339:1369   */\n  gt\n    /* \"#utility.yul\":1336:1392   */\n  iszero\n  tag_78\n  jumpi\n    /* \"#utility.yul\":1372:1390   */\n  tag_79\n  tag_33\n  jump\t// in\ntag_79:\n    /* \"#utility.yul\":1336:1392   */\ntag_78:\n    /* \"#utility.yul\":1422:1426   */\n  0x20\n    /* \"#utility.yul\":1414:1420   */\n  dup3\n    /* \"#utility.yul\":1410:1427   */\n  mul\n    /* \"#utility.yul\":1402:1427   */\n  swap1\n  pop\n    /* \"#utility.yul\":1482:1486   */\n  0x20\n    /* \"#utility.yul\":1476:1480   */\n  dup2\n    /* \"#utility.yul\":1472:1487   */\n  add\n    /* \"#utility.yul\":1464:1487   */\n  swap1\n  pop\n    /* \"#utility.yul\":1173:1494   */\n  swap2\n  swap1\n  pop\n  jump\t// out\n    /* \"#utility.yul\":1500:1617   */\ntag_37:\n    /* \"#utility.yul\":1609:1610   */\n  0x00\n    /* \"#utility.yul\":1606:1607   */\n  dup1\n    /* \"#utility.yul\":1599:1611   */\n  revert\n    /* \"#utility.yul\":1623:1740   */\ntag_38:\n    /* \"#utility.yul\":1732:1733   */\n  0x00\n    /* \"#utility.yul\":1729:1730   */\n  dup1\n    /* \"#utility.yul\":1722:1734   */\n  revert\n    /* \"#utility.yul\":1746:2054   */\ntag_39:\n    /* \"#utility.yul\":1808:1812   */\n  0x00\n    /* \"#utility.yul\":1898:1916   */\n  0xffffffffffffffff\n    /* \"#utility.yul\":1890:1896   */\n  dup3\n    /* \"#utility.yul\":1887:1917   */\n  gt\n    /* \"#utility.yul\":1884:1940   */\n  iszero\n  tag_83\n  jumpi\n    /* \"#utility.yul\":1920:1938   */\n  tag_84\n  tag_33\n  jump\t// in\ntag_84:\n    /* \"#utility.yul\":1884:1940   */\ntag_83:\n    /* \"#utility.yul\":1958:1987   */\n  tag_85\n    /* \"#utility.yul\":1980:1986   */\n  dup3\n    /* \"#utility.yul\":1958:1987   */\n  tag_32\n  jump\t// in\ntag_85:\n    /* \"#utility.yul\":1950:1987   */\n  swap1\n  pop\n    /* \"#utility.yul\":2042:2046   */\n  0x20\n    /* \"#utility.yul\":2036:2040   */\n  dup2\n    /* \"#utility.yul\":2032:2047   */\n  add\n    /* \"#utility.yul\":2024:2047   */\n  swap1\n  pop\n    /* \"#utility.yul\":1746:2054   */\n  swap2\n  swap1\n  pop\n  jump\t// out\n    /* \"#utility.yul\":2060:2199   */\ntag_40:\n    /* \"#utility.yul\":2149:2155   */\n  dup3\n    /* \"#utility.yul\":2144:2147   */\n  dup2\n    /* \"#utility.yul\":2139:2142   */\n  dup4\n    /* \"#utility.yul\":2133:2156   */\n  mcopy\n    /* \"#utility.yul\":2190:2191   */\n  0x00\n    /* \"#utility.yul\":2181:2187   */\n  dup4\n    /* \"#utility.yul\":2176:2179   */\n  dup4\n    /* \"#utility.yul\":2172:2188   */\n  add\n    /* \"#utility.yul\":2165:2192   */\n  mstore\n    /* \"#utility.yul\":2060:2199   */\n  pop\n  pop\n  pop\n  jump\t// out\n    /* \"#utility.yul\":2205:2639   */\ntag_41:\n    /* \"#utility.yul\":2294:2299   */\n  0x00\n    /* \"#utility.yul\":2319:2385   */\n  tag_88\n    /* \"#utility.yul\":2335:2384   */\n  tag_89\n    /* \"#utility.yul\":2377:2383   */\n  dup5\n    /* \"#utility.yul\":2335:2384   */\n  tag_39\n  jump\t// in\ntag_89:\n    /* \"#utility.yul\":2319:2385   */\n  tag_35\n  jump\t// in\ntag_88:\n    /* \"#utility.yul\":2310:2385   */\n  swap1\n  pop\n    /* \"#utility.yul\":2408:2414   */\n  dup3\n    /* \"#utility.yul\":2401:2406   */\n  dup2\n    /* \"#utility.yul\":2394:2415   */\n  mstore\n    /* \"#utility.yul\":2446:2450   */\n  0x20\n    /* \"#utility.yul\":2439:2444   */\n  dup2\n    /* \"#utility.yul\":2435:2451   */\n  add\n    /* \"#utility.yul\":2484:2487   */\n  dup5\n    /* \"#utility.yul\":2475:2481   */\n  dup5\n    /* \"#utility.yul\":2470:2473   */\n  dup5\n    /* \"#utility.yul\":2466:2482   */\n  add\n    /* \"#utility.yul\":2463:2488   */\n  gt\n    /* \"#utility.yul\":2460:2572   */\n  iszero\n  tag_90\n  jumpi\n    /* \"#utility.yul\":2491:2570   */\n  tag_91\n  tag_38\n  jump\t// in\ntag_91:\n    /* \"#utility.yul\":2460:2572   */\ntag_90:\n    /* \"#utility.yul\":2581:2633   */\n  tag_92\n    /* \"#utility.yul\":2626:2632   */\n  dup5\n    /* \"#utility.yul\":2621:2624   */\n  dup3\n    /* \"#utility.yul\":2616:2619   */\n  dup6\n    /* \"#utility.yul\":2581:2633   */\n  tag_40\n  jump\t// in\ntag_92:\n    /* \"#utility.yul\":2300:2639   */\n  pop\n    /* \"#utility.yul\":2205:2639   */\n  swap4\n  swap3\n  pop\n  pop\n  pop\n  jump\t// out\n    /* \"#utility.yul\":2659:3014   */\ntag_42:\n    /* \"#utility.yul\":2726:2731   */\n  0x00\n    /* \"#utility.yul\":2775:2778   */\n  dup3\n    /* \"#utility.yul\":2768:2772   */\n  0x1f\n    /* \"#utility.yul\":2760:2766   */\n  dup4\n    /* \"#utility.yul\":2756:2773   */\n  add\n    /* \"#utility.yul\":2752:2779   */\n  slt\n    /* \"#utility.yul\":2742:2864   */\n  tag_94\n  jumpi\n    /* \"#utility.yul\":2783:2862   */\n  tag_95\n  tag_31\n  jump\t// in\ntag_95:\n    /* \"#utility.yul\":2742:2864   */\ntag_94:\n    /* \"#utility.yul\":2893:2899   */\n  dup2\n    /* \"#utility.yul\":2887:2900   */\n  mload\n    /* \"#utility.yul\":2918:3008   */\n  tag_96\n    /* \"#utility.yul\":3004:3007   */\n  dup5\n    /* \"#utility.yul\":2996:3002   */\n  dup3\n    /* \"#utility.yul\":2989:2993   */\n  0x20\n    /* \"#utility.yul\":2981:2987   */\n  dup7\n    /* \"#utility.yul\":2977:2994   */\n  add\n    /* \"#utility.yul\":2918:3008   */\n  tag_41\n  jump\t// in\ntag_96:\n    /* \"#utility.yul\":2909:3008   */\n  swap2\n  pop\n    /* \"#utility.yul\":2732:3014   */\n  pop\n    /* \"#utility.yul\":2659:3014   */\n  swap3\n  swap2\n  pop\n  pop\n  jump\t// out\n    /* \"#utility.yul\":3036:3996   */\ntag_43:\n    /* \"#utility.yul\":3153:3158   */\n  0x00\n    /* \"#utility.yul\":3178:3269   */\n  tag_98\n    /* \"#utility.yul\":3194:3268   */\n  tag_99\n    /* \"#utility.yul\":3261:3267   */\n  dup5\n    /* \"#utility.yul\":3194:3268   */\n  tag_36\n  jump\t// in\ntag_99:\n    /* \"#utility.yul\":3178:3269   */\n  tag_35\n  jump\t// in\ntag_98:\n    /* \"#utility.yul\":3169:3269   */\n  swap1\n  pop\n    /* \"#utility.yul\":3289:3294   */\n  dup1\n    /* \"#utility.yul\":3318:3324   */\n  dup4\n    /* \"#utility.yul\":3311:3316   */\n  dup3\n    /* \"#utility.yul\":3304:3325   */\n  mstore\n    /* \"#utility.yul\":3352:3356   */\n  0x20\n    /* \"#utility.yul\":3345:3350   */\n  dup3\n    /* \"#utility.yul\":3341:3357   */\n  add\n    /* \"#utility.yul\":3334:3357   */\n  swap1\n  pop\n    /* \"#utility.yul\":3405:3409   */\n  0x20\n    /* \"#utility.yul\":3397:3403   */\n  dup5\n    /* \"#utility.yul\":3393:3410   */\n  mul\n    /* \"#utility.yul\":3385:3391   */\n  dup4\n    /* \"#utility.yul\":3381:3411   */\n  add\n    /* \"#utility.yul\":3434:3437   */\n  dup6\n    /* \"#utility.yul\":3426:3432   */\n  dup2\n    /* \"#utility.yul\":3423:3438   */\n  gt\n    /* \"#utility.yul\":3420:3542   */\n  iszero\n  tag_100\n  jumpi\n    /* \"#utility.yul\":3453:3532   */\n  tag_101\n  tag_37\n  jump\t// in\ntag_101:\n    /* \"#utility.yul\":3420:3542   */\ntag_100:\n    /* \"#utility.yul\":3568:3574   */\n  dup4\n    /* \"#utility.yul\":3551:3990   */\ntag_102:\n    /* \"#utility.yul\":3585:3591   */\n  dup2\n    /* \"#utility.yul\":3580:3583   */\n  dup2\n    /* \"#utility.yul\":3577:3592   */\n  lt\n    /* \"#utility.yul\":3551:3990   */\n  iszero\n  tag_104\n  jumpi\n    /* \"#utility.yul\":3667:3670   */\n  dup1\n    /* \"#utility.yul\":3661:3671   */\n  mload\n    /* \"#utility.yul\":3703:3721   */\n  0xffffffffffffffff\n    /* \"#utility.yul\":3690:3701   */\n  dup2\n    /* \"#utility.yul\":3687:3722   */\n  gt\n    /* \"#utility.yul\":3684:3806   */\n  iszero\n  tag_105\n  jumpi\n    /* \"#utility.yul\":3725:3804   */\n  tag_106\n  tag_31\n  jump\t// in\ntag_106:\n    /* \"#utility.yul\":3684:3806   */\ntag_105:\n    /* \"#utility.yul\":3849:3860   */\n  dup1\n    /* \"#utility.yul\":3841:3847   */\n  dup7\n    /* \"#utility.yul\":3837:3861   */\n  add\n    /* \"#utility.yul\":3887:3945   */\n  tag_107\n    /* \"#utility.yul\":3941:3944   */\n  dup10\n    /* \"#utility.yul\":3929:3939   */\n  dup3\n    /* \"#utility.yul\":3887:3945   */\n  tag_42\n  jump\t// in\ntag_107:\n    /* \"#utility.yul\":3882:3885   */\n  dup6\n    /* \"#utility.yul\":3875:3946   */\n  mstore\n    /* \"#utility.yul\":3975:3979   */\n  0x20\n    /* \"#utility.yul\":3970:3973   */\n  dup6\n    /* \"#utility.yul\":3966:3980   */\n  add\n    /* \"#utility.yul\":3959:3980   */\n  swap5\n  pop\n    /* \"#utility.yul\":3627:3990   */\n  pop\n  pop\n    /* \"#utility.yul\":3611:3615   */\n  0x20\n    /* \"#utility.yul\":3606:3609   */\n  dup2\n    /* \"#utility.yul\":3602:3616   */\n  add\n    /* \"#utility.yul\":3595:3616   */\n  swap1\n  pop\n    /* \"#utility.yul\":3551:3990   */\n  jump(tag_102)\ntag_104:\n    /* \"#utility.yul\":3555:3576   */\n  pop\n    /* \"#utility.yul\":3159:3996   */\n  pop\n  pop\n    /* \"#utility.yul\":3036:3996   */\n  swap4\n  swap3\n  pop\n  pop\n  pop\n  jump\t// out\n    /* \"#utility.yul\":4018:4423   */\ntag_44:\n    /* \"#utility.yul\":4110:4115   */\n  0x00\n    /* \"#utility.yul\":4159:4162   */\n  dup3\n    /* \"#utility.yul\":4152:4156   */\n  0x1f\n    /* \"#utility.yul\":4144:4150   */\n  dup4\n    /* \"#utility.yul\":4140:4157   */\n  add\n    /* \"#utility.yul\":4136:4163   */\n  slt\n    /* \"#utility.yul\":4126:4248   */\n  tag_109\n  jumpi\n    /* \"#utility.yul\":4167:4246   */\n  tag_110\n  tag_31\n  jump\t// in\ntag_110:\n    /* \"#utility.yul\":4126:4248   */\ntag_109:\n    /* \"#utility.yul\":4277:4283   */\n  dup2\n    /* \"#utility.yul\":4271:4284   */\n  mload\n    /* \"#utility.yul\":4302:4417   */\n  tag_111\n    /* \"#utility.yul\":4413:4416   */\n  dup5\n    /* \"#utility.yul\":4405:4411   */\n  dup3\n    /* \"#utility.yul\":4398:4402   */\n  0x20\n    /* \"#utility.yul\":4390:4396   */\n  dup7\n    /* \"#utility.yul\":4386:4403   */\n  add\n    /* \"#utility.yul\":4302:4417   */\n  tag_43\n  jump\t// in\ntag_111:\n    /* \"#utility.yul\":4293:4417   */\n  swap2\n  pop\n    /* \"#utility.yul\":4116:4423   */\n  pop\n    /* \"#utility.yul\":4018:4423   */\n  swap3\n  swap2\n  pop\n  pop\n  jump\t// out\n    /* \"#utility.yul\":4429:5003   */\ntag_3:\n    /* \"#utility.yul\":4534:4540   */\n  0x00\n    /* \"#utility.yul\":4583:4585   */\n  0x20\n    /* \"#utility.yul\":4571:4580   */\n  dup3\n    /* \"#utility.yul\":4562:4569   */\n  dup5\n    /* \"#utility.yul\":4558:4581   */\n  sub\n    /* \"#utility.yul\":4554:4586   */\n  slt\n    /* \"#utility.yul\":4551:4670   */\n  iszero\n  tag_113\n  jumpi\n    /* \"#utility.yul\":4589:4668   */\n  tag_114\n  tag_29\n  jump\t// in\ntag_114:\n    /* \"#utility.yul\":4551:4670   */\ntag_113:\n    /* \"#utility.yul\":4730:4731   */\n  0x00\n    /* \"#utility.yul\":4719:4728   */\n  dup3\n    /* \"#utility.yul\":4715:4732   */\n  add\n    /* \"#utility.yul\":4709:4733   */\n  mload\n    /* \"#utility.yul\":4760:4778   */\n  0xffffffffffffffff\n    /* \"#utility.yul\":4752:4758   */\n  dup2\n    /* \"#utility.yul\":4749:4779   */\n  gt\n    /* \"#utility.yul\":4746:4863   */\n  iszero\n  tag_115\n  jumpi\n    /* \"#utility.yul\":4782:4861   */\n  tag_116\n  tag_30\n  jump\t// in\ntag_116:\n    /* \"#utility.yul\":4746:4863   */\ntag_115:\n    /* \"#utility.yul\":4887:4986   */\n  tag_117\n    /* \"#utility.yul\":4978:4985   */\n  dup5\n    /* \"#utility.yul\":4969:4975   */\n  dup3\n    /* \"#utility.yul\":4958:4967   */\n  dup6\n    /* \"#utility.yul\":4954:4976   */\n  add\n    /* \"#utility.yul\":4887:4986   */\n  tag_44\n  jump\t// in\ntag_117:\n    /* \"#utility.yul\":4877:4986   */\n  swap2\n  pop\n    /* \"#utility.yul\":4680:4996   */\n  pop\n    /* \"#utility.yul\":4429:5003   */\n  swap3\n  swap2\n  pop\n  pop\n  jump\t// out\n    /* \"#utility.yul\":5009:5108   */\ntag_45:\n    /* \"#utility.yul\":5061:5067   */\n  0x00\n    /* \"#utility.yul\":5095:5100   */\n  dup2\n    /* \"#utility.yul\":5089:5101   */\n  mload\n    /* \"#utility.yul\":5079:5101   */\n  swap1\n  pop\n    /* \"#utility.yul\":5009:5108   */\n  swap2\n  swap1\n  pop\n  jump\t// out\n    /* \"#utility.yul\":5114:5294   */\ntag_46:\n    /* \"#utility.yul\":5162:5239   */\n  0x4e487b7100000000000000000000000000000000000000000000000000000000\n    /* \"#utility.yul\":5159:5160   */\n  0x00\n    /* \"#utility.yul\":5152:5240   */\n  mstore\n    /* \"#utility.yul\":5259:5263   */\n  0x22\n    /* \"#utility.yul\":5256:5257   */\n  0x04\n    /* \"#utility.yul\":5249:5264   */\n  mstore\n    /* \"#utility.yul\":5283:5287   */\n  0x24\n    /* \"#utility.yul\":5280:5281   */\n  0x00\n    /* \"#utility.yul\":5273:5288   */\n  revert\n    /* \"#utility.yul\":5300:5620   */\ntag_21:\n    /* \"#utility.yul\":5344:5350   */\n  0x00\n    /* \"#utility.yul\":5381:5382   */\n  0x02\n    /* \"#utility.yul\":5375:5379   */\n  dup3\n    /* \"#utility.yul\":5371:5383   */\n  div\n    /* \"#utility.yul\":5361:5383   */\n  swap1\n  pop\n    /* \"#utility.yul\":5428:5429   */\n  0x01\n    /* \"#utility.yul\":5422:5426   */\n  dup3\n    /* \"#utility.yul\":5418:5430   */\n  and\n    /* \"#utility.yul\":5449:5467   */\n  dup1\n    /* \"#utility.yul\":5439:5520   */\n  tag_121\n  jumpi\n    /* \"#utility.yul\":5505:5509   */\n  0x7f\n    /* \"#utility.yul\":5497:5503   */\n  dup3\n    /* \"#utility.yul\":5493:5510   */\n  and\n    /* \"#utility.yul\":5483:5510   */\n  swap2\n  pop\n    /* \"#utility.yul\":5439:5520   */\ntag_121:\n    /* \"#utility.yul\":5567:5569   */\n  0x20\n    /* \"#utility.yul\":5559:5565   */\n  dup3\n    /* \"#utility.yul\":5556:5570   */\n  lt\n    /* \"#utility.yul\":5536:5554   */\n  dup2\n    /* \"#utility.yul\":5533:5571   */\n  sub\n    /* \"#utility.yul\":5530:5614   */\n  tag_122\n  jumpi\n    /* \"#utility.yul\":5586:5604   */\n  tag_123\n  tag_46\n  jump\t// in\ntag_123:\n    /* \"#utility.yul\":5530:5614   */\ntag_122:\n    /* \"#utility.yul\":5351:5620   */\n  pop\n    /* \"#utility.yul\":5300:5620   */\n  swap2\n  swap1\n  pop\n  jump\t// out\n    /* \"#utility.yul\":5626:5767   */\ntag_47:\n    /* \"#utility.yul\":5675:5679   */\n  0x00\n    /* \"#utility.yul\":5698:5701   */\n  dup2\n    /* \"#utility.yul\":5690:5701   */\n  swap1\n  pop\n    /* \"#utility.yul\":5721:5724   */\n  dup2\n    /* \"#utility.yul\":5718:5719   */\n  0x00\n    /* \"#utility.yul\":5711:5725   */\n  mstore\n    /* \"#utility.yul\":5755:5759   */\n  0x20\n    /* \"#utility.yul\":5752:5753   */\n  0x00\n    /* \"#utility.yul\":5742:5760   */\n  keccak256\n    /* \"#utility.yul\":5734:5760   */\n  swap1\n  pop\n    /* \"#utility.yul\":5626:5767   */\n  swap2\n  swap1\n  pop\n  jump\t// out\n    /* \"#utility.yul\":5773:5866   */\ntag_48:\n    /* \"#utility.yul\":5810:5816   */\n  0x00\n    /* \"#utility.yul\":5857:5859   */\n  0x20\n    /* \"#utility.yul\":5852:5854   */\n  0x1f\n    /* \"#utility.yul\":5845:5850   */\n  dup4\n    /* \"#utility.yul\":5841:5855   */\n  add\n    /* \"#utility.yul\":5837:5860   */\n  div\n    /* \"#utility.yul\":5827:5860   */\n  swap1\n  pop\n    /* \"#utility.yul\":5773:5866   */\n  swap2\n  swap1\n  pop\n  jump\t// out\n    /* \"#utility.yul\":5872:5979   */\ntag_49:\n    /* \"#utility.yul\":5916:5924   */\n  0x00\n    /* \"#utility.yul\":5966:5971   */\n  dup3\n    /* \"#utility.yul\":5960:5964   */\n  dup3\n    /* \"#utility.yul\":5956:5972   */\n  shl\n    /* \"#utility.yul\":5935:5972   */\n  swap1\n  pop\n    /* \"#utility.yul\":5872:5979   */\n  swap3\n  swap2\n  pop\n  pop\n  jump\t// out\n    /* \"#utility.yul\":5985:6378   */\ntag_50:\n    /* \"#utility.yul\":6054:6060   */\n  0x00\n    /* \"#utility.yul\":6104:6105   */\n  0x08\n    /* \"#utility.yul\":6092:6102   */\n  dup4\n    /* \"#utility.yul\":6088:6106   */\n  mul\n    /* \"#utility.yul\":6127:6224   */\n  tag_128\n    /* \"#utility.yul\":6157:6223   */\n  0xffffffffffffffffffffffffffffffffffffffffffffffffffffffffffffffff\n    /* \"#utility.yul\":6146:6155   */\n  dup3\n    /* \"#utility.yul\":6127:6224   */\n  tag_49\n  jump\t// in\ntag_128:\n    /* \"#utility.yul\":6245:6284   */\n  tag_129\n    /* \"#utility.yul\":6275:6283   */\n  dup7\n    /* \"#utility.yul\":6264:6273   */\n  dup4\n    /* \"#utility.yul\":6245:6284   */\n  tag_49\n  jump\t// in\ntag_129:\n    /* \"#utility.yul\":6233:6284   */\n  swap6\n  pop\n    /* \"#utility.yul\":6317:6321   */\n  dup1\n    /* \"#utility.yul\":6313:6322   */\n  not\n    /* \"#utility.yul\":6306:6311   */\n  dup5\n    /* \"#utility.yul\":6302:6323   */\n  and\n    /* \"#utility.yul\":6293:6323   */\n  swap4\n  pop\n    /* \"#utility.yul\":6366:6370   */\n  dup1\n    /* \"#utility.yul\":6356:6364   */\n  dup7\n    /* \"#utility.yul\":6352:6371   */\n  and\n    /* \"#utility.yul\":6345:6350   */\n  dup5\n    /* \"#utility.yul\":6342:6372   */\n  or\n    /* \"#utility.yul\":6332:6372   */\n  swap3\n  pop\n    /* \"#utility.yul\":6061:6378   */\n  pop\n  pop\n    /* \"#utility.yul\":5985:6378   */\n  swap4\n  swap3\n  pop\n  pop\n  pop\n  jump\t// out\n    /* \"#utility.yul\":6384:6461   */\ntag_51:\n    /* \"#utility.yul\":6421:6428   */\n  0x00\n    /* \"#utility.yul\":6450:6455   */\n  dup2\n    /* \"#utility.yul\":6439:6455   */\n  swap1\n  pop\n    /* \"#utility.yul\":6384:6461   */\n  swap2\n  swap1\n  pop\n  jump\t// out\n    /* \"#utility.yul\":6467:6527   */\ntag_52:\n    /* \"#utility.yul\":6495:6498   */\n  0x00\n    /* \"#utility.yul\":6516:6521   */\n  dup2\n    /* \"#utility.yul\":6509:6521   */\n  swap1\n  pop\n    /* \"#utility.yul\":6467:6527   */\n  swap2\n  swap1\n  pop\n  jump\t// out\n    /* \"#utility.yul\":6533:6675   */\ntag_53:\n    /* \"#utility.yul\":6583:6592   */\n  0x00\n    /* \"#utility.yul\":6616:6669   */\n  tag_133\n    /* \"#utility.yul\":6634:6668   */\n  tag_134\n    /* \"#utility.yul\":6643:6667   */\n  tag_135\n    /* \"#utility.yul\":6661:6666   */\n  dup5\n    /* \"#utility.yul\":6643:6667   */\n  tag_51\n  jump\t// in\ntag_135:\n    /* \"#utility.yul\":6634:6668   */\n  tag_52\n  jump\t// in\ntag_134:\n    /* \"#utility.yul\":6616:6669   */\n  tag_51\n  jump\t// in\ntag_133:\n    /* \"#utility.yul\":6603:6669   */\n  swap1\n  pop\n    /* \"#utility.yul\":6533:6675   */\n  swap2\n  swap1\n  pop\n  jump\t// out\n    /* \"#utility.yul\":6681:6756   */\ntag_54:\n    /* \"#utility.yul\":6724:6727   */\n  0x00\n    /* \"#utility.yul\":6745:6750   */\n  dup2\n    /* \"#utility.yul\":6738:6750   */\n  swap1\n  pop\n    /* \"#utility.yul\":6681:6756   */\n  swap2\n  swap1\n  pop\n  jump\t// out\n    /* \"#utility.yul\":6762:7031   */\ntag_55:\n    /* \"#utility.yul\":6872:6911   */\n  tag_138\n    /* \"#utility.yul\":6903:6910   */\n  dup4\n    /* \"#utility.yul\":6872:6911   */\n  tag_53\n  jump\t// in\ntag_138:\n    /* \"#utility.yul\":6933:7024   */\n  tag_139\n    /* \"#utility.yul\":6982:7023   */\n  tag_140\n    /* \"#utility.yul\":7006:7022   */\n  dup3\n    /* \"#utility.yul\":6982:7023   */\n  tag_54\n  jump\t// in\ntag_140:\n    /* \"#utility.yul\":6974:6980   */\n  dup5\n    /* \"#utility.yul\":6967:6971   */\n  dup5\n    /* \"#utility.yul\":6961:6972   */\n  sload\n    /* \"#utility.yul\":6933:7024   */\n  tag_50\n  jump\t// in\ntag_139:\n    /* \"#utility.yul\":6927:6931   */\n  dup3\n    /* \"#utility.yul\":6920:7025   */\n  sstore\n    /* \"#utility.yul\":6838:7031   */\n  pop\n    /* \"#utility.yul\":6762:7031   */\n  pop\n  pop\n  pop\n  jump\t// out\n    /* \"#utility.yul\":7037:7110   */\ntag_56:\n    /* \"#utility.yul\":7082:7085   */\n  0x00\n    /* \"#utility.yul\":7037:7110   */\n  swap1\n  jump\t// out\n    /* \"#utility.yul\":7116:7305   */\ntag_57:\n    /* \"#utility.yul\":7193:7225   */\n  tag_143\n  tag_56\n  jump\t// in\ntag_143:\n    /* \"#utility.yul\":7234:7299   */\n  tag_144\n    /* \"#utility.yul\":7292:7298   */\n  dup2\n    /* \"#utility.yul\":7284:7290   */\n  dup5\n    /* \"#utility.yul\":7278:7282   */\n  dup5\n    /* \"#utility.yul\":7234:7299   */\n  tag_55\n  jump\t// in\ntag_144:\n    /* \"#utility.yul\":7169:7305   */\n  pop\n    /* \"#utility.yul\":7116:7305   */\n  pop\n  pop\n  jump\t// out\n    /* \"#utility.yul\":7311:7497   */\ntag_58:\n    /* \"#utility.yul\":7371:7491   */\ntag_146:\n    /* \"#utility.yul\":7388:7391   */\n  dup2\n    /* \"#utility.yul\":7381:7386   */\n  dup2\n    /* \"#utility.yul\":7378:7392   */\n  lt\n    /* \"#utility.yul\":7371:7491   */\n  iszero\n  tag_148\n  jumpi\n    /* \"#utility.yul\":7442:7481   */\n  tag_149\n    /* \"#utility.yul\":7479:7480   */\n  0x00\n    /* \"#utility.yul\":7472:7477   */\n  dup3\n    /* \"#utility.yul\":7442:7481   */\n  tag_57\n  jump\t// in\ntag_149:\n    /* \"#utility.yul\":7415:7416   */\n  0x01\n    /* \"#utility.yul\":7408:7413   */\n  dup2\n    /* \"#utility.yul\":7404:7417   */\n  add\n    /* \"#utility.yul\":7395:7417   */\n  swap1\n  pop\n    /* \"#utility.yul\":7371:7491   */\n  jump(tag_146)\ntag_148:\n    /* \"#utility.yul\":7311:7497   */\n  pop\n  pop\n  jump\t// out\n    /* \"#utility.yul\":7503:8046   */\ntag_59:\n    /* \"#utility.yul\":7604:7606   */\n  0x1f\n    /* \"#utility.yul\":7599:7602   */\n  dup3\n    /* \"#utility.yul\":7596:7607   */\n  gt\n    /* \"#utility.yul\":7593:8039   */\n  iszero\n  tag_151\n  jumpi\n    /* \"#utility.yul\":7638:7676   */\n  tag_152\n    /* \"#utility.yul\":7670:7675   */\n  dup2\n    /* \"#utility.yul\":7638:7676   */\n  tag_47\n  jump\t// in\ntag_152:\n    /* \"#utility.yul\":7722:7751   */\n  tag_153\n    /* \"#utility.yul\":7740:7750   */\n  dup5\n    /* \"#utility.yul\":7722:7751   */\n  tag_48\n  jump\t// in\ntag_153:\n    /* \"#utility.yul\":7712:7720   */\n  dup2\n    /* \"#utility.yul\":7708:7752   */\n  add\n    /* \"#utility.yul\":7905:7907   */\n  0x20\n    /* \"#utility.yul\":7893:7903   */\n  dup6\n    /* \"#utility.yul\":7890:7908   */\n  lt\n    /* \"#utility.yul\":7887:7936   */\n  iszero\n  tag_154\n  jumpi\n    /* \"#utility.yul\":7926:7934   */\n  dup2\n    /* \"#utility.yul\":7911:7934   */\n  swap1\n  pop\n    /* \"#utility.yul\":7887:7936   */\ntag_154:\n    /* \"#utility.yul\":7949:8029   */\n  tag_155\n    /* \"#utility.yul\":8005:8027   */\n  tag_156\n    /* \"#utility.yul\":8023:8026   */\n  dup6\n    /* \"#utility.yul\":8005:8027   */\n  tag_48\n  jump\t// in\ntag_156:\n    /* \"#utility.yul\":7995:8003   */\n  dup4\n    /* \"#utility.yul\":7991:8028   */\n  add\n    /* \"#utility.yul\":7978:7989   */\n  dup3\n    /* \"#utility.yul\":7949:8029   */\n  tag_58\n  jump\t// in\ntag_155:\n    /* \"#utility.yul\":7608:8039   */\n  pop\n  pop\n    /* \"#utility.yul\":7593:8039   */\ntag_151:\n    /* \"#utility.yul\":7503:8046   */\n  pop\n  pop\n  pop\n  jump\t// out\n    /* \"#utility.yul\":8052:8169   */\ntag_60:\n    /* \"#utility.yul\":8106:8114   */\n  0x00\n    /* \"#utility.yul\":8156:8161   */\n  dup3\n    /* \"#utility.yul\":8150:8154   */\n  dup3\n    /* \"#utility.yul\":8146:8162   */\n  shr\n    /* \"#utility.yul\":8125:8162   */\n  swap1\n  pop\n    /* \"#utility.yul\":8052:8169   */\n  swap3\n  swap2\n  pop\n  pop\n  jump\t// out\n    /* \"#utility.yul\":8175:8344   */\ntag_61:\n    /* \"#utility.yul\":8219:8225   */\n  0x00\n    /* \"#utility.yul\":8252:8303   */\n  tag_159\n    /* \"#utility.yul\":8300:8301   */\n  0x00\n    /* \"#utility.yul\":8296:8302   */\n  not\n    /* \"#utility.yul\":8288:8293   */\n  dup5\n    /* \"#utility.yul\":8285:8286   */\n  0x08\n    /* \"#utility.yul\":8281:8294   */\n  mul\n    /* \"#utility.yul\":8252:8303   */\n  tag_60\n  jump\t// in\ntag_159:\n    /* \"#utility.yul\":8248:8304   */\n  not\n    /* \"#utility.yul\":8333:8337   */\n  dup1\n    /* \"#utility.yul\":8327:8331   */\n  dup4\n    /* \"#utility.yul\":8323:8338   */\n  and\n    /* \"#utility.yul\":8313:8338   */\n  swap2\n  pop\n    /* \"#utility.yul\":8226:8344   */\n  pop\n    /* \"#utility.yul\":8175:8344   */\n  swap3\n  swap2\n  pop\n  pop\n  jump\t// out\n    /* \"#utility.yul\":8349:8644   */\ntag_62:\n    /* \"#utility.yul\":8425:8429   */\n  0x00\n    /* \"#utility.yul\":8571:8600   */\n  tag_161\n    /* \"#utility.yul\":8596:8599   */\n  dup4\n    /* \"#utility.yul\":8590:8594   */\n  dup4\n    /* \"#utility.yul\":8571:8600   */\n  tag_61\n  jump\t// in\ntag_161:\n    /* \"#utility.yul\":8563:8600   */\n  swap2\n  pop\n    /* \"#utility.yul\":8633:8636   */\n  dup3\n    /* \"#utility.yul\":8630:8631   */\n  0x02\n    /* \"#utility.yul\":8626:8637   */\n  mul\n    /* \"#utility.yul\":8620:8624   */\n  dup3\n    /* \"#utility.yul\":8617:8638   */\n  or\n    /* \"#utility.yul\":8609:8638   */\n  swap1\n  pop\n    /* \"#utility.yul\":8349:8644   */\n  swap3\n  swap2\n  pop\n  pop\n  jump\t// out\n    /* \"#utility.yul\":8649:10044   */\ntag_13:\n    /* \"#utility.yul\":8766:8803   */\n  tag_163\n    /* \"#utility.yul\":8799:8802   */\n  dup3\n    /* \"#utility.yul\":8766:8803   */\n  tag_45\n  jump\t// in\ntag_163:\n    /* \"#utility.yul\":8868:8886   */\n  0xffffffffffffffff\n    /* \"#utility.yul\":8860:8866   */\n  dup2\n    /* \"#utility.yul\":8857:8887   */\n  gt\n    /* \"#utility.yul\":8854:8910   */\n  iszero\n  tag_164\n  jumpi\n    /* \"#utility.yul\":8890:8908   */\n  tag_165\n  tag_33\n  jump\t// in\ntag_165:\n    /* \"#utility.yul\":8854:8910   */\ntag_164:\n    /* \"#utility.yul\":8934:8972   */\n  tag_166\n    /* \"#utility.yul\":8966:8970   */\n  dup3\n    /* \"#utility.yul\":8960:8971   */\n  sload\n    /* \"#utility.yul\":8934:8972   */\n  tag_21\n  jump\t// in\ntag_166:\n    /* \"#utility.yul\":9019:9086   */\n  tag_167\n    /* \"#utility.yul\":9079:9085   */\n  dup3\n    /* \"#utility.yul\":9071:9077   */\n  dup3\n    /* \"#utility.yul\":9065:9069   */\n  dup6\n    /* \"#utility.yul\":9019:9086   */\n  tag_59\n  jump\t// in\ntag_167:\n    /* \"#utility.yul\":9113:9114   */\n  0x00\n    /* \"#utility.yul\":9137:9141   */\n  0x20\n    /* \"#utility.yul\":9124:9141   */\n  swap1\n  pop\n    /* \"#utility.yul\":9169:9171   */\n  0x1f\n    /* \"#utility.yul\":9161:9167   */\n  dup4\n    /* \"#utility.yul\":9158:9172   */\n  gt\n    /* \"#utility.yul\":9186:9187   */\n  0x01\n    /* \"#utility.yul\":9181:9799   */\n  dup2\n  eq\n  tag_169\n  jumpi\n    /* \"#utility.yul\":9843:9844   */\n  0x00\n    /* \"#utility.yul\":9860:9866   */\n  dup5\n    /* \"#utility.yul\":9857:9934   */\n  iszero\n  tag_170\n  jumpi\n    /* \"#utility.yul\":9909:9918   */\n  dup3\n    /* \"#utility.yul\":9904:9907   */\n  dup8\n    /* \"#utility.yul\":9900:9919   */\n  add\n    /* \"#utility.yul\":9894:9920   */\n  mload\n    /* \"#utility.yul\":9885:9920   */\n  swap1\n  pop\n    /* \"#utility.yul\":9857:9934   */\ntag_170:\n    /* \"#utility.yul\":9960:10027   */\n  tag_171\n    /* \"#utility.yul\":10020:10026   */\n  dup6\n    /* \"#utility.yul\":10013:10018   */\n  dup3\n    /* \"#utility.yul\":9960:10027   */\n  tag_62\n  jump\t// in\ntag_171:\n    /* \"#utility.yul\":9954:9958   */\n  dup7\n    /* \"#utility.yul\":9947:10028   */\n  sstore\n    /* \"#utility.yul\":9816:10038   */\n  pop\n    /* \"#utility.yul\":9151:10038   */\n  jump(tag_168)\n    /* \"#utility.yul\":9181:9799   */\ntag_169:\n    /* \"#utility.yul\":9233:9237   */\n  0x1f\n    /* \"#utility.yul\":9229:9238   */\n  not\n    /* \"#utility.yul\":9221:9227   */\n  dup5\n    /* \"#utility.yul\":9217:9239   */\n  and\n    /* \"#utility.yul\":9267:9304   */\n  tag_172\n    /* \"#utility.yul\":9299:9303   */\n  dup7\n    /* \"#utility.yul\":9267:9304   */\n  tag_47\n  jump\t// in\ntag_172:\n    /* \"#utility.yul\":9326:9327   */\n  0x00\n    /* \"#utility.yul\":9340:9548   */\ntag_173:\n    /* \"#utility.yul\":9354:9361   */\n  dup3\n    /* \"#utility.yul\":9351:9352   */\n  dup2\n    /* \"#utility.yul\":9348:9362   */\n  lt\n    /* \"#utility.yul\":9340:9548   */\n  iszero\n  tag_175\n  jumpi\n    /* \"#utility.yul\":9433:9442   */\n  dup5\n    /* \"#utility.yul\":9428:9431   */\n  dup10\n    /* \"#utility.yul\":9424:9443   */\n  add\n    /* \"#utility.yul\":9418:9444   */\n  mload\n    /* \"#utility.yul\":9410:9416   */\n  dup3\n    /* \"#utility.yul\":9403:9445   */\n  sstore\n    /* \"#utility.yul\":9484:9485   */\n  0x01\n    /* \"#utility.yul\":9476:9482   */\n  dup3\n    /* \"#utility.yul\":9472:9486   */\n  add\n    /* \"#utility.yul\":9462:9486   */\n  swap2\n  pop\n    /* \"#utility.yul\":9531:9533   */\n  0x20\n    /* \"#utility.yul\":9520:9529   */\n  dup6\n    /* \"#utility.yul\":9516:9534   */\n  add\n    /* \"#utility.yul\":9503:9534   */\n  swap5\n  pop\n    /* \"#utility.yul\":9377:9381   */\n  0x20\n    /* \"#utility.yul\":9374:9375   */\n  dup2\n    /* \"#utility.yul\":9370:9382   */\n  add\n    /* \"#utility.yul\":9365:9382   */\n  swap1\n  pop\n    /* \"#utility.yul\":9340:9548   */\n  jump(tag_173)\ntag_175:\n    /* \"#utility.yul\":9576:9582   */\n  dup7\n    /* \"#utility.yul\":9567:9574   */\n  dup4\n    /* \"#utility.yul\":9564:9583   */\n  lt\n    /* \"#utility.yul\":9561:9740   */\n  iszero\n  tag_176\n  jumpi\n    /* \"#utility.yul\":9634:9643   */\n  dup5\n    /* \"#utility.yul\":9629:9632   */\n  dup10\n    /* \"#utility.yul\":9625:9644   */\n  add\n    /* \"#utility.yul\":9619:9645   */\n  mload\n    /* \"#utility.yul\":9677:9725   */\n  tag_177\n    /* \"#utility.yul\":9719:9723   */\n  0x1f\n    /* \"#utility.yul\":9711:9717   */\n  dup10\n    /* \"#utility.yul\":9707:9724   */\n  and\n    /* \"#utility.yul\":9696:9705   */\n  dup3\n    /* \"#utility.yul\":9677:9725   */\n  tag_61\n  jump\t// in\ntag_177:\n    /* \"#utility.yul\":9669:9675   */\n  dup4\n    /* \"#utility.yul\":9662:9726   */\n  sstore\n    /* \"#utility.yul\":9584:9740   */\n  pop\n    /* \"#utility.yul\":9561:9740   */\ntag_176:\n    /* \"#utility.yul\":9786:9787   */\n  0x01\n    /* \"#utility.yul\":9782:9783   */\n  0x02\n    /* \"#utility.yul\":9774:9780   */\n  dup9\n    /* \"#utility.yul\":9770:9784   */\n  mul\n    /* \"#utility.yul\":9766:9788   */\n  add\n    /* \"#utility.yul\":9760:9764   */\n  dup9\n    /* \"#utility.yul\":9753:9789   */\n  sstore\n    /* \"#utility.yul\":9188:9799   */\n  pop\n  pop\n  pop\n    /* \"#utility.yul\":9151:10038   */\ntag_168:\n  pop\n    /* \"#utility.yul\":8741:10044   */\n  pop\n  pop\n  pop\n    /* \"#utility.yul\":8649:10044   */\n  pop\n  pop\n  jump\t// out\n    /* \"eVoter.sol\":63:2579  contract eVoting{... */\ntag_8:\n  dataSize(sub_0)\n  dup1\n  dataOffset(sub_0)\n  0x00\n  codecopy\n  0x00\n  return\nstop\n\nsub_0: assembly {\n        /* \"eVoter.sol\":63:2579  contract eVoting{... */\n      mstore(0x40, 0x80)\n      callvalue\n      dup1\n      iszero\n      tag_1\n      jumpi\n      0x00\n      dup1\n      revert\n    tag_1:\n      pop\n      jumpi(tag_2, lt(calldatasize, 0x04))\n      shr(0xe0, calldataload(0x00))\n      dup1\n      0x4440bb12\n      gt\n      tag_11\n      jumpi\n      dup1\n      0x4440bb12\n      eq\n      tag_7\n      jumpi\n      dup1\n      0x7c25f260\n      eq\n      tag_8\n      jumpi\n      dup1\n      0x8671bd6c\n      eq\n      tag_9\n      jumpi\n      dup1\n      0xe6f5ef91\n      eq\n      tag_10\n      jumpi\n      jump(tag_2)\n    tag_11:\n      dup1\n      0x0dc641e6\n      eq\n      tag_3\n      jumpi\n      dup1\n      0x14d952de\n      eq\n      tag_4\n      jumpi\n      dup1\n      0x17072d6b\n      eq\n      tag_5\n      jumpi\n      dup1\n      0x3d2f7551\n      eq\n      tag_6\n      jumpi\n    tag_2:\n      0x00\n      dup1\n      revert\n        /* \"eVoter.sol\":373:412  mapping(string => uint256) public count */\n    tag_3:\n      tag_12\n      0x04\n      dup1\n      calldatasize\n      sub\n      dup2\n      add\n      swap1\n      tag_13\n      swap2\n      swap1\n      tag_14\n      jump\t// in\n    tag_13:\n      tag_15\n      jump\t// in\n    tag_12:\n      mload(0x40)\n      tag_16\n      swap2\n      swap1\n      tag_17\n      jump\t// in\n    tag_16:\n      mload(0x40)\n      dup1\n      swap2\n      sub\n      swap1\n      return\n        /* \"eVoter.sol\":894:1254  function registerVoter(string memory _id, bool fingerprint, bool _valid, bool _eligible... */\n    tag_4:\n      tag_18\n      0x04\n      dup1\n      calldatasize\n      sub\n      dup2\n      add\n      swap1\n      tag_19\n      swap2\n      swap1\n      tag_20\n      jump\t// in\n    tag_19:\n      tag_21\n      jump\t// in\n    tag_18:\n      stop\n        /* \"eVoter.sol\":1302:2440  function Vote(string memory _id, string memory candNames) public{... */\n    tag_5:\n      tag_22\n      0x04\n      dup1\n      calldatasize\n      sub\n      dup2\n      add\n      swap1\n      tag_23\n      swap2\n      swap1\n      tag_24\n      jump\t// in\n    tag_23:\n      tag_25\n      jump\t// in\n    tag_22:\n      stop\n        /* \"eVoter.sol\":425:452  string[] public master_list */\n    tag_6:\n      tag_26\n      0x04\n      dup1\n      calldatasize\n      sub\n      dup2\n      add\n      swap1\n      tag_27\n      swap2\n      swap1\n      tag_28\n      jump\t// in\n    tag_27:\n      tag_29\n      jump\t// in\n    tag_26:\n      mload(0x40)\n      tag_30\n      swap2\n      swap1\n      tag_31\n      jump\t// in\n    tag_30:\n      mload(0x40)\n      dup1\n      swap2\n      sub\n      swap1\n      return\n        /* \"eVoter.sol\":2448:2574  function allVotes(string memory candNames) public view onlyCOMELEC returns (uint256){... */\n    tag_7:\n      tag_32\n      0x04\n      dup1\n      calldatasize\n      sub\n      dup2\n      add\n      swap1\n      tag_33\n      swap2\n      swap1\n      tag_14\n      jump\t// in\n    tag_33:\n      tag_34\n      jump\t// in\n    tag_32:\n      mload(0x40)\n      tag_35\n      swap2\n      swap1\n      tag_17\n      jump\t// in\n    tag_35:\n      mload(0x40)\n      dup1\n      swap2\n      sub\n      swap1\n      return\n        /* \"eVoter.sol\":274:299  address public Government */\n    tag_8:\n      tag_36\n      tag_37\n      jump\t// in\n    tag_36:\n      mload(0x40)\n      tag_38\n      swap2\n      swap1\n      tag_39\n      jump\t// in\n    tag_38:\n      mload(0x40)\n      dup1\n      swap2\n      sub\n      swap1\n      return\n        /* \"eVoter.sol\":308:347  mapping(string => PhilSys) public voter */\n    tag_9:\n      tag_40\n      0x04\n      dup1\n      calldatasize\n      sub\n      dup2\n      add\n      swap1\n      tag_41\n      swap2\n      swap1\n      tag_14\n      jump\t// in\n    tag_41:\n      tag_42\n      jump\t// in\n    tag_40:\n      mload(0x40)\n      tag_43\n      swap5\n      swap4\n      swap3\n      swap2\n      swap1\n      tag_44\n      jump\t// in\n    tag_43:\n      mload(0x40)\n      dup1\n      swap2\n      sub\n      swap1\n      return\n        /* \"eVoter.sol\":88:110  address public COMELEC */\n    tag_10:\n      tag_45\n      tag_46\n      jump\t// in\n    tag_45:\n      mload(0x40)\n      tag_47\n      swap2\n      swap1\n      tag_39\n      jump\t// in\n    tag_47:\n      mload(0x40)\n      dup1\n      swap2\n      sub\n      swap1\n      return\n        /* \"eVoter.sol\":373:412  mapping(string => uint256) public count */\n    tag_15:\n      0x03\n      dup2\n      dup1\n      mload\n      0x20\n      dup2\n      add\n      dup3\n      add\n      dup1\n      mload\n      dup5\n      dup3\n      mstore\n      0x20\n      dup4\n      add\n      0x20\n      dup6\n      add\n      keccak256\n      dup2\n      dup4\n      mstore\n      dup1\n      swap6\n      pop\n      pop\n      pop\n      pop\n      pop\n      pop\n      0x00\n      swap2\n      pop\n      swap1\n      pop\n      sload\n      dup2\n      jump\t// out\n        /* \"eVoter.sol\":894:1254  function registerVoter(string memory _id, bool fingerprint, bool _valid, bool _eligible... */\n    tag_21:\n        /* \"eVoter.sol\":807:814  COMELEC */\n      0x00\n      dup1\n      sload\n      swap1\n      0x0100\n      exp\n      swap1\n      div\n      0xffffffffffffffffffffffffffffffffffffffff\n      and\n        /* \"eVoter.sol\":793:814  msg.sender == COMELEC */\n      0xffffffffffffffffffffffffffffffffffffffff\n      and\n        /* \"eVoter.sol\":793:803  msg.sender */\n      caller\n        /* \"eVoter.sol\":793:814  msg.sender == COMELEC */\n      0xffffffffffffffffffffffffffffffffffffffff\n      and\n      eq\n        /* \"eVoter.sol\":784:841  require (msg.sender == COMELEC, \"You are not authorized\") */\n      tag_49\n      jumpi\n      mload(0x40)\n      0x08c379a000000000000000000000000000000000000000000000000000000000\n      dup2\n      mstore\n      0x04\n      add\n      tag_50\n      swap1\n      tag_51\n      jump\t// in\n    tag_50:\n      mload(0x40)\n      dup1\n      swap2\n      sub\n      swap1\n      revert\n    tag_49:\n        /* \"eVoter.sol\":1018:1041  PhilSys memory newVoter */\n      0x00\n        /* \"eVoter.sol\":1044:1212  PhilSys({... */\n      mload(0x40)\n      dup1\n      0x80\n      add\n      0x40\n      mstore\n      dup1\n        /* \"eVoter.sol\":1091:1102  fingerprint */\n      dup6\n        /* \"eVoter.sol\":1044:1212  PhilSys({... */\n      iszero\n      iszero\n      dup2\n      mstore\n      0x20\n      add\n        /* \"eVoter.sol\":1129:1135  _valid */\n      dup5\n        /* \"eVoter.sol\":1044:1212  PhilSys({... */\n      iszero\n      iszero\n      dup2\n      mstore\n      0x20\n      add\n        /* \"eVoter.sol\":1160:1169  _eligible */\n      dup4\n        /* \"eVoter.sol\":1044:1212  PhilSys({... */\n      iszero\n      iszero\n      dup2\n      mstore\n      0x20\n      add\n        /* \"eVoter.sol\":1195:1200  false */\n      0x00\n        /* \"eVoter.sol\":1044:1212  PhilSys({... */\n      iszero\n      iszero\n      dup2\n      mstore\n      pop\n        /* \"eVoter.sol\":1018:1212  PhilSys memory newVoter = PhilSys({... */\n      swap1\n      pop\n        /* \"eVoter.sol\":1238:1246  newVoter */\n      dup1\n        /* \"eVoter.sol\":1225:1230  voter */\n      0x02\n        /* \"eVoter.sol\":1231:1234  _id */\n      dup7\n        /* \"eVoter.sol\":1225:1235  voter[_id] */\n      mload(0x40)\n      tag_53\n      swap2\n      swap1\n      tag_54\n      jump\t// in\n    tag_53:\n      swap1\n      dup2\n      mstore\n      0x20\n      add\n      mload(0x40)\n      dup1\n      swap2\n      sub\n      swap1\n      keccak256\n        /* \"eVoter.sol\":1225:1246  voter[_id] = newVoter */\n      0x00\n      dup3\n      add\n      mload\n      dup2\n      0x00\n      add\n      exp(0x0100, 0x00)\n      dup2\n      sload\n      dup2\n      0xff\n      mul\n      not\n      and\n      swap1\n      dup4\n      iszero\n      iszero\n      mul\n      or\n      swap1\n      sstore\n      pop\n      0x20\n      dup3\n      add\n      mload\n      dup2\n      0x00\n      add\n      exp(0x0100, 0x01)\n      dup2\n      sload\n      dup2\n      0xff\n      mul\n      not\n      and\n      swap1\n      dup4\n      iszero\n      iszero\n      mul\n      or\n      swap1\n      sstore\n      pop\n      0x40\n      dup3\n      add\n      mload\n      dup2\n      0x00\n      add\n      exp(0x0100, 0x02)\n      dup2\n      sload\n      dup2\n      0xff\n      mul\n      not\n      and\n      swap1\n      dup4\n      iszero\n      iszero\n      mul\n      or\n      swap1\n      sstore\n      pop\n      0x60\n      dup3\n      add\n      mload\n      dup2\n      0x00\n      add\n      exp(0x0100, 0x03)\n      dup2\n      sload\n      dup2\n      0xff\n      mul\n      not\n      and\n      swap1\n      dup4\n      iszero\n      iszero\n      mul\n      or\n      swap1\n      sstore\n      pop\n      swap1\n      pop\n      pop\n        /* \"eVoter.sol\":1007:1254  {... */\n      pop\n        /* \"eVoter.sol\":894:1254  function registerVoter(string memory _id, bool fingerprint, bool _valid, bool _eligible... */\n      pop\n      pop\n      pop\n      pop\n      jump\t// out\n        /* \"eVoter.sol\":1302:2440  function Vote(string memory _id, string memory candNames) public{... */\n    tag_25:\n        /* \"eVoter.sol\":1377:1399  PhilSys storage voters */\n      0x00\n        /* \"eVoter.sol\":1402:1407  voter */\n      0x02\n        /* \"eVoter.sol\":1408:1411  _id */\n      dup4\n        /* \"eVoter.sol\":1402:1412  voter[_id] */\n      mload(0x40)\n      tag_56\n      swap2\n      swap1\n      tag_54\n      jump\t// in\n    tag_56:\n      swap1\n      dup2\n      mstore\n      0x20\n      add\n      mload(0x40)\n      dup1\n      swap2\n      sub\n      swap1\n      keccak256\n        /* \"eVoter.sol\":1377:1412  PhilSys storage voters = voter[_id] */\n      swap1\n      pop\n        /* \"eVoter.sol\":1457:1458  0 */\n      0x00\n        /* \"eVoter.sol\":1437:1446  candNames */\n      dup3\n        /* \"eVoter.sol\":1431:1454  bytes(candNames).length */\n      mload\n        /* \"eVoter.sol\":1431:1458  bytes(candNames).length > 0 */\n      gt\n        /* \"eVoter.sol\":1423:1488  require(bytes(candNames).length > 0, \"Candidate cannot be empty\") */\n      tag_57\n      jumpi\n      mload(0x40)\n      0x08c379a000000000000000000000000000000000000000000000000000000000\n      dup2\n      mstore\n      0x04\n      add\n      tag_58\n      swap1\n      tag_59\n      jump\t// in\n    tag_58:\n      mload(0x40)\n      dup1\n      swap2\n      sub\n      swap1\n      revert\n    tag_57:\n        /* \"eVoter.sol\":1560:1566  voters */\n      dup1\n        /* \"eVoter.sol\":1560:1589  voters.fingerprint_registered */\n      0x00\n      add\n      0x00\n      swap1\n      sload\n      swap1\n      0x0100\n      exp\n      swap1\n      div\n      0xff\n      and\n        /* \"eVoter.sol\":1551:1631  require (voters.fingerprint_registered, \"You must register a valid fingerprint\") */\n      tag_60\n      jumpi\n      mload(0x40)\n      0x08c379a000000000000000000000000000000000000000000000000000000000\n      dup2\n      mstore\n      0x04\n      add\n      tag_61\n      swap1\n      tag_62\n      jump\t// in\n    tag_61:\n      mload(0x40)\n      dup1\n      swap2\n      sub\n      swap1\n      revert\n    tag_60:\n        /* \"eVoter.sol\":1651:1657  voters */\n      dup1\n        /* \"eVoter.sol\":1651:1668  voters.data_valid */\n      0x00\n      add\n      0x01\n      swap1\n      sload\n      swap1\n      0x0100\n      exp\n      swap1\n      div\n      0xff\n      and\n        /* \"eVoter.sol\":1642:1689  require (voters.data_valid, \"Data is invalid;\") */\n      tag_63\n      jumpi\n      mload(0x40)\n      0x08c379a000000000000000000000000000000000000000000000000000000000\n      dup2\n      mstore\n      0x04\n      add\n      tag_64\n      swap1\n      tag_65\n      jump\t// in\n    tag_64:\n      mload(0x40)\n      dup1\n      swap2\n      sub\n      swap1\n      revert\n    tag_63:\n        /* \"eVoter.sol\":1709:1715  voters */\n      dup1\n        /* \"eVoter.sol\":1709:1724  voters.eligible */\n      0x00\n      add\n      0x02\n      swap1\n      sload\n      swap1\n      0x0100\n      exp\n      swap1\n      div\n      0xff\n      and\n        /* \"eVoter.sol\":1700:1757  require (voters.eligible, \"You are not eligible to vote\") */\n      tag_66\n      jumpi\n      mload(0x40)\n      0x08c379a000000000000000000000000000000000000000000000000000000000\n      dup2\n      mstore\n      0x04\n      add\n      tag_67\n      swap1\n      tag_68\n      jump\t// in\n    tag_67:\n      mload(0x40)\n      dup1\n      swap2\n      sub\n      swap1\n      revert\n    tag_66:\n        /* \"eVoter.sol\":1778:1784  voters */\n      dup1\n        /* \"eVoter.sol\":1778:1794  voters.has_voted */\n      0x00\n      add\n      0x03\n      swap1\n      sload\n      swap1\n      0x0100\n      exp\n      swap1\n      div\n      0xff\n      and\n        /* \"eVoter.sol\":1777:1794  !voters.has_voted */\n      iszero\n        /* \"eVoter.sol\":1768:1821  require (!voters.has_voted, \"You have already voted\") */\n      tag_69\n      jumpi\n      mload(0x40)\n      0x08c379a000000000000000000000000000000000000000000000000000000000\n      dup2\n      mstore\n      0x04\n      add\n      tag_70\n      swap1\n      tag_71\n      jump\t// in\n    tag_70:\n      mload(0x40)\n      dup1\n      swap2\n      sub\n      swap1\n      revert\n    tag_69:\n        /* \"eVoter.sol\":1834:1848  bool validCanD */\n      0x00\n        /* \"eVoter.sol\":1872:1878  uint i */\n      dup1\n        /* \"eVoter.sol\":1867:2260  for (uint i = 0; i <master_list.length; i++){... */\n    tag_72:\n        /* \"eVoter.sol\":1887:1898  master_list */\n      0x04\n        /* \"eVoter.sol\":1887:1905  master_list.length */\n      dup1\n      sload\n      swap1\n      pop\n        /* \"eVoter.sol\":1884:1885  i */\n      dup2\n        /* \"eVoter.sol\":1884:1905  i <master_list.length */\n      lt\n        /* \"eVoter.sol\":1867:2260  for (uint i = 0; i <master_list.length; i++){... */\n      iszero\n      tag_73\n      jumpi\n        /* \"eVoter.sol\":2085:2094  candNames */\n      dup4\n        /* \"eVoter.sol\":2069:2096  keccak256(bytes(candNames)) */\n      dup1\n      mload\n      swap1\n      0x20\n      add\n      keccak256\n        /* \"eVoter.sol\":2049:2060  master_list */\n      0x04\n        /* \"eVoter.sol\":2061:2062  i */\n      dup3\n        /* \"eVoter.sol\":2049:2063  master_list[i] */\n      dup2\n      sload\n      dup2\n      lt\n      tag_75\n      jumpi\n      tag_76\n      tag_77\n      jump\t// in\n    tag_76:\n    tag_75:\n      swap1\n      0x00\n      mstore\n      keccak256(0x00, 0x20)\n      add\n        /* \"eVoter.sol\":2033:2065  keccak256(bytes(master_list[i])) */\n      mload(0x40)\n      tag_79\n      swap2\n      swap1\n      tag_80\n      jump\t// in\n    tag_79:\n      mload(0x40)\n      dup1\n      swap2\n      sub\n      swap1\n      keccak256\n        /* \"eVoter.sol\":2033:2096  keccak256(bytes(master_list[i])) == keccak256(bytes(candNames)) */\n      sub\n        /* \"eVoter.sol\":2029:2248  if (keccak256(bytes(master_list[i])) == keccak256(bytes(candNames))){//Note: openAI suggests keccack256 and SHA-256 for hashing... */\n      tag_81\n      jumpi\n        /* \"eVoter.sol\":2186:2190  true */\n      0x01\n        /* \"eVoter.sol\":2174:2190  validCanD = true */\n      swap2\n      pop\n        /* \"eVoter.sol\":2209:2214  break */\n      jump(tag_73)\n        /* \"eVoter.sol\":2029:2248  if (keccak256(bytes(master_list[i])) == keccak256(bytes(candNames))){//Note: openAI suggests keccack256 and SHA-256 for hashing... */\n    tag_81:\n        /* \"eVoter.sol\":1907:1910  i++ */\n      dup1\n      dup1\n      0x01\n      add\n      swap2\n      pop\n      pop\n        /* \"eVoter.sol\":1867:2260  for (uint i = 0; i <master_list.length; i++){... */\n      jump(tag_72)\n    tag_73:\n      pop\n        /* \"eVoter.sol\":2280:2289  validCanD */\n      dup1\n        /* \"eVoter.sol\":2272:2317  require(validCanD, \"Invalid Candidate name;\") */\n      tag_82\n      jumpi\n      mload(0x40)\n      0x08c379a000000000000000000000000000000000000000000000000000000000\n      dup2\n      mstore\n      0x04\n      add\n      tag_83\n      swap1\n      tag_84\n      jump\t// in\n    tag_83:\n      mload(0x40)\n      dup1\n      swap2\n      sub\n      swap1\n      revert\n    tag_82:\n        /* \"eVoter.sol\":2330:2335  count */\n      0x03\n        /* \"eVoter.sol\":2336:2345  candNames */\n      dup4\n        /* \"eVoter.sol\":2330:2346  count[candNames] */\n      mload(0x40)\n      tag_85\n      swap2\n      swap1\n      tag_54\n      jump\t// in\n    tag_85:\n      swap1\n      dup2\n      mstore\n      0x20\n      add\n      mload(0x40)\n      dup1\n      swap2\n      sub\n      swap1\n      keccak256\n      0x00\n        /* \"eVoter.sol\":2330:2348  count[candNames]++ */\n      dup2\n      sload\n      dup1\n      swap3\n      swap2\n      swap1\n      tag_86\n      swap1\n      tag_87\n      jump\t// in\n    tag_86:\n      swap2\n      swap1\n      pop\n      sstore\n      pop\n        /* \"eVoter.sol\":2378:2382  true */\n      0x01\n        /* \"eVoter.sol\":2359:2365  voters */\n      dup3\n        /* \"eVoter.sol\":2359:2375  voters.has_voted */\n      0x00\n      add\n      0x03\n        /* \"eVoter.sol\":2359:2382  voters.has_voted = true */\n      0x0100\n      exp\n      dup2\n      sload\n      dup2\n      0xff\n      mul\n      not\n      and\n      swap1\n      dup4\n      iszero\n      iszero\n      mul\n      or\n      swap1\n      sstore\n      pop\n        /* \"eVoter.sol\":2406:2432  VoteCasted(_id, candNames) */\n      0x791f7d5f0b0d6e798f239ccca607156ff12f293d6709379301dc1a27e5206181\n        /* \"eVoter.sol\":2417:2420  _id */\n      dup5\n        /* \"eVoter.sol\":2422:2431  candNames */\n      dup5\n        /* \"eVoter.sol\":2406:2432  VoteCasted(_id, candNames) */\n      mload(0x40)\n      tag_88\n      swap3\n      swap2\n      swap1\n      tag_89\n      jump\t// in\n    tag_88:\n      mload(0x40)\n      dup1\n      swap2\n      sub\n      swap1\n      log1\n        /* \"eVoter.sol\":1366:2440  {... */\n      pop\n      pop\n        /* \"eVoter.sol\":1302:2440  function Vote(string memory _id, string memory candNames) public{... */\n      pop\n      pop\n      jump\t// out\n        /* \"eVoter.sol\":425:452  string[] public master_list */\n    tag_29:\n      0x04\n      dup2\n      dup2\n      sload\n      dup2\n      lt\n      tag_90\n      jumpi\n      0x00\n      dup1\n      revert\n    tag_90:\n      swap1\n      0x00\n      mstore\n      keccak256(0x00, 0x20)\n      add\n      0x00\n      swap2\n      pop\n      swap1\n      pop\n      dup1\n      sload\n      tag_92\n      swap1\n      tag_93\n      jump\t// in\n    tag_92:\n      dup1\n      0x1f\n      add\n      0x20\n      dup1\n      swap2\n      div\n      mul\n      0x20\n      add\n      mload(0x40)\n      swap1\n      dup2\n      add\n      0x40\n      mstore\n      dup1\n      swap3\n      swap2\n      swap1\n      dup2\n      dup2\n      mstore\n      0x20\n      add\n      dup3\n      dup1\n      sload\n      tag_94\n      swap1\n      tag_93\n      jump\t// in\n    tag_94:\n      dup1\n      iszero\n      tag_95\n      jumpi\n      dup1\n      0x1f\n      lt\n      tag_96\n      jumpi\n      0x0100\n      dup1\n      dup4\n      sload\n      div\n      mul\n      dup4\n      mstore\n      swap2\n      0x20\n      add\n      swap2\n      jump(tag_95)\n    tag_96:\n      dup3\n      add\n      swap2\n      swap1\n      0x00\n      mstore\n      keccak256(0x00, 0x20)\n      swap1\n    tag_97:\n      dup2\n      sload\n      dup2\n      mstore\n      swap1\n      0x01\n      add\n      swap1\n      0x20\n      add\n      dup1\n      dup4\n      gt\n      tag_97\n      jumpi\n      dup3\n      swap1\n      sub\n      0x1f\n      and\n      dup3\n      add\n      swap2\n    tag_95:\n      pop\n      pop\n      pop\n      pop\n      pop\n      dup2\n      jump\t// out\n        /* \"eVoter.sol\":2448:2574  function allVotes(string memory candNames) public view onlyCOMELEC returns (uint256){... */\n    tag_34:\n        /* \"eVoter.sol\":2524:2531  uint256 */\n      0x00\n        /* \"eVoter.sol\":807:814  COMELEC */\n      dup1\n      0x00\n      swap1\n      sload\n      swap1\n      0x0100\n      exp\n      swap1\n      div\n      0xffffffffffffffffffffffffffffffffffffffff\n      and\n        /* \"eVoter.sol\":793:814  msg.sender == COMELEC */\n      0xffffffffffffffffffffffffffffffffffffffff\n      and\n        /* \"eVoter.sol\":793:803  msg.sender */\n      caller\n        /* \"eVoter.sol\":793:814  msg.sender == COMELEC */\n      0xffffffffffffffffffffffffffffffffffffffff\n      and\n      eq\n        /* \"eVoter.sol\":784:841  require (msg.sender == COMELEC, \"You are not authorized\") */\n      tag_99\n      jumpi\n      mload(0x40)\n      0x08c379a000000000000000000000000000000000000000000000000000000000\n      dup2\n      mstore\n      0x04\n      add\n      tag_100\n      swap1\n      tag_51\n      jump\t// in\n    tag_100:\n      mload(0x40)\n      dup1\n      swap2\n      sub\n      swap1\n      revert\n    tag_99:\n        /* \"eVoter.sol\":2550:2555  count */\n      0x03\n        /* \"eVoter.sol\":2556:2565  candNames */\n      dup3\n        /* \"eVoter.sol\":2550:2566  count[candNames] */\n      mload(0x40)\n      tag_102\n      swap2\n      swap1\n      tag_54\n      jump\t// in\n    tag_102:\n      swap1\n      dup2\n      mstore\n      0x20\n      add\n      mload(0x40)\n      dup1\n      swap2\n      sub\n      swap1\n      keccak256\n      sload\n        /* \"eVoter.sol\":2543:2566  return count[candNames] */\n      swap1\n      pop\n        /* \"eVoter.sol\":2448:2574  function allVotes(string memory candNames) public view onlyCOMELEC returns (uint256){... */\n      swap2\n      swap1\n      pop\n      jump\t// out\n        /* \"eVoter.sol\":274:299  address public Government */\n    tag_37:\n      0x01\n      0x00\n      swap1\n      sload\n      swap1\n      0x0100\n      exp\n      swap1\n      div\n      0xffffffffffffffffffffffffffffffffffffffff\n      and\n      dup2\n      jump\t// out\n        /* \"eVoter.sol\":308:347  mapping(string => PhilSys) public voter */\n    tag_42:\n      0x02\n      dup2\n      dup1\n      mload\n      0x20\n      dup2\n      add\n      dup3\n      add\n      dup1\n      mload\n      dup5\n      dup3\n      mstore\n      0x20\n      dup4\n      add\n      0x20\n      dup6\n      add\n      keccak256\n      dup2\n      dup4\n      mstore\n      dup1\n      swap6\n      pop\n      pop\n      pop\n      pop\n      pop\n      pop\n      0x00\n      swap2\n      pop\n      swap1\n      pop\n      dup1\n      0x00\n      add\n      0x00\n      swap1\n      sload\n      swap1\n      0x0100\n      exp\n      swap1\n      div\n      0xff\n      and\n      swap1\n      dup1\n      0x00\n      add\n      0x01\n      swap1\n      sload\n      swap1\n      0x0100\n      exp\n      swap1\n      div\n      0xff\n      and\n      swap1\n      dup1\n      0x00\n      add\n      0x02\n      swap1\n      sload\n      swap1\n      0x0100\n      exp\n      swap1\n      div\n      0xff\n      and\n      swap1\n      dup1\n      0x00\n      add\n      0x03\n      swap1\n      sload\n      swap1\n      0x0100\n      exp\n      swap1\n      div\n      0xff\n      and\n      swap1\n      pop\n      dup5\n      jump\t// out\n        /* \"eVoter.sol\":88:110  address public COMELEC */\n    tag_46:\n      0x00\n      dup1\n      sload\n      swap1\n      0x0100\n      exp\n      swap1\n      div\n      0xffffffffffffffffffffffffffffffffffffffff\n      and\n      dup2\n      jump\t// out\n        /* \"#utility.yul\":7:82   */\n    tag_103:\n        /* \"#utility.yul\":40:46   */\n      0x00\n        /* \"#utility.yul\":73:75   */\n      0x40\n        /* \"#utility.yul\":67:76   */\n      mload\n        /* \"#utility.yul\":57:76   */\n      swap1\n      pop\n        /* \"#utility.yul\":7:82   */\n      swap1\n      jump\t// out\n        /* \"#utility.yul\":88:205   */\n    tag_104:\n        /* \"#utility.yul\":197:198   */\n      0x00\n        /* \"#utility.yul\":194:195   */\n      dup1\n        /* \"#utility.yul\":187:199   */\n      revert\n        /* \"#utility.yul\":211:328   */\n    tag_105:\n        /* \"#utility.yul\":320:321   */\n      0x00\n        /* \"#utility.yul\":317:318   */\n      dup1\n        /* \"#utility.yul\":310:322   */\n      revert\n        /* \"#utility.yul\":334:451   */\n    tag_106:\n        /* \"#utility.yul\":443:444   */\n      0x00\n        /* \"#utility.yul\":440:441   */\n      dup1\n        /* \"#utility.yul\":433:445   */\n      revert\n        /* \"#utility.yul\":457:574   */\n    tag_107:\n        /* \"#utility.yul\":566:567   */\n      0x00\n        /* \"#utility.yul\":563:564   */\n      dup1\n        /* \"#utility.yul\":556:568   */\n      revert\n        /* \"#utility.yul\":580:682   */\n    tag_108:\n        /* \"#utility.yul\":621:627   */\n      0x00\n        /* \"#utility.yul\":672:674   */\n      0x1f\n        /* \"#utility.yul\":668:675   */\n      not\n        /* \"#utility.yul\":663:665   */\n      0x1f\n        /* \"#utility.yul\":656:661   */\n      dup4\n        /* \"#utility.yul\":652:666   */\n      add\n        /* \"#utility.yul\":648:676   */\n      and\n        /* \"#utility.yul\":638:676   */\n      swap1\n      pop\n        /* \"#utility.yul\":580:682   */\n      swap2\n      swap1\n      pop\n      jump\t// out\n        /* \"#utility.yul\":688:868   */\n    tag_109:\n        /* \"#utility.yul\":736:813   */\n      0x4e487b7100000000000000000000000000000000000000000000000000000000\n        /* \"#utility.yul\":733:734   */\n      0x00\n        /* \"#utility.yul\":726:814   */\n      mstore\n        /* \"#utility.yul\":833:837   */\n      0x41\n        /* \"#utility.yul\":830:831   */\n      0x04\n        /* \"#utility.yul\":823:838   */\n      mstore\n        /* \"#utility.yul\":857:861   */\n      0x24\n        /* \"#utility.yul\":854:855   */\n      0x00\n        /* \"#utility.yul\":847:862   */\n      revert\n        /* \"#utility.yul\":874:1155   */\n    tag_110:\n        /* \"#utility.yul\":957:984   */\n      tag_161\n        /* \"#utility.yul\":979:983   */\n      dup3\n        /* \"#utility.yul\":957:984   */\n      tag_108\n      jump\t// in\n    tag_161:\n        /* \"#utility.yul\":949:955   */\n      dup2\n        /* \"#utility.yul\":945:985   */\n      add\n        /* \"#utility.yul\":1087:1093   */\n      dup2\n        /* \"#utility.yul\":1075:1085   */\n      dup2\n        /* \"#utility.yul\":1072:1094   */\n      lt\n        /* \"#utility.yul\":1051:1069   */\n      0xffffffffffffffff\n        /* \"#utility.yul\":1039:1049   */\n      dup3\n        /* \"#utility.yul\":1036:1070   */\n      gt\n        /* \"#utility.yul\":1033:1095   */\n      or\n        /* \"#utility.yul\":1030:1118   */\n      iszero\n      tag_162\n      jumpi\n        /* \"#utility.yul\":1098:1116   */\n      tag_163\n      tag_109\n      jump\t// in\n    tag_163:\n        /* \"#utility.yul\":1030:1118   */\n    tag_162:\n        /* \"#utility.yul\":1138:1148   */\n      dup1\n        /* \"#utility.yul\":1134:1136   */\n      0x40\n        /* \"#utility.yul\":1127:1149   */\n      mstore\n        /* \"#utility.yul\":917:1155   */\n      pop\n        /* \"#utility.yul\":874:1155   */\n      pop\n      pop\n      jump\t// out\n        /* \"#utility.yul\":1161:1290   */\n    tag_111:\n        /* \"#utility.yul\":1195:1201   */\n      0x00\n        /* \"#utility.yul\":1222:1242   */\n      tag_165\n      tag_103\n      jump\t// in\n    tag_165:\n        /* \"#utility.yul\":1212:1242   */\n      swap1\n      pop\n        /* \"#utility.yul\":1251:1284   */\n      tag_166\n        /* \"#utility.yul\":1279:1283   */\n      dup3\n        /* \"#utility.yul\":1271:1277   */\n      dup3\n        /* \"#utility.yul\":1251:1284   */\n      tag_110\n      jump\t// in\n    tag_166:\n        /* \"#utility.yul\":1161:1290   */\n      swap2\n      swap1\n      pop\n      jump\t// out\n        /* \"#utility.yul\":1296:1604   */\n    tag_112:\n        /* \"#utility.yul\":1358:1362   */\n      0x00\n        /* \"#utility.yul\":1448:1466   */\n      0xffffffffffffffff\n        /* \"#utility.yul\":1440:1446   */\n      dup3\n        /* \"#utility.yul\":1437:1467   */\n      gt\n        /* \"#utility.yul\":1434:1490   */\n      iszero\n      tag_168\n      jumpi\n        /* \"#utility.yul\":1470:1488   */\n      tag_169\n      tag_109\n      jump\t// in\n    tag_169:\n        /* \"#utility.yul\":1434:1490   */\n    tag_168:\n        /* \"#utility.yul\":1508:1537   */\n      tag_170\n        /* \"#utility.yul\":1530:1536   */\n      dup3\n        /* \"#utility.yul\":1508:1537   */\n      tag_108\n      jump\t// in\n    tag_170:\n        /* \"#utility.yul\":1500:1537   */\n      swap1\n      pop\n        /* \"#utility.yul\":1592:1596   */\n      0x20\n        /* \"#utility.yul\":1586:1590   */\n      dup2\n        /* \"#utility.yul\":1582:1597   */\n      add\n        /* \"#utility.yul\":1574:1597   */\n      swap1\n      pop\n        /* \"#utility.yul\":1296:1604   */\n      swap2\n      swap1\n      pop\n      jump\t// out\n        /* \"#utility.yul\":1610:1758   */\n    tag_113:\n        /* \"#utility.yul\":1708:1714   */\n      dup3\n        /* \"#utility.yul\":1703:1706   */\n      dup2\n        /* \"#utility.yul\":1698:1701   */\n      dup4\n        /* \"#utility.yul\":1685:1715   */\n      calldatacopy\n        /* \"#utility.yul\":1749:1750   */\n      0x00\n        /* \"#utility.yul\":1740:1746   */\n      dup4\n        /* \"#utility.yul\":1735:1738   */\n      dup4\n        /* \"#utility.yul\":1731:1747   */\n      add\n        /* \"#utility.yul\":1724:1751   */\n      mstore\n        /* \"#utility.yul\":1610:1758   */\n      pop\n      pop\n      pop\n      jump\t// out\n        /* \"#utility.yul\":1764:2189   */\n    tag_114:\n        /* \"#utility.yul\":1842:1847   */\n      0x00\n        /* \"#utility.yul\":1867:1933   */\n      tag_173\n        /* \"#utility.yul\":1883:1932   */\n      tag_174\n        /* \"#utility.yul\":1925:1931   */\n      dup5\n        /* \"#utility.yul\":1883:1932   */\n      tag_112\n      jump\t// in\n    tag_174:\n        /* \"#utility.yul\":1867:1933   */\n      tag_111\n      jump\t// in\n    tag_173:\n        /* \"#utility.yul\":1858:1933   */\n      swap1\n      pop\n        /* \"#utility.yul\":1956:1962   */\n      dup3\n        /* \"#utility.yul\":1949:1954   */\n      dup2\n        /* \"#utility.yul\":1942:1963   */\n      mstore\n        /* \"#utility.yul\":1994:1998   */\n      0x20\n        /* \"#utility.yul\":1987:1992   */\n      dup2\n        /* \"#utility.yul\":1983:1999   */\n      add\n        /* \"#utility.yul\":2032:2035   */\n      dup5\n        /* \"#utility.yul\":2023:2029   */\n      dup5\n        /* \"#utility.yul\":2018:2021   */\n      dup5\n        /* \"#utility.yul\":2014:2030   */\n      add\n        /* \"#utility.yul\":2011:2036   */\n      gt\n        /* \"#utility.yul\":2008:2120   */\n      iszero\n      tag_175\n      jumpi\n        /* \"#utility.yul\":2039:2118   */\n      tag_176\n      tag_107\n      jump\t// in\n    tag_176:\n        /* \"#utility.yul\":2008:2120   */\n    tag_175:\n        /* \"#utility.yul\":2129:2183   */\n      tag_177\n        /* \"#utility.yul\":2176:2182   */\n      dup5\n        /* \"#utility.yul\":2171:2174   */\n      dup3\n        /* \"#utility.yul\":2166:2169   */\n      dup6\n        /* \"#utility.yul\":2129:2183   */\n      tag_113\n      jump\t// in\n    tag_177:\n        /* \"#utility.yul\":1848:2189   */\n      pop\n        /* \"#utility.yul\":1764:2189   */\n      swap4\n      swap3\n      pop\n      pop\n      pop\n      jump\t// out\n        /* \"#utility.yul\":2209:2549   */\n    tag_115:\n        /* \"#utility.yul\":2265:2270   */\n      0x00\n        /* \"#utility.yul\":2314:2317   */\n      dup3\n        /* \"#utility.yul\":2307:2311   */\n      0x1f\n        /* \"#utility.yul\":2299:2305   */\n      dup4\n        /* \"#utility.yul\":2295:2312   */\n      add\n        /* \"#utility.yul\":2291:2318   */\n      slt\n        /* \"#utility.yul\":2281:2403   */\n      tag_179\n      jumpi\n        /* \"#utility.yul\":2322:2401   */\n      tag_180\n      tag_106\n      jump\t// in\n    tag_180:\n        /* \"#utility.yul\":2281:2403   */\n    tag_179:\n        /* \"#utility.yul\":2439:2445   */\n      dup2\n        /* \"#utility.yul\":2426:2446   */\n      calldataload\n        /* \"#utility.yul\":2464:2543   */\n      tag_181\n        /* \"#utility.yul\":2539:2542   */\n      dup5\n        /* \"#utility.yul\":2531:2537   */\n      dup3\n        /* \"#utility.yul\":2524:2528   */\n      0x20\n        /* \"#utility.yul\":2516:2522   */\n      dup7\n        /* \"#utility.yul\":2512:2529   */\n      add\n        /* \"#utility.yul\":2464:2543   */\n      tag_114\n      jump\t// in\n    tag_181:\n        /* \"#utility.yul\":2455:2543   */\n      swap2\n      pop\n        /* \"#utility.yul\":2271:2549   */\n      pop\n        /* \"#utility.yul\":2209:2549   */\n      swap3\n      swap2\n      pop\n      pop\n      jump\t// out\n        /* \"#utility.yul\":2555:3064   */\n    tag_14:\n        /* \"#utility.yul\":2624:2630   */\n      0x00\n        /* \"#utility.yul\":2673:2675   */\n      0x20\n        /* \"#utility.yul\":2661:2670   */\n      dup3\n        /* \"#utility.yul\":2652:2659   */\n      dup5\n        /* \"#utility.yul\":2648:2671   */\n      sub\n        /* \"#utility.yul\":2644:2676   */\n      slt\n        /* \"#utility.yul\":2641:2760   */\n      iszero\n      tag_183\n      jumpi\n        /* \"#utility.yul\":2679:2758   */\n      tag_184\n      tag_104\n      jump\t// in\n    tag_184:\n        /* \"#utility.yul\":2641:2760   */\n    tag_183:\n        /* \"#utility.yul\":2827:2828   */\n      0x00\n        /* \"#utility.yul\":2816:2825   */\n      dup3\n        /* \"#utility.yul\":2812:2829   */\n      add\n        /* \"#utility.yul\":2799:2830   */\n      calldataload\n        /* \"#utility.yul\":2857:2875   */\n      0xffffffffffffffff\n        /* \"#utility.yul\":2849:2855   */\n      dup2\n        /* \"#utility.yul\":2846:2876   */\n      gt\n        /* \"#utility.yul\":2843:2960   */\n      iszero\n      tag_185\n      jumpi\n        /* \"#utility.yul\":2879:2958   */\n      tag_186\n      tag_105\n      jump\t// in\n    tag_186:\n        /* \"#utility.yul\":2843:2960   */\n    tag_185:\n        /* \"#utility.yul\":2984:3047   */\n      tag_187\n        /* \"#utility.yul\":3039:3046   */\n      dup5\n        /* \"#utility.yul\":3030:3036   */\n      dup3\n        /* \"#utility.yul\":3019:3028   */\n      dup6\n        /* \"#utility.yul\":3015:3037   */\n      add\n        /* \"#utility.yul\":2984:3047   */\n      tag_115\n      jump\t// in\n    tag_187:\n        /* \"#utility.yul\":2974:3047   */\n      swap2\n      pop\n        /* \"#utility.yul\":2770:3057   */\n      pop\n        /* \"#utility.yul\":2555:3064   */\n      swap3\n      swap2\n      pop\n      pop\n      jump\t// out\n        /* \"#utility.yul\":3070:3147   */\n    tag_116:\n        /* \"#utility.yul\":3107:3114   */\n      0x00\n        /* \"#utility.yul\":3136:3141   */\n      dup2\n        /* \"#utility.yul\":3125:3141   */\n      swap1\n      pop\n        /* \"#utility.yul\":3070:3147   */\n      swap2\n      swap1\n      pop\n      jump\t// out\n        /* \"#utility.yul\":3153:3271   */\n    tag_117:\n        /* \"#utility.yul\":3240:3264   */\n      tag_190\n        /* \"#utility.yul\":3258:3263   */\n      dup2\n        /* \"#utility.yul\":3240:3264   */\n      tag_116\n      jump\t// in\n    tag_190:\n        /* \"#utility.yul\":3235:3238   */\n      dup3\n        /* \"#utility.yul\":3228:3265   */\n      mstore\n        /* \"#utility.yul\":3153:3271   */\n      pop\n      pop\n      jump\t// out\n        /* \"#utility.yul\":3277:3499   */\n    tag_17:\n        /* \"#utility.yul\":3370:3374   */\n      0x00\n        /* \"#utility.yul\":3408:3410   */\n      0x20\n        /* \"#utility.yul\":3397:3406   */\n      dup3\n        /* \"#utility.yul\":3393:3411   */\n      add\n        /* \"#utility.yul\":3385:3411   */\n      swap1\n      pop\n        /* \"#utility.yul\":3421:3492   */\n      tag_192\n        /* \"#utility.yul\":3489:3490   */\n      0x00\n        /* \"#utility.yul\":3478:3487   */\n      dup4\n        /* \"#utility.yul\":3474:3491   */\n      add\n        /* \"#utility.yul\":3465:3471   */\n      dup5\n        /* \"#utility.yul\":3421:3492   */\n      tag_117\n      jump\t// in\n    tag_192:\n        /* \"#utility.yul\":3277:3499   */\n      swap3\n      swap2\n      pop\n      pop\n      jump\t// out\n        /* \"#utility.yul\":3505:3595   */\n    tag_118:\n        /* \"#utility.yul\":3539:3546   */\n      0x00\n        /* \"#utility.yul\":3582:3587   */\n      dup2\n        /* \"#utility.yul\":3575:3588   */\n      iszero\n        /* \"#utility.yul\":3568:3589   */\n      iszero\n        /* \"#utility.yul\":3557:3589   */\n      swap1\n      pop\n        /* \"#utility.yul\":3505:3595   */\n      swap2\n      swap1\n      pop\n      jump\t// out\n        /* \"#utility.yul\":3601:3717   */\n    tag_119:\n        /* \"#utility.yul\":3671:3692   */\n      tag_195\n        /* \"#utility.yul\":3686:3691   */\n      dup2\n        /* \"#utility.yul\":3671:3692   */\n      tag_118\n      jump\t// in\n    tag_195:\n        /* \"#utility.yul\":3664:3669   */\n      dup2\n        /* \"#utility.yul\":3661:3693   */\n      eq\n        /* \"#utility.yul\":3651:3711   */\n      tag_196\n      jumpi\n        /* \"#utility.yul\":3707:3708   */\n      0x00\n        /* \"#utility.yul\":3704:3705   */\n      dup1\n        /* \"#utility.yul\":3697:3709   */\n      revert\n        /* \"#utility.yul\":3651:3711   */\n    tag_196:\n        /* \"#utility.yul\":3601:3717   */\n      pop\n      jump\t// out\n        /* \"#utility.yul\":3723:3856   */\n    tag_120:\n        /* \"#utility.yul\":3766:3771   */\n      0x00\n        /* \"#utility.yul\":3804:3810   */\n      dup2\n        /* \"#utility.yul\":3791:3811   */\n      calldataload\n        /* \"#utility.yul\":3782:3811   */\n      swap1\n      pop\n        /* \"#utility.yul\":3820:3850   */\n      tag_198\n        /* \"#utility.yul\":3844:3849   */\n      dup2\n        /* \"#utility.yul\":3820:3850   */\n      tag_119\n      jump\t// in\n    tag_198:\n        /* \"#utility.yul\":3723:3856   */\n      swap3\n      swap2\n      pop\n      pop\n      jump\t// out\n        /* \"#utility.yul\":3862:4789   */\n    tag_20:\n        /* \"#utility.yul\":3949:3955   */\n      0x00\n        /* \"#utility.yul\":3957:3963   */\n      dup1\n        /* \"#utility.yul\":3965:3971   */\n      0x00\n        /* \"#utility.yul\":3973:3979   */\n      dup1\n        /* \"#utility.yul\":4022:4025   */\n      0x80\n        /* \"#utility.yul\":4010:4019   */\n      dup6\n        /* \"#utility.yul\":4001:4008   */\n      dup8\n        /* \"#utility.yul\":3997:4020   */\n      sub\n        /* \"#utility.yul\":3993:4026   */\n      slt\n        /* \"#utility.yul\":3990:4110   */\n      iszero\n      tag_200\n      jumpi\n        /* \"#utility.yul\":4029:4108   */\n      tag_201\n      tag_104\n      jump\t// in\n    tag_201:\n        /* \"#utility.yul\":3990:4110   */\n    tag_200:\n        /* \"#utility.yul\":4177:4178   */\n      0x00\n        /* \"#utility.yul\":4166:4175   */\n      dup6\n        /* \"#utility.yul\":4162:4179   */\n      add\n        /* \"#utility.yul\":4149:4180   */\n      calldataload\n        /* \"#utility.yul\":4207:4225   */\n      0xffffffffffffffff\n        /* \"#utility.yul\":4199:4205   */\n      dup2\n        /* \"#utility.yul\":4196:4226   */\n      gt\n        /* \"#utility.yul\":4193:4310   */\n      iszero\n      tag_202\n      jumpi\n        /* \"#utility.yul\":4229:4308   */\n      tag_203\n      tag_105\n      jump\t// in\n    tag_203:\n        /* \"#utility.yul\":4193:4310   */\n    tag_202:\n        /* \"#utility.yul\":4334:4397   */\n      tag_204\n        /* \"#utility.yul\":4389:4396   */\n      dup8\n        /* \"#utility.yul\":4380:4386   */\n      dup3\n        /* \"#utility.yul\":4369:4378   */\n      dup9\n        /* \"#utility.yul\":4365:4387   */\n      add\n        /* \"#utility.yul\":4334:4397   */\n      tag_115\n      jump\t// in\n    tag_204:\n        /* \"#utility.yul\":4324:4397   */\n      swap5\n      pop\n        /* \"#utility.yul\":4120:4407   */\n      pop\n        /* \"#utility.yul\":4446:4448   */\n      0x20\n        /* \"#utility.yul\":4472:4522   */\n      tag_205\n        /* \"#utility.yul\":4514:4521   */\n      dup8\n        /* \"#utility.yul\":4505:4511   */\n      dup3\n        /* \"#utility.yul\":4494:4503   */\n      dup9\n        /* \"#utility.yul\":4490:4512   */\n      add\n        /* \"#utility.yul\":4472:4522   */\n      tag_120\n      jump\t// in\n    tag_205:\n        /* \"#utility.yul\":4462:4522   */\n      swap4\n      pop\n        /* \"#utility.yul\":4417:4532   */\n      pop\n        /* \"#utility.yul\":4571:4573   */\n      0x40\n        /* \"#utility.yul\":4597:4647   */\n      tag_206\n        /* \"#utility.yul\":4639:4646   */\n      dup8\n        /* \"#utility.yul\":4630:4636   */\n      dup3\n        /* \"#utility.yul\":4619:4628   */\n      dup9\n        /* \"#utility.yul\":4615:4637   */\n      add\n        /* \"#utility.yul\":4597:4647   */\n      tag_120\n      jump\t// in\n    tag_206:\n        /* \"#utility.yul\":4587:4647   */\n      swap3\n      pop\n        /* \"#utility.yul\":4542:4657   */\n      pop\n        /* \"#utility.yul\":4696:4698   */\n      0x60\n        /* \"#utility.yul\":4722:4772   */\n      tag_207\n        /* \"#utility.yul\":4764:4771   */\n      dup8\n        /* \"#utility.yul\":4755:4761   */\n      dup3\n        /* \"#utility.yul\":4744:4753   */\n      dup9\n        /* \"#utility.yul\":4740:4762   */\n      add\n        /* \"#utility.yul\":4722:4772   */\n      tag_120\n      jump\t// in\n    tag_207:\n        /* \"#utility.yul\":4712:4772   */\n      swap2\n      pop\n        /* \"#utility.yul\":4667:4782   */\n      pop\n        /* \"#utility.yul\":3862:4789   */\n      swap3\n      swap6\n      swap2\n      swap5\n      pop\n      swap3\n      pop\n      jump\t// out\n        /* \"#utility.yul\":4795:5629   */\n    tag_24:\n        /* \"#utility.yul\":4883:4889   */\n      0x00\n        /* \"#utility.yul\":4891:4897   */\n      dup1\n        /* \"#utility.yul\":4940:4942   */\n      0x40\n        /* \"#utility.yul\":4928:4937   */\n      dup4\n        /* \"#utility.yul\":4919:4926   */\n      dup6\n        /* \"#utility.yul\":4915:4938   */\n      sub\n        /* \"#utility.yul\":4911:4943   */\n      slt\n        /* \"#utility.yul\":4908:5027   */\n      iszero\n      tag_209\n      jumpi\n        /* \"#utility.yul\":4946:5025   */\n      tag_210\n      tag_104\n      jump\t// in\n    tag_210:\n        /* \"#utility.yul\":4908:5027   */\n    tag_209:\n        /* \"#utility.yul\":5094:5095   */\n      0x00\n        /* \"#utility.yul\":5083:5092   */\n      dup4\n        /* \"#utility.yul\":5079:5096   */\n      add\n        /* \"#utility.yul\":5066:5097   */\n      calldataload\n        /* \"#utility.yul\":5124:5142   */\n      0xffffffffffffffff\n        /* \"#utility.yul\":5116:5122   */\n      dup2\n        /* \"#utility.yul\":5113:5143   */\n      gt\n        /* \"#utility.yul\":5110:5227   */\n      iszero\n      tag_211\n      jumpi\n        /* \"#utility.yul\":5146:5225   */\n      tag_212\n      tag_105\n      jump\t// in\n    tag_212:\n        /* \"#utility.yul\":5110:5227   */\n    tag_211:\n        /* \"#utility.yul\":5251:5314   */\n      tag_213\n        /* \"#utility.yul\":5306:5313   */\n      dup6\n        /* \"#utility.yul\":5297:5303   */\n      dup3\n        /* \"#utility.yul\":5286:5295   */\n      dup7\n        /* \"#utility.yul\":5282:5304   */\n      add\n        /* \"#utility.yul\":5251:5314   */\n      tag_115\n      jump\t// in\n    tag_213:\n        /* \"#utility.yul\":5241:5314   */\n      swap3\n      pop\n        /* \"#utility.yul\":5037:5324   */\n      pop\n        /* \"#utility.yul\":5391:5393   */\n      0x20\n        /* \"#utility.yul\":5380:5389   */\n      dup4\n        /* \"#utility.yul\":5376:5394   */\n      add\n        /* \"#utility.yul\":5363:5395   */\n      calldataload\n        /* \"#utility.yul\":5422:5440   */\n      0xffffffffffffffff\n        /* \"#utility.yul\":5414:5420   */\n      dup2\n        /* \"#utility.yul\":5411:5441   */\n      gt\n        /* \"#utility.yul\":5408:5525   */\n      iszero\n      tag_214\n      jumpi\n        /* \"#utility.yul\":5444:5523   */\n      tag_215\n      tag_105\n      jump\t// in\n    tag_215:\n        /* \"#utility.yul\":5408:5525   */\n    tag_214:\n        /* \"#utility.yul\":5549:5612   */\n      tag_216\n        /* \"#utility.yul\":5604:5611   */\n      dup6\n        /* \"#utility.yul\":5595:5601   */\n      dup3\n        /* \"#utility.yul\":5584:5593   */\n      dup7\n        /* \"#utility.yul\":5580:5602   */\n      add\n        /* \"#utility.yul\":5549:5612   */\n      tag_115\n      jump\t// in\n    tag_216:\n        /* \"#utility.yul\":5539:5612   */\n      swap2\n      pop\n        /* \"#utility.yul\":5334:5622   */\n      pop\n        /* \"#utility.yul\":4795:5629   */\n      swap3\n      pop\n      swap3\n      swap1\n      pop\n      jump\t// out\n        /* \"#utility.yul\":5635:5757   */\n    tag_121:\n        /* \"#utility.yul\":5708:5732   */\n      tag_218\n        /* \"#utility.yul\":5726:5731   */\n      dup2\n        /* \"#utility.yul\":5708:5732   */\n      tag_116\n      jump\t// in\n    tag_218:\n        /* \"#utility.yul\":5701:5706   */\n      dup2\n        /* \"#utility.yul\":5698:5733   */\n      eq\n        /* \"#utility.yul\":5688:5751   */\n      tag_219\n      jumpi\n        /* \"#utility.yul\":5747:5748   */\n      0x00\n        /* \"#utility.yul\":5744:5745   */\n      dup1\n        /* \"#utility.yul\":5737:5749   */\n      revert\n        /* \"#utility.yul\":5688:5751   */\n    tag_219:\n        /* \"#utility.yul\":5635:5757   */\n      pop\n      jump\t// out\n        /* \"#utility.yul\":5763:5902   */\n    tag_122:\n        /* \"#utility.yul\":5809:5814   */\n      0x00\n        /* \"#utility.yul\":5847:5853   */\n      dup2\n        /* \"#utility.yul\":5834:5854   */\n      calldataload\n        /* \"#utility.yul\":5825:5854   */\n      swap1\n      pop\n        /* \"#utility.yul\":5863:5896   */\n      tag_221\n        /* \"#utility.yul\":5890:5895   */\n      dup2\n        /* \"#utility.yul\":5863:5896   */\n      tag_121\n      jump\t// in\n    tag_221:\n        /* \"#utility.yul\":5763:5902   */\n      swap3\n      swap2\n      pop\n      pop\n      jump\t// out\n        /* \"#utility.yul\":5908:6237   */\n    tag_28:\n        /* \"#utility.yul\":5967:5973   */\n      0x00\n        /* \"#utility.yul\":6016:6018   */\n      0x20\n        /* \"#utility.yul\":6004:6013   */\n      dup3\n        /* \"#utility.yul\":5995:6002   */\n      dup5\n        /* \"#utility.yul\":5991:6014   */\n      sub\n        /* \"#utility.yul\":5987:6019   */\n      slt\n        /* \"#utility.yul\":5984:6103   */\n      iszero\n      tag_223\n      jumpi\n        /* \"#utility.yul\":6022:6101   */\n      tag_224\n      tag_104\n      jump\t// in\n    tag_224:\n        /* \"#utility.yul\":5984:6103   */\n    tag_223:\n        /* \"#utility.yul\":6142:6143   */\n      0x00\n        /* \"#utility.yul\":6167:6220   */\n      tag_225\n        /* \"#utility.yul\":6212:6219   */\n      dup5\n        /* \"#utility.yul\":6203:6209   */\n      dup3\n        /* \"#utility.yul\":6192:6201   */\n      dup6\n        /* \"#utility.yul\":6188:6210   */\n      add\n        /* \"#utility.yul\":6167:6220   */\n      tag_122\n      jump\t// in\n    tag_225:\n        /* \"#utility.yul\":6157:6220   */\n      swap2\n      pop\n        /* \"#utility.yul\":6113:6230   */\n      pop\n        /* \"#utility.yul\":5908:6237   */\n      swap3\n      swap2\n      pop\n      pop\n      jump\t// out\n        /* \"#utility.yul\":6243:6342   */\n    tag_123:\n        /* \"#utility.yul\":6295:6301   */\n      0x00\n        /* \"#utility.yul\":6329:6334   */\n      dup2\n        /* \"#utility.yul\":6323:6335   */\n      mload\n        /* \"#utility.yul\":6313:6335   */\n      swap1\n      pop\n        /* \"#utility.yul\":6243:6342   */\n      swap2\n      swap1\n      pop\n      jump\t// out\n        /* \"#utility.yul\":6348:6517   */\n    tag_124:\n        /* \"#utility.yul\":6432:6443   */\n      0x00\n        /* \"#utility.yul\":6466:6472   */\n      dup3\n        /* \"#utility.yul\":6461:6464   */\n      dup3\n        /* \"#utility.yul\":6454:6473   */\n      mstore\n        /* \"#utility.yul\":6506:6510   */\n      0x20\n        /* \"#utility.yul\":6501:6504   */\n      dup3\n        /* \"#utility.yul\":6497:6511   */\n      add\n        /* \"#utility.yul\":6482:6511   */\n      swap1\n      pop\n        /* \"#utility.yul\":6348:6517   */\n      swap3\n      swap2\n      pop\n      pop\n      jump\t// out\n        /* \"#utility.yul\":6523:6662   */\n    tag_125:\n        /* \"#utility.yul\":6612:6618   */\n      dup3\n        /* \"#utility.yul\":6607:6610   */\n      dup2\n        /* \"#utility.yul\":6602:6605   */\n      dup4\n        /* \"#utility.yul\":6596:6619   */\n      mcopy\n        /* \"#utility.yul\":6653:6654   */\n      0x00\n        /* \"#utility.yul\":6644:6650   */\n      dup4\n        /* \"#utility.yul\":6639:6642   */\n      dup4\n        /* \"#utility.yul\":6635:6651   */\n      add\n        /* \"#utility.yul\":6628:6655   */\n      mstore\n        /* \"#utility.yul\":6523:6662   */\n      pop\n      pop\n      pop\n      jump\t// out\n        /* \"#utility.yul\":6668:7045   */\n    tag_126:\n        /* \"#utility.yul\":6756:6759   */\n      0x00\n        /* \"#utility.yul\":6784:6823   */\n      tag_230\n        /* \"#utility.yul\":6817:6822   */\n      dup3\n        /* \"#utility.yul\":6784:6823   */\n      tag_123\n      jump\t// in\n    tag_230:\n        /* \"#utility.yul\":6839:6910   */\n      tag_231\n        /* \"#utility.yul\":6903:6909   */\n      dup2\n        /* \"#utility.yul\":6898:6901   */\n      dup6\n        /* \"#utility.yul\":6839:6910   */\n      tag_124\n      jump\t// in\n    tag_231:\n        /* \"#utility.yul\":6832:6910   */\n      swap4\n      pop\n        /* \"#utility.yul\":6919:6984   */\n      tag_232\n        /* \"#utility.yul\":6977:6983   */\n      dup2\n        /* \"#utility.yul\":6972:6975   */\n      dup6\n        /* \"#utility.yul\":6965:6969   */\n      0x20\n        /* \"#utility.yul\":6958:6963   */\n      dup7\n        /* \"#utility.yul\":6954:6970   */\n      add\n        /* \"#utility.yul\":6919:6984   */\n      tag_125\n      jump\t// in\n    tag_232:\n        /* \"#utility.yul\":7009:7038   */\n      tag_233\n        /* \"#utility.yul\":7031:7037   */\n      dup2\n        /* \"#utility.yul\":7009:7038   */\n      tag_108\n      jump\t// in\n    tag_233:\n        /* \"#utility.yul\":7004:7007   */\n      dup5\n        /* \"#utility.yul\":7000:7039   */\n      add\n        /* \"#utility.yul\":6993:7039   */\n      swap2\n      pop\n        /* \"#utility.yul\":6760:7045   */\n      pop\n        /* \"#utility.yul\":6668:7045   */\n      swap3\n      swap2\n      pop\n      pop\n      jump\t// out\n        /* \"#utility.yul\":7051:7364   */\n    tag_31:\n        /* \"#utility.yul\":7164:7168   */\n      0x00\n        /* \"#utility.yul\":7202:7204   */\n      0x20\n        /* \"#utility.yul\":7191:7200   */\n      dup3\n        /* \"#utility.yul\":7187:7205   */\n      add\n        /* \"#utility.yul\":7179:7205   */\n      swap1\n      pop\n        /* \"#utility.yul\":7251:7260   */\n      dup2\n        /* \"#utility.yul\":7245:7249   */\n      dup2\n        /* \"#utility.yul\":7241:7261   */\n      sub\n        /* \"#utility.yul\":7237:7238   */\n      0x00\n        /* \"#utility.yul\":7226:7235   */\n      dup4\n        /* \"#utility.yul\":7222:7239   */\n      add\n        /* \"#utility.yul\":7215:7262   */\n      mstore\n        /* \"#utility.yul\":7279:7357   */\n      tag_235\n        /* \"#utility.yul\":7352:7356   */\n      dup2\n        /* \"#utility.yul\":7343:7349   */\n      dup5\n        /* \"#utility.yul\":7279:7357   */\n      tag_126\n      jump\t// in\n    tag_235:\n        /* \"#utility.yul\":7271:7357   */\n      swap1\n      pop\n        /* \"#utility.yul\":7051:7364   */\n      swap3\n      swap2\n      pop\n      pop\n      jump\t// out\n        /* \"#utility.yul\":7370:7496   */\n    tag_127:\n        /* \"#utility.yul\":7407:7414   */\n      0x00\n        /* \"#utility.yul\":7447:7489   */\n      0xffffffffffffffffffffffffffffffffffffffff\n        /* \"#utility.yul\":7440:7445   */\n      dup3\n        /* \"#utility.yul\":7436:7490   */\n      and\n        /* \"#utility.yul\":7425:7490   */\n      swap1\n      pop\n        /* \"#utility.yul\":7370:7496   */\n      swap2\n      swap1\n      pop\n      jump\t// out\n        /* \"#utility.yul\":7502:7598   */\n    tag_128:\n        /* \"#utility.yul\":7539:7546   */\n      0x00\n        /* \"#utility.yul\":7568:7592   */\n      tag_238\n        /* \"#utility.yul\":7586:7591   */\n      dup3\n        /* \"#utility.yul\":7568:7592   */\n      tag_127\n      jump\t// in\n    tag_238:\n        /* \"#utility.yul\":7557:7592   */\n      swap1\n      pop\n        /* \"#utility.yul\":7502:7598   */\n      swap2\n      swap1\n      pop\n      jump\t// out\n        /* \"#utility.yul\":7604:7722   */\n    tag_129:\n        /* \"#utility.yul\":7691:7715   */\n      tag_240\n        /* \"#utility.yul\":7709:7714   */\n      dup2\n        /* \"#utility.yul\":7691:7715   */\n      tag_128\n      jump\t// in\n    tag_240:\n        /* \"#utility.yul\":7686:7689   */\n      dup3\n        /* \"#utility.yul\":7679:7716   */\n      mstore\n        /* \"#utility.yul\":7604:7722   */\n      pop\n      pop\n      jump\t// out\n        /* \"#utility.yul\":7728:7950   */\n    tag_39:\n        /* \"#utility.yul\":7821:7825   */\n      0x00\n        /* \"#utility.yul\":7859:7861   */\n      0x20\n        /* \"#utility.yul\":7848:7857   */\n      dup3\n        /* \"#utility.yul\":7844:7862   */\n      add\n        /* \"#utility.yul\":7836:7862   */\n      swap1\n      pop\n        /* \"#utility.yul\":7872:7943   */\n      tag_242\n        /* \"#utility.yul\":7940:7941   */\n      0x00\n        /* \"#utility.yul\":7929:7938   */\n      dup4\n        /* \"#utility.yul\":7925:7942   */\n      add\n        /* \"#utility.yul\":7916:7922   */\n      dup5\n        /* \"#utility.yul\":7872:7943   */\n      tag_129\n      jump\t// in\n    tag_242:\n        /* \"#utility.yul\":7728:7950   */\n      swap3\n      swap2\n      pop\n      pop\n      jump\t// out\n        /* \"#utility.yul\":7956:8065   */\n    tag_130:\n        /* \"#utility.yul\":8037:8058   */\n      tag_244\n        /* \"#utility.yul\":8052:8057   */\n      dup2\n        /* \"#utility.yul\":8037:8058   */\n      tag_118\n      jump\t// in\n    tag_244:\n        /* \"#utility.yul\":8032:8035   */\n      dup3\n        /* \"#utility.yul\":8025:8059   */\n      mstore\n        /* \"#utility.yul\":7956:8065   */\n      pop\n      pop\n      jump\t// out\n        /* \"#utility.yul\":8071:8576   */\n    tag_44:\n        /* \"#utility.yul\":8224:8228   */\n      0x00\n        /* \"#utility.yul\":8262:8265   */\n      0x80\n        /* \"#utility.yul\":8251:8260   */\n      dup3\n        /* \"#utility.yul\":8247:8266   */\n      add\n        /* \"#utility.yul\":8239:8266   */\n      swap1\n      pop\n        /* \"#utility.yul\":8276:8341   */\n      tag_246\n        /* \"#utility.yul\":8338:8339   */\n      0x00\n        /* \"#utility.yul\":8327:8336   */\n      dup4\n        /* \"#utility.yul\":8323:8340   */\n      add\n        /* \"#utility.yul\":8314:8320   */\n      dup8\n        /* \"#utility.yul\":8276:8341   */\n      tag_130\n      jump\t// in\n    tag_246:\n        /* \"#utility.yul\":8351:8417   */\n      tag_247\n        /* \"#utility.yul\":8413:8415   */\n      0x20\n        /* \"#utility.yul\":8402:8411   */\n      dup4\n        /* \"#utility.yul\":8398:8416   */\n      add\n        /* \"#utility.yul\":8389:8395   */\n      dup7\n        /* \"#utility.yul\":8351:8417   */\n      tag_130\n      jump\t// in\n    tag_247:\n        /* \"#utility.yul\":8427:8493   */\n      tag_248\n        /* \"#utility.yul\":8489:8491   */\n      0x40\n        /* \"#utility.yul\":8478:8487   */\n      dup4\n        /* \"#utility.yul\":8474:8492   */\n      add\n        /* \"#utility.yul\":8465:8471   */\n      dup6\n        /* \"#utility.yul\":8427:8493   */\n      tag_130\n      jump\t// in\n    tag_248:\n        /* \"#utility.yul\":8503:8569   */\n      tag_249\n        /* \"#utility.yul\":8565:8567   */\n      0x60\n        /* \"#utility.yul\":8554:8563   */\n      dup4\n        /* \"#utility.yul\":8550:8568   */\n      add\n        /* \"#utility.yul\":8541:8547   */\n      dup5\n        /* \"#utility.yul\":8503:8569   */\n      tag_130\n      jump\t// in\n    tag_249:\n        /* \"#utility.yul\":8071:8576   */\n      swap6\n      swap5\n      pop\n      pop\n      pop\n      pop\n      pop\n      jump\t// out\n        /* \"#utility.yul\":8582:8754   */\n    tag_131:\n        /* \"#utility.yul\":8722:8746   */\n      0x596f7520617265206e6f7420617574686f72697a656400000000000000000000\n        /* \"#utility.yul\":8718:8719   */\n      0x00\n        /* \"#utility.yul\":8710:8716   */\n      dup3\n        /* \"#utility.yul\":8706:8720   */\n      add\n        /* \"#utility.yul\":8699:8747   */\n      mstore\n        /* \"#utility.yul\":8582:8754   */\n      pop\n      jump\t// out\n        /* \"#utility.yul\":8760:9126   */\n    tag_132:\n        /* \"#utility.yul\":8902:8905   */\n      0x00\n        /* \"#utility.yul\":8923:8990   */\n      tag_252\n        /* \"#utility.yul\":8987:8989   */\n      0x16\n        /* \"#utility.yul\":8982:8985   */\n      dup4\n        /* \"#utility.yul\":8923:8990   */\n      tag_124\n      jump\t// in\n    tag_252:\n        /* \"#utility.yul\":8916:8990   */\n      swap2\n      pop\n        /* \"#utility.yul\":8999:9092   */\n      tag_253\n        /* \"#utility.yul\":9088:9091   */\n      dup3\n        /* \"#utility.yul\":8999:9092   */\n      tag_131\n      jump\t// in\n    tag_253:\n        /* \"#utility.yul\":9117:9119   */\n      0x20\n        /* \"#utility.yul\":9112:9115   */\n      dup3\n        /* \"#utility.yul\":9108:9120   */\n      add\n        /* \"#utility.yul\":9101:9120   */\n      swap1\n      pop\n        /* \"#utility.yul\":8760:9126   */\n      swap2\n      swap1\n      pop\n      jump\t// out\n        /* \"#utility.yul\":9132:9551   */\n    tag_51:\n        /* \"#utility.yul\":9298:9302   */\n      0x00\n        /* \"#utility.yul\":9336:9338   */\n      0x20\n        /* \"#utility.yul\":9325:9334   */\n      dup3\n        /* \"#utility.yul\":9321:9339   */\n      add\n        /* \"#utility.yul\":9313:9339   */\n      swap1\n      pop\n        /* \"#utility.yul\":9385:9394   */\n      dup2\n        /* \"#utility.yul\":9379:9383   */\n      dup2\n        /* \"#utility.yul\":9375:9395   */\n      sub\n        /* \"#utility.yul\":9371:9372   */\n      0x00\n        /* \"#utility.yul\":9360:9369   */\n      dup4\n        /* \"#utility.yul\":9356:9373   */\n      add\n        /* \"#utility.yul\":9349:9396   */\n      mstore\n        /* \"#utility.yul\":9413:9544   */\n      tag_255\n        /* \"#utility.yul\":9539:9543   */\n      dup2\n        /* \"#utility.yul\":9413:9544   */\n      tag_132\n      jump\t// in\n    tag_255:\n        /* \"#utility.yul\":9405:9544   */\n      swap1\n      pop\n        /* \"#utility.yul\":9132:9551   */\n      swap2\n      swap1\n      pop\n      jump\t// out\n        /* \"#utility.yul\":9557:9705   */\n    tag_133:\n        /* \"#utility.yul\":9659:9670   */\n      0x00\n        /* \"#utility.yul\":9696:9699   */\n      dup2\n        /* \"#utility.yul\":9681:9699   */\n      swap1\n      pop\n        /* \"#utility.yul\":9557:9705   */\n      swap3\n      swap2\n      pop\n      pop\n      jump\t// out\n        /* \"#utility.yul\":9711:10101   */\n    tag_134:\n        /* \"#utility.yul\":9817:9820   */\n      0x00\n        /* \"#utility.yul\":9845:9884   */\n      tag_258\n        /* \"#utility.yul\":9878:9883   */\n      dup3\n        /* \"#utility.yul\":9845:9884   */\n      tag_123\n      jump\t// in\n    tag_258:\n        /* \"#utility.yul\":9900:9989   */\n      tag_259\n        /* \"#utility.yul\":9982:9988   */\n      dup2\n        /* \"#utility.yul\":9977:9980   */\n      dup6\n        /* \"#utility.yul\":9900:9989   */\n      tag_133\n      jump\t// in\n    tag_259:\n        /* \"#utility.yul\":9893:9989   */\n      swap4\n      pop\n        /* \"#utility.yul\":9998:10063   */\n      tag_260\n        /* \"#utility.yul\":10056:10062   */\n      dup2\n        /* \"#utility.yul\":10051:10054   */\n      dup6\n        /* \"#utility.yul\":10044:10048   */\n      0x20\n        /* \"#utility.yul\":10037:10042   */\n      dup7\n        /* \"#utility.yul\":10033:10049   */\n      add\n        /* \"#utility.yul\":9998:10063   */\n      tag_125\n      jump\t// in\n    tag_260:\n        /* \"#utility.yul\":10088:10094   */\n      dup1\n        /* \"#utility.yul\":10083:10086   */\n      dup5\n        /* \"#utility.yul\":10079:10095   */\n      add\n        /* \"#utility.yul\":10072:10095   */\n      swap2\n      pop\n        /* \"#utility.yul\":9821:10101   */\n      pop\n        /* \"#utility.yul\":9711:10101   */\n      swap3\n      swap2\n      pop\n      pop\n      jump\t// out\n        /* \"#utility.yul\":10107:10382   */\n    tag_54:\n        /* \"#utility.yul\":10239:10242   */\n      0x00\n        /* \"#utility.yul\":10261:10356   */\n      tag_262\n        /* \"#utility.yul\":10352:10355   */\n      dup3\n        /* \"#utility.yul\":10343:10349   */\n      dup5\n        /* \"#utility.yul\":10261:10356   */\n      tag_134\n      jump\t// in\n    tag_262:\n        /* \"#utility.yul\":10254:10356   */\n      swap2\n      pop\n        /* \"#utility.yul\":10373:10376   */\n      dup2\n        /* \"#utility.yul\":10366:10376   */\n      swap1\n      pop\n        /* \"#utility.yul\":10107:10382   */\n      swap3\n      swap2\n      pop\n      pop\n      jump\t// out\n        /* \"#utility.yul\":10388:10563   */\n    tag_135:\n        /* \"#utility.yul\":10528:10555   */\n      0x43616e6469646174652063616e6e6f7420626520656d70747900000000000000\n        /* \"#utility.yul\":10524:10525   */\n      0x00\n        /* \"#utility.yul\":10516:10522   */\n      dup3\n        /* \"#utility.yul\":10512:10526   */\n      add\n        /* \"#utility.yul\":10505:10556   */\n      mstore\n        /* \"#utility.yul\":10388:10563   */\n      pop\n      jump\t// out\n        /* \"#utility.yul\":10569:10935   */\n    tag_136:\n        /* \"#utility.yul\":10711:10714   */\n      0x00\n        /* \"#utility.yul\":10732:10799   */\n      tag_265\n        /* \"#utility.yul\":10796:10798   */\n      0x19\n        /* \"#utility.yul\":10791:10794   */\n      dup4\n        /* \"#utility.yul\":10732:10799   */\n      tag_124\n      jump\t// in\n    tag_265:\n        /* \"#utility.yul\":10725:10799   */\n      swap2\n      pop\n        /* \"#utility.yul\":10808:10901   */\n      tag_266\n        /* \"#utility.yul\":10897:10900   */\n      dup3\n        /* \"#utility.yul\":10808:10901   */\n      tag_135\n      jump\t// in\n    tag_266:\n        /* \"#utility.yul\":10926:10928   */\n      0x20\n        /* \"#utility.yul\":10921:10924   */\n      dup3\n        /* \"#utility.yul\":10917:10929   */\n      add\n        /* \"#utility.yul\":10910:10929   */\n      swap1\n      pop\n        /* \"#utility.yul\":10569:10935   */\n      swap2\n      swap1\n      pop\n      jump\t// out\n        /* \"#utility.yul\":10941:11360   */\n    tag_59:\n        /* \"#utility.yul\":11107:11111   */\n      0x00\n        /* \"#utility.yul\":11145:11147   */\n      0x20\n        /* \"#utility.yul\":11134:11143   */\n      dup3\n        /* \"#utility.yul\":11130:11148   */\n      add\n        /* \"#utility.yul\":11122:11148   */\n      swap1\n      pop\n        /* \"#utility.yul\":11194:11203   */\n      dup2\n        /* \"#utility.yul\":11188:11192   */\n      dup2\n        /* \"#utility.yul\":11184:11204   */\n      sub\n        /* \"#utility.yul\":11180:11181   */\n      0x00\n        /* \"#utility.yul\":11169:11178   */\n      dup4\n        /* \"#utility.yul\":11165:11182   */\n      add\n        /* \"#utility.yul\":11158:11205   */\n      mstore\n        /* \"#utility.yul\":11222:11353   */\n      tag_268\n        /* \"#utility.yul\":11348:11352   */\n      dup2\n        /* \"#utility.yul\":11222:11353   */\n      tag_136\n      jump\t// in\n    tag_268:\n        /* \"#utility.yul\":11214:11353   */\n      swap1\n      pop\n        /* \"#utility.yul\":10941:11360   */\n      swap2\n      swap1\n      pop\n      jump\t// out\n        /* \"#utility.yul\":11366:11590   */\n    tag_137:\n        /* \"#utility.yul\":11506:11540   */\n      0x596f75206d75737420726567697374657220612076616c69642066696e676572\n        /* \"#utility.yul\":11502:11503   */\n      0x00\n        /* \"#utility.yul\":11494:11500   */\n      dup3\n        /* \"#utility.yul\":11490:11504   */\n      add\n        /* \"#utility.yul\":11483:11541   */\n      mstore\n        /* \"#utility.yul\":11575:11582   */\n      0x7072696e74000000000000000000000000000000000000000000000000000000\n        /* \"#utility.yul\":11570:11572   */\n      0x20\n        /* \"#utility.yul\":11562:11568   */\n      dup3\n        /* \"#utility.yul\":11558:11573   */\n      add\n        /* \"#utility.yul\":11551:11583   */\n      mstore\n        /* \"#utility.yul\":11366:11590   */\n      pop\n      jump\t// out\n        /* \"#utility.yul\":11596:11962   */\n    tag_138:\n        /* \"#utility.yul\":11738:11741   */\n      0x00\n        /* \"#utility.yul\":11759:11826   */\n      tag_271\n        /* \"#utility.yul\":11823:11825   */\n      0x25\n        /* \"#utility.yul\":11818:11821   */\n      dup4\n        /* \"#utility.yul\":11759:11826   */\n      tag_124\n      jump\t// in\n    tag_271:\n        /* \"#utility.yul\":11752:11826   */\n      swap2\n      pop\n        /* \"#utility.yul\":11835:11928   */\n      tag_272\n        /* \"#utility.yul\":11924:11927   */\n      dup3\n        /* \"#utility.yul\":11835:11928   */\n      tag_137\n      jump\t// in\n    tag_272:\n        /* \"#utility.yul\":11953:11955   */\n      0x40\n        /* \"#utility.yul\":11948:11951   */\n      dup3\n        /* \"#utility.yul\":11944:11956   */\n      add\n        /* \"#utility.yul\":11937:11956   */\n      swap1\n      pop\n        /* \"#utility.yul\":11596:11962   */\n      swap2\n      swap1\n      pop\n      jump\t// out\n        /* \"#utility.yul\":11968:12387   */\n    tag_62:\n        /* \"#utility.yul\":12134:12138   */\n      0x00\n        /* \"#utility.yul\":12172:12174   */\n      0x20\n        /* \"#utility.yul\":12161:12170   */\n      dup3\n        /* \"#utility.yul\":12157:12175   */\n      add\n        /* \"#utility.yul\":12149:12175   */\n      swap1\n      pop\n        /* \"#utility.yul\":12221:12230   */\n      dup2\n        /* \"#utility.yul\":12215:12219   */\n      dup2\n        /* \"#utility.yul\":12211:12231   */\n      sub\n        /* \"#utility.yul\":12207:12208   */\n      0x00\n        /* \"#utility.yul\":12196:12205   */\n      dup4\n        /* \"#utility.yul\":12192:12209   */\n      add\n        /* \"#utility.yul\":12185:12232   */\n      mstore\n        /* \"#utility.yul\":12249:12380   */\n      tag_274\n        /* \"#utility.yul\":12375:12379   */\n      dup2\n        /* \"#utility.yul\":12249:12380   */\n      tag_138\n      jump\t// in\n    tag_274:\n        /* \"#utility.yul\":12241:12380   */\n      swap1\n      pop\n        /* \"#utility.yul\":11968:12387   */\n      swap2\n      swap1\n      pop\n      jump\t// out\n        /* \"#utility.yul\":12393:12559   */\n    tag_139:\n        /* \"#utility.yul\":12533:12551   */\n      0x4461746120697320696e76616c69643b00000000000000000000000000000000\n        /* \"#utility.yul\":12529:12530   */\n      0x00\n        /* \"#utility.yul\":12521:12527   */\n      dup3\n        /* \"#utility.yul\":12517:12531   */\n      add\n        /* \"#utility.yul\":12510:12552   */\n      mstore\n        /* \"#utility.yul\":12393:12559   */\n      pop\n      jump\t// out\n        /* \"#utility.yul\":12565:12931   */\n    tag_140:\n        /* \"#utility.yul\":12707:12710   */\n      0x00\n        /* \"#utility.yul\":12728:12795   */\n      tag_277\n        /* \"#utility.yul\":12792:12794   */\n      0x10\n        /* \"#utility.yul\":12787:12790   */\n      dup4\n        /* \"#utility.yul\":12728:12795   */\n      tag_124\n      jump\t// in\n    tag_277:\n        /* \"#utility.yul\":12721:12795   */\n      swap2\n      pop\n        /* \"#utility.yul\":12804:12897   */\n      tag_278\n        /* \"#utility.yul\":12893:12896   */\n      dup3\n        /* \"#utility.yul\":12804:12897   */\n      tag_139\n      jump\t// in\n    tag_278:\n        /* \"#utility.yul\":12922:12924   */\n      0x20\n        /* \"#utility.yul\":12917:12920   */\n      dup3\n        /* \"#utility.yul\":12913:12925   */\n      add\n        /* \"#utility.yul\":12906:12925   */\n      swap1\n      pop\n        /* \"#utility.yul\":12565:12931   */\n      swap2\n      swap1\n      pop\n      jump\t// out\n        /* \"#utility.yul\":12937:13356   */\n    tag_65:\n        /* \"#utility.yul\":13103:13107   */\n      0x00\n        /* \"#utility.yul\":13141:13143   */\n      0x20\n        /* \"#utility.yul\":13130:13139   */\n      dup3\n        /* \"#utility.yul\":13126:13144   */\n      add\n        /* \"#utility.yul\":13118:13144   */\n      swap1\n      pop\n        /* \"#utility.yul\":13190:13199   */\n      dup2\n        /* \"#utility.yul\":13184:13188   */\n      dup2\n        /* \"#utility.yul\":13180:13200   */\n      sub\n        /* \"#utility.yul\":13176:13177   */\n      0x00\n        /* \"#utility.yul\":13165:13174   */\n      dup4\n        /* \"#utility.yul\":13161:13178   */\n      add\n        /* \"#utility.yul\":13154:13201   */\n      mstore\n        /* \"#utility.yul\":13218:13349   */\n      tag_280\n        /* \"#utility.yul\":13344:13348   */\n      dup2\n        /* \"#utility.yul\":13218:13349   */\n      tag_140\n      jump\t// in\n    tag_280:\n        /* \"#utility.yul\":13210:13349   */\n      swap1\n      pop\n        /* \"#utility.yul\":12937:13356   */\n      swap2\n      swap1\n      pop\n      jump\t// out\n        /* \"#utility.yul\":13362:13540   */\n    tag_141:\n        /* \"#utility.yul\":13502:13532   */\n      0x596f7520617265206e6f7420656c696769626c6520746f20766f746500000000\n        /* \"#utility.yul\":13498:13499   */\n      0x00\n        /* \"#utility.yul\":13490:13496   */\n      dup3\n        /* \"#utility.yul\":13486:13500   */\n      add\n        /* \"#utility.yul\":13479:13533   */\n      mstore\n        /* \"#utility.yul\":13362:13540   */\n      pop\n      jump\t// out\n        /* \"#utility.yul\":13546:13912   */\n    tag_142:\n        /* \"#utility.yul\":13688:13691   */\n      0x00\n        /* \"#utility.yul\":13709:13776   */\n      tag_283\n        /* \"#utility.yul\":13773:13775   */\n      0x1c\n        /* \"#utility.yul\":13768:13771   */\n      dup4\n        /* \"#utility.yul\":13709:13776   */\n      tag_124\n      jump\t// in\n    tag_283:\n        /* \"#utility.yul\":13702:13776   */\n      swap2\n      pop\n        /* \"#utility.yul\":13785:13878   */\n      tag_284\n        /* \"#utility.yul\":13874:13877   */\n      dup3\n        /* \"#utility.yul\":13785:13878   */\n      tag_141\n      jump\t// in\n    tag_284:\n        /* \"#utility.yul\":13903:13905   */\n      0x20\n        /* \"#utility.yul\":13898:13901   */\n      dup3\n        /* \"#utility.yul\":13894:13906   */\n      add\n        /* \"#utility.yul\":13887:13906   */\n      swap1\n      pop\n        /* \"#utility.yul\":13546:13912   */\n      swap2\n      swap1\n      pop\n      jump\t// out\n        /* \"#utility.yul\":13918:14337   */\n    tag_68:\n        /* \"#utility.yul\":14084:14088   */\n      0x00\n        /* \"#utility.yul\":14122:14124   */\n      0x20\n        /* \"#utility.yul\":14111:14120   */\n      dup3\n        /* \"#utility.yul\":14107:14125   */\n      add\n        /* \"#utility.yul\":14099:14125   */\n      swap1\n      pop\n        /* \"#utility.yul\":14171:14180   */\n      dup2\n        /* \"#utility.yul\":14165:14169   */\n      dup2\n        /* \"#utility.yul\":14161:14181   */\n      sub\n        /* \"#utility.yul\":14157:14158   */\n      0x00\n        /* \"#utility.yul\":14146:14155   */\n      dup4\n        /* \"#utility.yul\":14142:14159   */\n      add\n        /* \"#utility.yul\":14135:14182   */\n      mstore\n        /* \"#utility.yul\":14199:14330   */\n      tag_286\n        /* \"#utility.yul\":14325:14329   */\n      dup2\n        /* \"#utility.yul\":14199:14330   */\n      tag_142\n      jump\t// in\n    tag_286:\n        /* \"#utility.yul\":14191:14330   */\n      swap1\n      pop\n        /* \"#utility.yul\":13918:14337   */\n      swap2\n      swap1\n      pop\n      jump\t// out\n        /* \"#utility.yul\":14343:14515   */\n    tag_143:\n        /* \"#utility.yul\":14483:14507   */\n      0x596f75206861766520616c726561647920766f74656400000000000000000000\n        /* \"#utility.yul\":14479:14480   */\n      0x00\n        /* \"#utility.yul\":14471:14477   */\n      dup3\n        /* \"#utility.yul\":14467:14481   */\n      add\n        /* \"#utility.yul\":14460:14508   */\n      mstore\n        /* \"#utility.yul\":14343:14515   */\n      pop\n      jump\t// out\n        /* \"#utility.yul\":14521:14887   */\n    tag_144:\n        /* \"#utility.yul\":14663:14666   */\n      0x00\n        /* \"#utility.yul\":14684:14751   */\n      tag_289\n        /* \"#utility.yul\":14748:14750   */\n      0x16\n        /* \"#utility.yul\":14743:14746   */\n      dup4\n        /* \"#utility.yul\":14684:14751   */\n      tag_124\n      jump\t// in\n    tag_289:\n        /* \"#utility.yul\":14677:14751   */\n      swap2\n      pop\n        /* \"#utility.yul\":14760:14853   */\n      tag_290\n        /* \"#utility.yul\":14849:14852   */\n      dup3\n        /* \"#utility.yul\":14760:14853   */\n      tag_143\n      jump\t// in\n    tag_290:\n        /* \"#utility.yul\":14878:14880   */\n      0x20\n        /* \"#utility.yul\":14873:14876   */\n      dup3\n        /* \"#utility.yul\":14869:14881   */\n      add\n        /* \"#utility.yul\":14862:14881   */\n      swap1\n      pop\n        /* \"#utility.yul\":14521:14887   */\n      swap2\n      swap1\n      pop\n      jump\t// out\n        /* \"#utility.yul\":14893:15312   */\n    tag_71:\n        /* \"#utility.yul\":15059:15063   */\n      0x00\n        /* \"#utility.yul\":15097:15099   */\n      0x20\n        /* \"#utility.yul\":15086:15095   */\n      dup3\n        /* \"#utility.yul\":15082:15100   */\n      add\n        /* \"#utility.yul\":15074:15100   */\n      swap1\n      pop\n        /* \"#utility.yul\":15146:15155   */\n      dup2\n        /* \"#utility.yul\":15140:15144   */\n      dup2\n        /* \"#utility.yul\":15136:15156   */\n      sub\n        /* \"#utility.yul\":15132:15133   */\n      0x00\n        /* \"#utility.yul\":15121:15130   */\n      dup4\n        /* \"#utility.yul\":15117:15134   */\n      add\n        /* \"#utility.yul\":15110:15157   */\n      mstore\n        /* \"#utility.yul\":15174:15305   */\n      tag_292\n        /* \"#utility.yul\":15300:15304   */\n      dup2\n        /* \"#utility.yul\":15174:15305   */\n      tag_144\n      jump\t// in\n    tag_292:\n        /* \"#utility.yul\":15166:15305   */\n      swap1\n      pop\n        /* \"#utility.yul\":14893:15312   */\n      swap2\n      swap1\n      pop\n      jump\t// out\n        /* \"#utility.yul\":15318:15498   */\n    tag_77:\n        /* \"#utility.yul\":15366:15443   */\n      0x4e487b7100000000000000000000000000000000000000000000000000000000\n        /* \"#utility.yul\":15363:15364   */\n      0x00\n        /* \"#utility.yul\":15356:15444   */\n      mstore\n        /* \"#utility.yul\":15463:15467   */\n      0x32\n        /* \"#utility.yul\":15460:15461   */\n      0x04\n        /* \"#utility.yul\":15453:15468   */\n      mstore\n        /* \"#utility.yul\":15487:15491   */\n      0x24\n        /* \"#utility.yul\":15484:15485   */\n      0x00\n        /* \"#utility.yul\":15477:15492   */\n      revert\n        /* \"#utility.yul\":15504:15684   */\n    tag_145:\n        /* \"#utility.yul\":15552:15629   */\n      0x4e487b7100000000000000000000000000000000000000000000000000000000\n        /* \"#utility.yul\":15549:15550   */\n      0x00\n        /* \"#utility.yul\":15542:15630   */\n      mstore\n        /* \"#utility.yul\":15649:15653   */\n      0x22\n        /* \"#utility.yul\":15646:15647   */\n      0x04\n        /* \"#utility.yul\":15639:15654   */\n      mstore\n        /* \"#utility.yul\":15673:15677   */\n      0x24\n        /* \"#utility.yul\":15670:15671   */\n      0x00\n        /* \"#utility.yul\":15663:15678   */\n      revert\n        /* \"#utility.yul\":15690:16010   */\n    tag_93:\n        /* \"#utility.yul\":15734:15740   */\n      0x00\n        /* \"#utility.yul\":15771:15772   */\n      0x02\n        /* \"#utility.yul\":15765:15769   */\n      dup3\n        /* \"#utility.yul\":15761:15773   */\n      div\n        /* \"#utility.yul\":15751:15773   */\n      swap1\n      pop\n        /* \"#utility.yul\":15818:15819   */\n      0x01\n        /* \"#utility.yul\":15812:15816   */\n      dup3\n        /* \"#utility.yul\":15808:15820   */\n      and\n        /* \"#utility.yul\":15839:15857   */\n      dup1\n        /* \"#utility.yul\":15829:15910   */\n      tag_296\n      jumpi\n        /* \"#utility.yul\":15895:15899   */\n      0x7f\n        /* \"#utility.yul\":15887:15893   */\n      dup3\n        /* \"#utility.yul\":15883:15900   */\n      and\n        /* \"#utility.yul\":15873:15900   */\n      swap2\n      pop\n        /* \"#utility.yul\":15829:15910   */\n    tag_296:\n        /* \"#utility.yul\":15957:15959   */\n      0x20\n        /* \"#utility.yul\":15949:15955   */\n      dup3\n        /* \"#utility.yul\":15946:15960   */\n      lt\n        /* \"#utility.yul\":15926:15944   */\n      dup2\n        /* \"#utility.yul\":15923:15961   */\n      sub\n        /* \"#utility.yul\":15920:16004   */\n      tag_297\n      jumpi\n        /* \"#utility.yul\":15976:15994   */\n      tag_298\n      tag_145\n      jump\t// in\n    tag_298:\n        /* \"#utility.yul\":15920:16004   */\n    tag_297:\n        /* \"#utility.yul\":15741:16010   */\n      pop\n        /* \"#utility.yul\":15690:16010   */\n      swap2\n      swap1\n      pop\n      jump\t// out\n        /* \"#utility.yul\":16016:16163   */\n    tag_146:\n        /* \"#utility.yul\":16117:16128   */\n      0x00\n        /* \"#utility.yul\":16154:16157   */\n      dup2\n        /* \"#utility.yul\":16139:16157   */\n      swap1\n      pop\n        /* \"#utility.yul\":16016:16163   */\n      swap3\n      swap2\n      pop\n      pop\n      jump\t// out\n        /* \"#utility.yul\":16169:16313   */\n    tag_147:\n        /* \"#utility.yul\":16221:16225   */\n      0x00\n        /* \"#utility.yul\":16244:16247   */\n      dup2\n        /* \"#utility.yul\":16236:16247   */\n      swap1\n      pop\n        /* \"#utility.yul\":16267:16270   */\n      dup2\n        /* \"#utility.yul\":16264:16265   */\n      0x00\n        /* \"#utility.yul\":16257:16271   */\n      mstore\n        /* \"#utility.yul\":16301:16305   */\n      0x20\n        /* \"#utility.yul\":16298:16299   */\n      0x00\n        /* \"#utility.yul\":16288:16306   */\n      keccak256\n        /* \"#utility.yul\":16280:16306   */\n      swap1\n      pop\n        /* \"#utility.yul\":16169:16313   */\n      swap2\n      swap1\n      pop\n      jump\t// out\n        /* \"#utility.yul\":16341:17219   */\n    tag_148:\n        /* \"#utility.yul\":16446:16449   */\n      0x00\n        /* \"#utility.yul\":16483:16488   */\n      dup2\n        /* \"#utility.yul\":16477:16489   */\n      sload\n        /* \"#utility.yul\":16512:16548   */\n      tag_302\n        /* \"#utility.yul\":16538:16547   */\n      dup2\n        /* \"#utility.yul\":16512:16548   */\n      tag_93\n      jump\t// in\n    tag_302:\n        /* \"#utility.yul\":16564:16652   */\n      tag_303\n        /* \"#utility.yul\":16645:16651   */\n      dup2\n        /* \"#utility.yul\":16640:16643   */\n      dup7\n        /* \"#utility.yul\":16564:16652   */\n      tag_146\n      jump\t// in\n    tag_303:\n        /* \"#utility.yul\":16557:16652   */\n      swap5\n      pop\n        /* \"#utility.yul\":16683:16684   */\n      0x01\n        /* \"#utility.yul\":16672:16681   */\n      dup3\n        /* \"#utility.yul\":16668:16685   */\n      and\n        /* \"#utility.yul\":16699:16700   */\n      0x00\n        /* \"#utility.yul\":16694:16860   */\n      dup2\n      eq\n      tag_305\n      jumpi\n        /* \"#utility.yul\":16874:16875   */\n      0x01\n        /* \"#utility.yul\":16869:17213   */\n      dup2\n      eq\n      tag_306\n      jumpi\n        /* \"#utility.yul\":16661:17213   */\n      jump(tag_304)\n        /* \"#utility.yul\":16694:16860   */\n    tag_305:\n        /* \"#utility.yul\":16778:16782   */\n      0xff\n        /* \"#utility.yul\":16774:16783   */\n      not\n        /* \"#utility.yul\":16763:16772   */\n      dup4\n        /* \"#utility.yul\":16759:16784   */\n      and\n        /* \"#utility.yul\":16754:16757   */\n      dup7\n        /* \"#utility.yul\":16747:16785   */\n      mstore\n        /* \"#utility.yul\":16840:16846   */\n      dup2\n        /* \"#utility.yul\":16833:16847   */\n      iszero\n        /* \"#utility.yul\":16826:16848   */\n      iszero\n        /* \"#utility.yul\":16818:16824   */\n      dup3\n        /* \"#utility.yul\":16814:16849   */\n      mul\n        /* \"#utility.yul\":16809:16812   */\n      dup7\n        /* \"#utility.yul\":16805:16850   */\n      add\n        /* \"#utility.yul\":16798:16850   */\n      swap4\n      pop\n        /* \"#utility.yul\":16694:16860   */\n      jump(tag_304)\n        /* \"#utility.yul\":16869:17213   */\n    tag_306:\n        /* \"#utility.yul\":16936:16977   */\n      tag_307\n        /* \"#utility.yul\":16971:16976   */\n      dup6\n        /* \"#utility.yul\":16936:16977   */\n      tag_147\n      jump\t// in\n    tag_307:\n        /* \"#utility.yul\":16999:17000   */\n      0x00\n        /* \"#utility.yul\":17013:17167   */\n    tag_308:\n        /* \"#utility.yul\":17027:17033   */\n      dup4\n        /* \"#utility.yul\":17024:17025   */\n      dup2\n        /* \"#utility.yul\":17021:17034   */\n      lt\n        /* \"#utility.yul\":17013:17167   */\n      iszero\n      tag_310\n      jumpi\n        /* \"#utility.yul\":17101:17108   */\n      dup2\n        /* \"#utility.yul\":17095:17109   */\n      sload\n        /* \"#utility.yul\":17091:17092   */\n      dup2\n        /* \"#utility.yul\":17086:17089   */\n      dup10\n        /* \"#utility.yul\":17082:17093   */\n      add\n        /* \"#utility.yul\":17075:17110   */\n      mstore\n        /* \"#utility.yul\":17151:17152   */\n      0x01\n        /* \"#utility.yul\":17142:17149   */\n      dup3\n        /* \"#utility.yul\":17138:17153   */\n      add\n        /* \"#utility.yul\":17127:17153   */\n      swap2\n      pop\n        /* \"#utility.yul\":17049:17053   */\n      0x20\n        /* \"#utility.yul\":17046:17047   */\n      dup2\n        /* \"#utility.yul\":17042:17054   */\n      add\n        /* \"#utility.yul\":17037:17054   */\n      swap1\n      pop\n        /* \"#utility.yul\":17013:17167   */\n      jump(tag_308)\n    tag_310:\n        /* \"#utility.yul\":17196:17202   */\n      dup4\n        /* \"#utility.yul\":17191:17194   */\n      dup9\n        /* \"#utility.yul\":17187:17203   */\n      add\n        /* \"#utility.yul\":17180:17203   */\n      swap6\n      pop\n        /* \"#utility.yul\":16876:17213   */\n      pop\n      pop\n        /* \"#utility.yul\":16661:17213   */\n    tag_304:\n      pop\n        /* \"#utility.yul\":16450:17219   */\n      pop\n      pop\n        /* \"#utility.yul\":16341:17219   */\n      swap3\n      swap2\n      pop\n      pop\n      jump\t// out\n        /* \"#utility.yul\":17225:17498   */\n    tag_80:\n        /* \"#utility.yul\":17356:17359   */\n      0x00\n        /* \"#utility.yul\":17378:17472   */\n      tag_312\n        /* \"#utility.yul\":17468:17471   */\n      dup3\n        /* \"#utility.yul\":17459:17465   */\n      dup5\n        /* \"#utility.yul\":17378:17472   */\n      tag_148\n      jump\t// in\n    tag_312:\n        /* \"#utility.yul\":17371:17472   */\n      swap2\n      pop\n        /* \"#utility.yul\":17489:17492   */\n      dup2\n        /* \"#utility.yul\":17482:17492   */\n      swap1\n      pop\n        /* \"#utility.yul\":17225:17498   */\n      swap3\n      swap2\n      pop\n      pop\n      jump\t// out\n        /* \"#utility.yul\":17504:17677   */\n    tag_149:\n        /* \"#utility.yul\":17644:17669   */\n      0x496e76616c69642043616e646964617465206e616d653b000000000000000000\n        /* \"#utility.yul\":17640:17641   */\n      0x00\n        /* \"#utility.yul\":17632:17638   */\n      dup3\n        /* \"#utility.yul\":17628:17642   */\n      add\n        /* \"#utility.yul\":17621:17670   */\n      mstore\n        /* \"#utility.yul\":17504:17677   */\n      pop\n      jump\t// out\n        /* \"#utility.yul\":17683:18049   */\n    tag_150:\n        /* \"#utility.yul\":17825:17828   */\n      0x00\n        /* \"#utility.yul\":17846:17913   */\n      tag_315\n        /* \"#utility.yul\":17910:17912   */\n      0x17\n        /* \"#utility.yul\":17905:17908   */\n      dup4\n        /* \"#utility.yul\":17846:17913   */\n      tag_124\n      jump\t// in\n    tag_315:\n        /* \"#utility.yul\":17839:17913   */\n      swap2\n      pop\n        /* \"#utility.yul\":17922:18015   */\n      tag_316\n        /* \"#utility.yul\":18011:18014   */\n      dup3\n        /* \"#utility.yul\":17922:18015   */\n      tag_149\n      jump\t// in\n    tag_316:\n        /* \"#utility.yul\":18040:18042   */\n      0x20\n        /* \"#utility.yul\":18035:18038   */\n      dup3\n        /* \"#utility.yul\":18031:18043   */\n      add\n        /* \"#utility.yul\":18024:18043   */\n      swap1\n      pop\n        /* \"#utility.yul\":17683:18049   */\n      swap2\n      swap1\n      pop\n      jump\t// out\n        /* \"#utility.yul\":18055:18474   */\n    tag_84:\n        /* \"#utility.yul\":18221:18225   */\n      0x00\n        /* \"#utility.yul\":18259:18261   */\n      0x20\n        /* \"#utility.yul\":18248:18257   */\n      dup3\n        /* \"#utility.yul\":18244:18262   */\n      add\n        /* \"#utility.yul\":18236:18262   */\n      swap1\n      pop\n        /* \"#utility.yul\":18308:18317   */\n      dup2\n        /* \"#utility.yul\":18302:18306   */\n      dup2\n        /* \"#utility.yul\":18298:18318   */\n      sub\n        /* \"#utility.yul\":18294:18295   */\n      0x00\n        /* \"#utility.yul\":18283:18292   */\n      dup4\n        /* \"#utility.yul\":18279:18296   */\n      add\n        /* \"#utility.yul\":18272:18319   */\n      mstore\n        /* \"#utility.yul\":18336:18467   */\n      tag_318\n        /* \"#utility.yul\":18462:18466   */\n      dup2\n        /* \"#utility.yul\":18336:18467   */\n      tag_150\n      jump\t// in\n    tag_318:\n        /* \"#utility.yul\":18328:18467   */\n      swap1\n      pop\n        /* \"#utility.yul\":18055:18474   */\n      swap2\n      swap1\n      pop\n      jump\t// out\n        /* \"#utility.yul\":18480:18660   */\n    tag_151:\n        /* \"#utility.yul\":18528:18605   */\n      0x4e487b7100000000000000000000000000000000000000000000000000000000\n        /* \"#utility.yul\":18525:18526   */\n      0x00\n        /* \"#utility.yul\":18518:18606   */\n      mstore\n        /* \"#utility.yul\":18625:18629   */\n      0x11\n        /* \"#utility.yul\":18622:18623   */\n      0x04\n        /* \"#utility.yul\":18615:18630   */\n      mstore\n        /* \"#utility.yul\":18649:18653   */\n      0x24\n        /* \"#utility.yul\":18646:18647   */\n      0x00\n        /* \"#utility.yul\":18639:18654   */\n      revert\n        /* \"#utility.yul\":18666:18899   */\n    tag_87:\n        /* \"#utility.yul\":18705:18708   */\n      0x00\n        /* \"#utility.yul\":18728:18752   */\n      tag_321\n        /* \"#utility.yul\":18746:18751   */\n      dup3\n        /* \"#utility.yul\":18728:18752   */\n      tag_116\n      jump\t// in\n    tag_321:\n        /* \"#utility.yul\":18719:18752   */\n      swap2\n      pop\n        /* \"#utility.yul\":18774:18840   */\n      0xffffffffffffffffffffffffffffffffffffffffffffffffffffffffffffffff\n        /* \"#utility.yul\":18767:18772   */\n      dup3\n        /* \"#utility.yul\":18764:18841   */\n      sub\n        /* \"#utility.yul\":18761:18864   */\n      tag_322\n      jumpi\n        /* \"#utility.yul\":18844:18862   */\n      tag_323\n      tag_151\n      jump\t// in\n    tag_323:\n        /* \"#utility.yul\":18761:18864   */\n    tag_322:\n        /* \"#utility.yul\":18891:18892   */\n      0x01\n        /* \"#utility.yul\":18884:18889   */\n      dup3\n        /* \"#utility.yul\":18880:18893   */\n      add\n        /* \"#utility.yul\":18873:18893   */\n      swap1\n      pop\n        /* \"#utility.yul\":18666:18899   */\n      swap2\n      swap1\n      pop\n      jump\t// out\n        /* \"#utility.yul\":18905:19419   */\n    tag_89:\n        /* \"#utility.yul\":19066:19070   */\n      0x00\n        /* \"#utility.yul\":19104:19106   */\n      0x40\n        /* \"#utility.yul\":19093:19102   */\n      dup3\n        /* \"#utility.yul\":19089:19107   */\n      add\n        /* \"#utility.yul\":19081:19107   */\n      swap1\n      pop\n        /* \"#utility.yul\":19153:19162   */\n      dup2\n        /* \"#utility.yul\":19147:19151   */\n      dup2\n        /* \"#utility.yul\":19143:19163   */\n      sub\n        /* \"#utility.yul\":19139:19140   */\n      0x00\n        /* \"#utility.yul\":19128:19137   */\n      dup4\n        /* \"#utility.yul\":19124:19141   */\n      add\n        /* \"#utility.yul\":19117:19164   */\n      mstore\n        /* \"#utility.yul\":19181:19259   */\n      tag_325\n        /* \"#utility.yul\":19254:19258   */\n      dup2\n        /* \"#utility.yul\":19245:19251   */\n      dup6\n        /* \"#utility.yul\":19181:19259   */\n      tag_126\n      jump\t// in\n    tag_325:\n        /* \"#utility.yul\":19173:19259   */\n      swap1\n      pop\n        /* \"#utility.yul\":19306:19315   */\n      dup2\n        /* \"#utility.yul\":19300:19304   */\n      dup2\n        /* \"#utility.yul\":19296:19316   */\n      sub\n        /* \"#utility.yul\":19291:19293   */\n      0x20\n        /* \"#utility.yul\":19280:19289   */\n      dup4\n        /* \"#utility.yul\":19276:19294   */\n      add\n        /* \"#utility.yul\":19269:19317   */\n      mstore\n        /* \"#utility.yul\":19334:19412   */\n      tag_326\n        /* \"#utility.yul\":19407:19411   */\n      dup2\n        /* \"#utility.yul\":19398:19404   */\n      dup5\n        /* \"#utility.yul\":19334:19412   */\n      tag_126\n      jump\t// in\n    tag_326:\n        /* \"#utility.yul\":19326:19412   */\n      swap1\n      pop\n        /* \"#utility.yul\":18905:19419   */\n      swap4\n      swap3\n      pop\n      pop\n      pop\n      jump\t// out\n\n    auxdata: 0xa2646970667358221220eef6fea2b4f2bdcc478c859360844471de30c870ab766507bd4fcd01754c373b64736f6c634300081a0033\n}\n",
				"bytecode": {
					"linkReferences": {},
					"object": "608060405234801561000f575f80fd5b506040516118ce3803806118ce8339818101604052810190610031919061038e565b335f806101000a81548173ffffffffffffffffffffffffffffffffffffffff021916908373ffffffffffffffffffffffffffffffffffffffff160217905550806004908051906020019061008692919061008d565b50506106b1565b828054828255905f5260205f209081019282156100d3579160200282015b828111156100d25782518290816100c291906105e2565b50916020019190600101906100ab565b5b5090506100e091906100e4565b5090565b5b80821115610103575f81816100fa9190610107565b506001016100e5565b5090565b5080546101139061040c565b5f825580601f106101245750610141565b601f0160209004905f5260205f20908101906101409190610144565b5b50565b5b8082111561015b575f815f905550600101610145565b5090565b5f604051905090565b5f80fd5b5f80fd5b5f80fd5b5f601f19601f8301169050919050565b7f4e487b71000000000000000000000000000000000000000000000000000000005f52604160045260245ffd5b6101ba82610174565b810181811067ffffffffffffffff821117156101d9576101d8610184565b5b80604052505050565b5f6101eb61015f565b90506101f782826101b1565b919050565b5f67ffffffffffffffff82111561021657610215610184565b5b602082029050602081019050919050565b5f80fd5b5f80fd5b5f67ffffffffffffffff82111561024957610248610184565b5b61025282610174565b9050602081019050919050565b8281835e5f83830152505050565b5f61027f61027a8461022f565b6101e2565b90508281526020810184848401111561029b5761029a61022b565b5b6102a684828561025f565b509392505050565b5f82601f8301126102c2576102c1610170565b5b81516102d284826020860161026d565b91505092915050565b5f6102ed6102e8846101fc565b6101e2565b905080838252602082019050602084028301858111156103105761030f610227565b5b835b8181101561035757805167ffffffffffffffff81111561033557610334610170565b5b80860161034289826102ae565b85526020850194505050602081019050610312565b5050509392505050565b5f82601f83011261037557610374610170565b5b81516103858482602086016102db565b91505092915050565b5f602082840312156103a3576103a2610168565b5b5f82015167ffffffffffffffff8111156103c0576103bf61016c565b5b6103cc84828501610361565b91505092915050565b5f81519050919050565b7f4e487b71000000000000000000000000000000000000000000000000000000005f52602260045260245ffd5b5f600282049050600182168061042357607f821691505b602082108103610436576104356103df565b5b50919050565b5f819050815f5260205f209050919050565b5f6020601f8301049050919050565b5f82821b905092915050565b5f600883026104987fffffffffffffffffffffffffffffffffffffffffffffffffffffffffffffffff8261045d565b6104a2868361045d565b95508019841693508086168417925050509392505050565b5f819050919050565b5f819050919050565b5f6104e66104e16104dc846104ba565b6104c3565b6104ba565b9050919050565b5f819050919050565b6104ff836104cc565b61051361050b826104ed565b848454610469565b825550505050565b5f90565b61052761051b565b6105328184846104f6565b505050565b5b818110156105555761054a5f8261051f565b600181019050610538565b5050565b601f82111561059a5761056b8161043c565b6105748461044e565b81016020851015610583578190505b61059761058f8561044e565b830182610537565b50505b505050565b5f82821c905092915050565b5f6105ba5f198460080261059f565b1980831691505092915050565b5f6105d283836105ab565b9150826002028217905092915050565b6105eb826103d5565b67ffffffffffffffff81111561060457610603610184565b5b61060e825461040c565b610619828285610559565b5f60209050601f83116001811461064a575f8415610638578287015190505b61064285826105c7565b8655506106a9565b601f1984166106588661043c565b5f5b8281101561067f5784890151825560018201915060208501945060208101905061065a565b8683101561069c5784890151610698601f8916826105ab565b8355505b6001600288020188555050505b505050505050565b611210806106be5f395ff3fe608060405234801561000f575f80fd5b5060043610610086575f3560e01c80634440bb12116100595780634440bb12146101225780637c25f260146101525780638671bd6c14610170578063e6f5ef91146101a357610086565b80630dc641e61461008a57806314d952de146100ba57806317072d6b146100d65780633d2f7551146100f2575b5f80fd5b6100a4600480360381019061009f9190610985565b6101c1565b6040516100b191906109e4565b60405180910390f35b6100d460048036038101906100cf9190610a32565b6101ee565b005b6100f060048036038101906100eb9190610ab2565b61034a565b005b61010c60048036038101906101079190610b52565b610621565b6040516101199190610bdd565b60405180910390f35b61013c60048036038101906101379190610985565b6106c7565b60405161014991906109e4565b60405180910390f35b61015a61077c565b6040516101679190610c3c565b60405180910390f35b61018a60048036038101906101859190610985565b6107a1565b60405161019a9493929190610c64565b60405180910390f35b6101ab610815565b6040516101b89190610c3c565b60405180910390f35b6003818051602081018201805184825260208301602085012081835280955050505050505f915090505481565b5f8054906101000a900473ffffffffffffffffffffffffffffffffffffffff1673ffffffffffffffffffffffffffffffffffffffff163373ffffffffffffffffffffffffffffffffffffffff161461027b576040517f08c379a000000000000000000000000000000000000000000000000000000000815260040161027290610cf1565b60405180910390fd5b5f60405180608001604052808515158152602001841515815260200183151581526020015f15158152509050806002866040516102b89190610d49565b90815260200160405180910390205f820151815f015f6101000a81548160ff0219169083151502179055506020820151815f0160016101000a81548160ff0219169083151502179055506040820151815f0160026101000a81548160ff0219169083151502179055506060820151815f0160036101000a81548160ff0219169083151502179055509050505050505050565b5f60028360405161035b9190610d49565b908152602001604051809103902090505f8251116103ae576040517f08c379a00000000000000000000000000000000000000000000000000000000081526004016103a590610da9565b60405180910390fd5b805f015f9054906101000a900460ff166103fd576040517f08c379a00000000000000000000000000000000000000000000000000000000081526004016103f490610e37565b60405180910390fd5b805f0160019054906101000a900460ff1661044d576040517f08c379a000000000000000000000000000000000000000000000000000000000815260040161044490610e9f565b60405180910390fd5b805f0160029054906101000a900460ff1661049d576040517f08c379a000000000000000000000000000000000000000000000000000000000815260040161049490610f07565b60405180910390fd5b805f0160039054906101000a900460ff16156104ee576040517f08c379a00000000000000000000000000000000000000000000000000000000081526004016104e590610f6f565b60405180910390fd5b5f805b6004805490508110156105525783805190602001206004828154811061051a57610519610f8d565b5b905f5260205f200160405161052f91906110b3565b6040518091039020036105455760019150610552565b80806001019150506104f1565b5080610593576040517f08c379a000000000000000000000000000000000000000000000000000000000815260040161058a90611113565b60405180910390fd5b6003836040516105a39190610d49565b90815260200160405180910390205f8154809291906105c19061115e565b91905055506001825f0160036101000a81548160ff0219169083151502179055507f791f7d5f0b0d6e798f239ccca607156ff12f293d6709379301dc1a27e520618184846040516106139291906111a5565b60405180910390a150505050565b60048181548110610630575f80fd5b905f5260205f20015f91509050805461064890610fe7565b80601f016020809104026020016040519081016040528092919081815260200182805461067490610fe7565b80156106bf5780601f10610696576101008083540402835291602001916106bf565b820191905f5260205f20905b8154815290600101906020018083116106a257829003601f168201915b505050505081565b5f805f9054906101000a900473ffffffffffffffffffffffffffffffffffffffff1673ffffffffffffffffffffffffffffffffffffffff163373ffffffffffffffffffffffffffffffffffffffff1614610756576040517f08c379a000000000000000000000000000000000000000000000000000000000815260040161074d90610cf1565b60405180910390fd5b6003826040516107669190610d49565b9081526020016040518091039020549050919050565b60015f9054906101000a900473ffffffffffffffffffffffffffffffffffffffff1681565b6002818051602081018201805184825260208301602085012081835280955050505050505f91509050805f015f9054906101000a900460ff1690805f0160019054906101000a900460ff1690805f0160029054906101000a900460ff1690805f0160039054906101000a900460ff16905084565b5f8054906101000a900473ffffffffffffffffffffffffffffffffffffffff1681565b5f604051905090565b5f80fd5b5f80fd5b5f80fd5b5f80fd5b5f601f19601f8301169050919050565b7f4e487b71000000000000000000000000000000000000000000000000000000005f52604160045260245ffd5b61089782610851565b810181811067ffffffffffffffff821117156108b6576108b5610861565b5b80604052505050565b5f6108c8610838565b90506108d4828261088e565b919050565b5f67ffffffffffffffff8211156108f3576108f2610861565b5b6108fc82610851565b9050602081019050919050565b828183375f83830152505050565b5f610929610924846108d9565b6108bf565b9050828152602081018484840111156109455761094461084d565b5b610950848285610909565b509392505050565b5f82601f83011261096c5761096b610849565b5b813561097c848260208601610917565b91505092915050565b5f6020828403121561099a57610999610841565b5b5f82013567ffffffffffffffff8111156109b7576109b6610845565b5b6109c384828501610958565b91505092915050565b5f819050919050565b6109de816109cc565b82525050565b5f6020820190506109f75f8301846109d5565b92915050565b5f8115159050919050565b610a11816109fd565b8114610a1b575f80fd5b50565b5f81359050610a2c81610a08565b92915050565b5f805f8060808587031215610a4a57610a49610841565b5b5f85013567ffffffffffffffff811115610a6757610a66610845565b5b610a7387828801610958565b9450506020610a8487828801610a1e565b9350506040610a9587828801610a1e565b9250506060610aa687828801610a1e565b91505092959194509250565b5f8060408385031215610ac857610ac7610841565b5b5f83013567ffffffffffffffff811115610ae557610ae4610845565b5b610af185828601610958565b925050602083013567ffffffffffffffff811115610b1257610b11610845565b5b610b1e85828601610958565b9150509250929050565b610b31816109cc565b8114610b3b575f80fd5b50565b5f81359050610b4c81610b28565b92915050565b5f60208284031215610b6757610b66610841565b5b5f610b7484828501610b3e565b91505092915050565b5f81519050919050565b5f82825260208201905092915050565b8281835e5f83830152505050565b5f610baf82610b7d565b610bb98185610b87565b9350610bc9818560208601610b97565b610bd281610851565b840191505092915050565b5f6020820190508181035f830152610bf58184610ba5565b905092915050565b5f73ffffffffffffffffffffffffffffffffffffffff82169050919050565b5f610c2682610bfd565b9050919050565b610c3681610c1c565b82525050565b5f602082019050610c4f5f830184610c2d565b92915050565b610c5e816109fd565b82525050565b5f608082019050610c775f830187610c55565b610c846020830186610c55565b610c916040830185610c55565b610c9e6060830184610c55565b95945050505050565b7f596f7520617265206e6f7420617574686f72697a6564000000000000000000005f82015250565b5f610cdb601683610b87565b9150610ce682610ca7565b602082019050919050565b5f6020820190508181035f830152610d0881610ccf565b9050919050565b5f81905092915050565b5f610d2382610b7d565b610d2d8185610d0f565b9350610d3d818560208601610b97565b80840191505092915050565b5f610d548284610d19565b915081905092915050565b7f43616e6469646174652063616e6e6f7420626520656d707479000000000000005f82015250565b5f610d93601983610b87565b9150610d9e82610d5f565b602082019050919050565b5f6020820190508181035f830152610dc081610d87565b9050919050565b7f596f75206d75737420726567697374657220612076616c69642066696e6765725f8201527f7072696e74000000000000000000000000000000000000000000000000000000602082015250565b5f610e21602583610b87565b9150610e2c82610dc7565b604082019050919050565b5f6020820190508181035f830152610e4e81610e15565b9050919050565b7f4461746120697320696e76616c69643b000000000000000000000000000000005f82015250565b5f610e89601083610b87565b9150610e9482610e55565b602082019050919050565b5f6020820190508181035f830152610eb681610e7d565b9050919050565b7f596f7520617265206e6f7420656c696769626c6520746f20766f7465000000005f82015250565b5f610ef1601c83610b87565b9150610efc82610ebd565b602082019050919050565b5f6020820190508181035f830152610f1e81610ee5565b9050919050565b7f596f75206861766520616c726561647920766f746564000000000000000000005f82015250565b5f610f59601683610b87565b9150610f6482610f25565b602082019050919050565b5f6020820190508181035f830152610f8681610f4d565b9050919050565b7f4e487b71000000000000000000000000000000000000000000000000000000005f52603260045260245ffd5b7f4e487b71000000000000000000000000000000000000000000000000000000005f52602260045260245ffd5b5f6002820490506001821680610ffe57607f821691505b60208210810361101157611010610fba565b5b50919050565b5f81905092915050565b5f819050815f5260205f209050919050565b5f815461103f81610fe7565b6110498186611017565b9450600182165f81146110635760018114611078576110aa565b60ff19831686528115158202860193506110aa565b61108185611021565b5f5b838110156110a257815481890152600182019150602081019050611083565b838801955050505b50505092915050565b5f6110be8284611033565b915081905092915050565b7f496e76616c69642043616e646964617465206e616d653b0000000000000000005f82015250565b5f6110fd601783610b87565b9150611108826110c9565b602082019050919050565b5f6020820190508181035f83015261112a816110f1565b9050919050565b7f4e487b71000000000000000000000000000000000000000000000000000000005f52601160045260245ffd5b5f611168826109cc565b91507fffffffffffffffffffffffffffffffffffffffffffffffffffffffffffffffff820361119a57611199611131565b5b600182019050919050565b5f6040820190508181035f8301526111bd8185610ba5565b905081810360208301526111d18184610ba5565b9050939250505056fea2646970667358221220eef6fea2b4f2bdcc478c859360844471de30c870ab766507bd4fcd01754c373b64736f6c634300081a0033",
					"opcodes": "PUSH1 0x80 PUSH1 0x40 MSTORE CALLVALUE DUP1 ISZERO PUSH2 0xF JUMPI PUSH0 DUP1 REVERT JUMPDEST POP PUSH1 0x40 MLOAD PUSH2 0x18CE CODESIZE SUB DUP1 PUSH2 0x18CE DUP4 CODECOPY DUP2 DUP2 ADD PUSH1 0x40 MSTORE DUP2 ADD SWAP1 PUSH2 0x31 SWAP2 SWAP1 PUSH2 0x38E JUMP JUMPDEST CALLER PUSH0 DUP1 PUSH2 0x100 EXP DUP2 SLOAD DUP2 PUSH20 0xFFFFFFFFFFFFFFFFFFFFFFFFFFFFFFFFFFFFFFFF MUL NOT AND SWAP1 DUP4 PUSH20 0xFFFFFFFFFFFFFFFFFFFFFFFFFFFFFFFFFFFFFFFF AND MUL OR SWAP1 SSTORE POP DUP1 PUSH1 0x4 SWAP1 DUP1 MLOAD SWAP1 PUSH1 0x20 ADD SWAP1 PUSH2 0x86 SWAP3 SWAP2 SWAP1 PUSH2 0x8D JUMP JUMPDEST POP POP PUSH2 0x6B1 JUMP JUMPDEST DUP3 DUP1 SLOAD DUP3 DUP3 SSTORE SWAP1 PUSH0 MSTORE PUSH1 0x20 PUSH0 KECCAK256 SWAP1 DUP2 ADD SWAP3 DUP3 ISZERO PUSH2 0xD3 JUMPI SWAP2 PUSH1 0x20 MUL DUP3 ADD JUMPDEST DUP3 DUP2 GT ISZERO PUSH2 0xD2 JUMPI DUP3 MLOAD DUP3 SWAP1 DUP2 PUSH2 0xC2 SWAP2 SWAP1 PUSH2 0x5E2 JUMP JUMPDEST POP SWAP2 PUSH1 0x20 ADD SWAP2 SWAP1 PUSH1 0x1 ADD SWAP1 PUSH2 0xAB JUMP JUMPDEST JUMPDEST POP SWAP1 POP PUSH2 0xE0 SWAP2 SWAP1 PUSH2 0xE4 JUMP JUMPDEST POP SWAP1 JUMP JUMPDEST JUMPDEST DUP1 DUP3 GT ISZERO PUSH2 0x103 JUMPI PUSH0 DUP2 DUP2 PUSH2 0xFA SWAP2 SWAP1 PUSH2 0x107 JUMP JUMPDEST POP PUSH1 0x1 ADD PUSH2 0xE5 JUMP JUMPDEST POP SWAP1 JUMP JUMPDEST POP DUP1 SLOAD PUSH2 0x113 SWAP1 PUSH2 0x40C JUMP JUMPDEST PUSH0 DUP3 SSTORE DUP1 PUSH1 0x1F LT PUSH2 0x124 JUMPI POP PUSH2 0x141 JUMP JUMPDEST PUSH1 0x1F ADD PUSH1 0x20 SWAP1 DIV SWAP1 PUSH0 MSTORE PUSH1 0x20 PUSH0 KECCAK256 SWAP1 DUP2 ADD SWAP1 PUSH2 0x140 SWAP2 SWAP1 PUSH2 0x144 JUMP JUMPDEST JUMPDEST POP JUMP JUMPDEST JUMPDEST DUP1 DUP3 GT ISZERO PUSH2 0x15B JUMPI PUSH0 DUP2 PUSH0 SWAP1 SSTORE POP PUSH1 0x1 ADD PUSH2 0x145 JUMP JUMPDEST POP SWAP1 JUMP JUMPDEST PUSH0 PUSH1 0x40 MLOAD SWAP1 POP SWAP1 JUMP JUMPDEST PUSH0 DUP1 REVERT JUMPDEST PUSH0 DUP1 REVERT JUMPDEST PUSH0 DUP1 REVERT JUMPDEST PUSH0 PUSH1 0x1F NOT PUSH1 0x1F DUP4 ADD AND SWAP1 POP SWAP2 SWAP1 POP JUMP JUMPDEST PUSH32 0x4E487B7100000000000000000000000000000000000000000000000000000000 PUSH0 MSTORE PUSH1 0x41 PUSH1 0x4 MSTORE PUSH1 0x24 PUSH0 REVERT JUMPDEST PUSH2 0x1BA DUP3 PUSH2 0x174 JUMP JUMPDEST DUP2 ADD DUP2 DUP2 LT PUSH8 0xFFFFFFFFFFFFFFFF DUP3 GT OR ISZERO PUSH2 0x1D9 JUMPI PUSH2 0x1D8 PUSH2 0x184 JUMP JUMPDEST JUMPDEST DUP1 PUSH1 0x40 MSTORE POP POP POP JUMP JUMPDEST PUSH0 PUSH2 0x1EB PUSH2 0x15F JUMP JUMPDEST SWAP1 POP PUSH2 0x1F7 DUP3 DUP3 PUSH2 0x1B1 JUMP JUMPDEST SWAP2 SWAP1 POP JUMP JUMPDEST PUSH0 PUSH8 0xFFFFFFFFFFFFFFFF DUP3 GT ISZERO PUSH2 0x216 JUMPI PUSH2 0x215 PUSH2 0x184 JUMP JUMPDEST JUMPDEST PUSH1 0x20 DUP3 MUL SWAP1 POP PUSH1 0x20 DUP2 ADD SWAP1 POP SWAP2 SWAP1 POP JUMP JUMPDEST PUSH0 DUP1 REVERT JUMPDEST PUSH0 DUP1 REVERT JUMPDEST PUSH0 PUSH8 0xFFFFFFFFFFFFFFFF DUP3 GT ISZERO PUSH2 0x249 JUMPI PUSH2 0x248 PUSH2 0x184 JUMP JUMPDEST JUMPDEST PUSH2 0x252 DUP3 PUSH2 0x174 JUMP JUMPDEST SWAP1 POP PUSH1 0x20 DUP2 ADD SWAP1 POP SWAP2 SWAP1 POP JUMP JUMPDEST DUP3 DUP2 DUP4 MCOPY PUSH0 DUP4 DUP4 ADD MSTORE POP POP POP JUMP JUMPDEST PUSH0 PUSH2 0x27F PUSH2 0x27A DUP5 PUSH2 0x22F JUMP JUMPDEST PUSH2 0x1E2 JUMP JUMPDEST SWAP1 POP DUP3 DUP2 MSTORE PUSH1 0x20 DUP2 ADD DUP5 DUP5 DUP5 ADD GT ISZERO PUSH2 0x29B JUMPI PUSH2 0x29A PUSH2 0x22B JUMP JUMPDEST JUMPDEST PUSH2 0x2A6 DUP5 DUP3 DUP6 PUSH2 0x25F JUMP JUMPDEST POP SWAP4 SWAP3 POP POP POP JUMP JUMPDEST PUSH0 DUP3 PUSH1 0x1F DUP4 ADD SLT PUSH2 0x2C2 JUMPI PUSH2 0x2C1 PUSH2 0x170 JUMP JUMPDEST JUMPDEST DUP2 MLOAD PUSH2 0x2D2 DUP5 DUP3 PUSH1 0x20 DUP7 ADD PUSH2 0x26D JUMP JUMPDEST SWAP2 POP POP SWAP3 SWAP2 POP POP JUMP JUMPDEST PUSH0 PUSH2 0x2ED PUSH2 0x2E8 DUP5 PUSH2 0x1FC JUMP JUMPDEST PUSH2 0x1E2 JUMP JUMPDEST SWAP1 POP DUP1 DUP4 DUP3 MSTORE PUSH1 0x20 DUP3 ADD SWAP1 POP PUSH1 0x20 DUP5 MUL DUP4 ADD DUP6 DUP2 GT ISZERO PUSH2 0x310 JUMPI PUSH2 0x30F PUSH2 0x227 JUMP JUMPDEST JUMPDEST DUP4 JUMPDEST DUP2 DUP2 LT ISZERO PUSH2 0x357 JUMPI DUP1 MLOAD PUSH8 0xFFFFFFFFFFFFFFFF DUP2 GT ISZERO PUSH2 0x335 JUMPI PUSH2 0x334 PUSH2 0x170 JUMP JUMPDEST JUMPDEST DUP1 DUP7 ADD PUSH2 0x342 DUP10 DUP3 PUSH2 0x2AE JUMP JUMPDEST DUP6 MSTORE PUSH1 0x20 DUP6 ADD SWAP5 POP POP POP PUSH1 0x20 DUP2 ADD SWAP1 POP PUSH2 0x312 JUMP JUMPDEST POP POP POP SWAP4 SWAP3 POP POP POP JUMP JUMPDEST PUSH0 DUP3 PUSH1 0x1F DUP4 ADD SLT PUSH2 0x375 JUMPI PUSH2 0x374 PUSH2 0x170 JUMP JUMPDEST JUMPDEST DUP2 MLOAD PUSH2 0x385 DUP5 DUP3 PUSH1 0x20 DUP7 ADD PUSH2 0x2DB JUMP JUMPDEST SWAP2 POP POP SWAP3 SWAP2 POP POP JUMP JUMPDEST PUSH0 PUSH1 0x20 DUP3 DUP5 SUB SLT ISZERO PUSH2 0x3A3 JUMPI PUSH2 0x3A2 PUSH2 0x168 JUMP JUMPDEST JUMPDEST PUSH0 DUP3 ADD MLOAD PUSH8 0xFFFFFFFFFFFFFFFF DUP2 GT ISZERO PUSH2 0x3C0 JUMPI PUSH2 0x3BF PUSH2 0x16C JUMP JUMPDEST JUMPDEST PUSH2 0x3CC DUP5 DUP3 DUP6 ADD PUSH2 0x361 JUMP JUMPDEST SWAP2 POP POP SWAP3 SWAP2 POP POP JUMP JUMPDEST PUSH0 DUP2 MLOAD SWAP1 POP SWAP2 SWAP1 POP JUMP JUMPDEST PUSH32 0x4E487B7100000000000000000000000000000000000000000000000000000000 PUSH0 MSTORE PUSH1 0x22 PUSH1 0x4 MSTORE PUSH1 0x24 PUSH0 REVERT JUMPDEST PUSH0 PUSH1 0x2 DUP3 DIV SWAP1 POP PUSH1 0x1 DUP3 AND DUP1 PUSH2 0x423 JUMPI PUSH1 0x7F DUP3 AND SWAP2 POP JUMPDEST PUSH1 0x20 DUP3 LT DUP2 SUB PUSH2 0x436 JUMPI PUSH2 0x435 PUSH2 0x3DF JUMP JUMPDEST JUMPDEST POP SWAP2 SWAP1 POP JUMP JUMPDEST PUSH0 DUP2 SWAP1 POP DUP2 PUSH0 MSTORE PUSH1 0x20 PUSH0 KECCAK256 SWAP1 POP SWAP2 SWAP1 POP JUMP JUMPDEST PUSH0 PUSH1 0x20 PUSH1 0x1F DUP4 ADD DIV SWAP1 POP SWAP2 SWAP1 POP JUMP JUMPDEST PUSH0 DUP3 DUP3 SHL SWAP1 POP SWAP3 SWAP2 POP POP JUMP JUMPDEST PUSH0 PUSH1 0x8 DUP4 MUL PUSH2 0x498 PUSH32 0xFFFFFFFFFFFFFFFFFFFFFFFFFFFFFFFFFFFFFFFFFFFFFFFFFFFFFFFFFFFFFFFF DUP3 PUSH2 0x45D JUMP JUMPDEST PUSH2 0x4A2 DUP7 DUP4 PUSH2 0x45D JUMP JUMPDEST SWAP6 POP DUP1 NOT DUP5 AND SWAP4 POP DUP1 DUP7 AND DUP5 OR SWAP3 POP POP POP SWAP4 SWAP3 POP POP POP JUMP JUMPDEST PUSH0 DUP2 SWAP1 POP SWAP2 SWAP1 POP JUMP JUMPDEST PUSH0 DUP2 SWAP1 POP SWAP2 SWAP1 POP JUMP JUMPDEST PUSH0 PUSH2 0x4E6 PUSH2 0x4E1 PUSH2 0x4DC DUP5 PUSH2 0x4BA JUMP JUMPDEST PUSH2 0x4C3 JUMP JUMPDEST PUSH2 0x4BA JUMP JUMPDEST SWAP1 POP SWAP2 SWAP1 POP JUMP JUMPDEST PUSH0 DUP2 SWAP1 POP SWAP2 SWAP1 POP JUMP JUMPDEST PUSH2 0x4FF DUP4 PUSH2 0x4CC JUMP JUMPDEST PUSH2 0x513 PUSH2 0x50B DUP3 PUSH2 0x4ED JUMP JUMPDEST DUP5 DUP5 SLOAD PUSH2 0x469 JUMP JUMPDEST DUP3 SSTORE POP POP POP POP JUMP JUMPDEST PUSH0 SWAP1 JUMP JUMPDEST PUSH2 0x527 PUSH2 0x51B JUMP JUMPDEST PUSH2 0x532 DUP2 DUP5 DUP5 PUSH2 0x4F6 JUMP JUMPDEST POP POP POP JUMP JUMPDEST JUMPDEST DUP2 DUP2 LT ISZERO PUSH2 0x555 JUMPI PUSH2 0x54A PUSH0 DUP3 PUSH2 0x51F JUMP JUMPDEST PUSH1 0x1 DUP2 ADD SWAP1 POP PUSH2 0x538 JUMP JUMPDEST POP POP JUMP JUMPDEST PUSH1 0x1F DUP3 GT ISZERO PUSH2 0x59A JUMPI PUSH2 0x56B DUP2 PUSH2 0x43C JUMP JUMPDEST PUSH2 0x574 DUP5 PUSH2 0x44E JUMP JUMPDEST DUP2 ADD PUSH1 0x20 DUP6 LT ISZERO PUSH2 0x583 JUMPI DUP2 SWAP1 POP JUMPDEST PUSH2 0x597 PUSH2 0x58F DUP6 PUSH2 0x44E JUMP JUMPDEST DUP4 ADD DUP3 PUSH2 0x537 JUMP JUMPDEST POP POP JUMPDEST POP POP POP JUMP JUMPDEST PUSH0 DUP3 DUP3 SHR SWAP1 POP SWAP3 SWAP2 POP POP JUMP JUMPDEST PUSH0 PUSH2 0x5BA PUSH0 NOT DUP5 PUSH1 0x8 MUL PUSH2 0x59F JUMP JUMPDEST NOT DUP1 DUP4 AND SWAP2 POP POP SWAP3 SWAP2 POP POP JUMP JUMPDEST PUSH0 PUSH2 0x5D2 DUP4 DUP4 PUSH2 0x5AB JUMP JUMPDEST SWAP2 POP DUP3 PUSH1 0x2 MUL DUP3 OR SWAP1 POP SWAP3 SWAP2 POP POP JUMP JUMPDEST PUSH2 0x5EB DUP3 PUSH2 0x3D5 JUMP JUMPDEST PUSH8 0xFFFFFFFFFFFFFFFF DUP2 GT ISZERO PUSH2 0x604 JUMPI PUSH2 0x603 PUSH2 0x184 JUMP JUMPDEST JUMPDEST PUSH2 0x60E DUP3 SLOAD PUSH2 0x40C JUMP JUMPDEST PUSH2 0x619 DUP3 DUP3 DUP6 PUSH2 0x559 JUMP JUMPDEST PUSH0 PUSH1 0x20 SWAP1 POP PUSH1 0x1F DUP4 GT PUSH1 0x1 DUP2 EQ PUSH2 0x64A JUMPI PUSH0 DUP5 ISZERO PUSH2 0x638 JUMPI DUP3 DUP8 ADD MLOAD SWAP1 POP JUMPDEST PUSH2 0x642 DUP6 DUP3 PUSH2 0x5C7 JUMP JUMPDEST DUP7 SSTORE POP PUSH2 0x6A9 JUMP JUMPDEST PUSH1 0x1F NOT DUP5 AND PUSH2 0x658 DUP7 PUSH2 0x43C JUMP JUMPDEST PUSH0 JUMPDEST DUP3 DUP2 LT ISZERO PUSH2 0x67F JUMPI DUP5 DUP10 ADD MLOAD DUP3 SSTORE PUSH1 0x1 DUP3 ADD SWAP2 POP PUSH1 0x20 DUP6 ADD SWAP5 POP PUSH1 0x20 DUP2 ADD SWAP1 POP PUSH2 0x65A JUMP JUMPDEST DUP7 DUP4 LT ISZERO PUSH2 0x69C JUMPI DUP5 DUP10 ADD MLOAD PUSH2 0x698 PUSH1 0x1F DUP10 AND DUP3 PUSH2 0x5AB JUMP JUMPDEST DUP4 SSTORE POP JUMPDEST PUSH1 0x1 PUSH1 0x2 DUP9 MUL ADD DUP9 SSTORE POP POP POP JUMPDEST POP POP POP POP POP POP JUMP JUMPDEST PUSH2 0x1210 DUP1 PUSH2 0x6BE PUSH0 CODECOPY PUSH0 RETURN INVALID PUSH1 0x80 PUSH1 0x40 MSTORE CALLVALUE DUP1 ISZERO PUSH2 0xF JUMPI PUSH0 DUP1 REVERT JUMPDEST POP PUSH1 0x4 CALLDATASIZE LT PUSH2 0x86 JUMPI PUSH0 CALLDATALOAD PUSH1 0xE0 SHR DUP1 PUSH4 0x4440BB12 GT PUSH2 0x59 JUMPI DUP1 PUSH4 0x4440BB12 EQ PUSH2 0x122 JUMPI DUP1 PUSH4 0x7C25F260 EQ PUSH2 0x152 JUMPI DUP1 PUSH4 0x8671BD6C EQ PUSH2 0x170 JUMPI DUP1 PUSH4 0xE6F5EF91 EQ PUSH2 0x1A3 JUMPI PUSH2 0x86 JUMP JUMPDEST DUP1 PUSH4 0xDC641E6 EQ PUSH2 0x8A JUMPI DUP1 PUSH4 0x14D952DE EQ PUSH2 0xBA JUMPI DUP1 PUSH4 0x17072D6B EQ PUSH2 0xD6 JUMPI DUP1 PUSH4 0x3D2F7551 EQ PUSH2 0xF2 JUMPI JUMPDEST PUSH0 DUP1 REVERT JUMPDEST PUSH2 0xA4 PUSH1 0x4 DUP1 CALLDATASIZE SUB DUP2 ADD SWAP1 PUSH2 0x9F SWAP2 SWAP1 PUSH2 0x985 JUMP JUMPDEST PUSH2 0x1C1 JUMP JUMPDEST PUSH1 0x40 MLOAD PUSH2 0xB1 SWAP2 SWAP1 PUSH2 0x9E4 JUMP JUMPDEST PUSH1 0x40 MLOAD DUP1 SWAP2 SUB SWAP1 RETURN JUMPDEST PUSH2 0xD4 PUSH1 0x4 DUP1 CALLDATASIZE SUB DUP2 ADD SWAP1 PUSH2 0xCF SWAP2 SWAP1 PUSH2 0xA32 JUMP JUMPDEST PUSH2 0x1EE JUMP JUMPDEST STOP JUMPDEST PUSH2 0xF0 PUSH1 0x4 DUP1 CALLDATASIZE SUB DUP2 ADD SWAP1 PUSH2 0xEB SWAP2 SWAP1 PUSH2 0xAB2 JUMP JUMPDEST PUSH2 0x34A JUMP JUMPDEST STOP JUMPDEST PUSH2 0x10C PUSH1 0x4 DUP1 CALLDATASIZE SUB DUP2 ADD SWAP1 PUSH2 0x107 SWAP2 SWAP1 PUSH2 0xB52 JUMP JUMPDEST PUSH2 0x621 JUMP JUMPDEST PUSH1 0x40 MLOAD PUSH2 0x119 SWAP2 SWAP1 PUSH2 0xBDD JUMP JUMPDEST PUSH1 0x40 MLOAD DUP1 SWAP2 SUB SWAP1 RETURN JUMPDEST PUSH2 0x13C PUSH1 0x4 DUP1 CALLDATASIZE SUB DUP2 ADD SWAP1 PUSH2 0x137 SWAP2 SWAP1 PUSH2 0x985 JUMP JUMPDEST PUSH2 0x6C7 JUMP JUMPDEST PUSH1 0x40 MLOAD PUSH2 0x149 SWAP2 SWAP1 PUSH2 0x9E4 JUMP JUMPDEST PUSH1 0x40 MLOAD DUP1 SWAP2 SUB SWAP1 RETURN JUMPDEST PUSH2 0x15A PUSH2 0x77C JUMP JUMPDEST PUSH1 0x40 MLOAD PUSH2 0x167 SWAP2 SWAP1 PUSH2 0xC3C JUMP JUMPDEST PUSH1 0x40 MLOAD DUP1 SWAP2 SUB SWAP1 RETURN JUMPDEST PUSH2 0x18A PUSH1 0x4 DUP1 CALLDATASIZE SUB DUP2 ADD SWAP1 PUSH2 0x185 SWAP2 SWAP1 PUSH2 0x985 JUMP JUMPDEST PUSH2 0x7A1 JUMP JUMPDEST PUSH1 0x40 MLOAD PUSH2 0x19A SWAP5 SWAP4 SWAP3 SWAP2 SWAP1 PUSH2 0xC64 JUMP JUMPDEST PUSH1 0x40 MLOAD DUP1 SWAP2 SUB SWAP1 RETURN JUMPDEST PUSH2 0x1AB PUSH2 0x815 JUMP JUMPDEST PUSH1 0x40 MLOAD PUSH2 0x1B8 SWAP2 SWAP1 PUSH2 0xC3C JUMP JUMPDEST PUSH1 0x40 MLOAD DUP1 SWAP2 SUB SWAP1 RETURN JUMPDEST PUSH1 0x3 DUP2 DUP1 MLOAD PUSH1 0x20 DUP2 ADD DUP3 ADD DUP1 MLOAD DUP5 DUP3 MSTORE PUSH1 0x20 DUP4 ADD PUSH1 0x20 DUP6 ADD KECCAK256 DUP2 DUP4 MSTORE DUP1 SWAP6 POP POP POP POP POP POP PUSH0 SWAP2 POP SWAP1 POP SLOAD DUP2 JUMP JUMPDEST PUSH0 DUP1 SLOAD SWAP1 PUSH2 0x100 EXP SWAP1 DIV PUSH20 0xFFFFFFFFFFFFFFFFFFFFFFFFFFFFFFFFFFFFFFFF AND PUSH20 0xFFFFFFFFFFFFFFFFFFFFFFFFFFFFFFFFFFFFFFFF AND CALLER PUSH20 0xFFFFFFFFFFFFFFFFFFFFFFFFFFFFFFFFFFFFFFFF AND EQ PUSH2 0x27B JUMPI PUSH1 0x40 MLOAD PUSH32 0x8C379A000000000000000000000000000000000000000000000000000000000 DUP2 MSTORE PUSH1 0x4 ADD PUSH2 0x272 SWAP1 PUSH2 0xCF1 JUMP JUMPDEST PUSH1 0x40 MLOAD DUP1 SWAP2 SUB SWAP1 REVERT JUMPDEST PUSH0 PUSH1 0x40 MLOAD DUP1 PUSH1 0x80 ADD PUSH1 0x40 MSTORE DUP1 DUP6 ISZERO ISZERO DUP2 MSTORE PUSH1 0x20 ADD DUP5 ISZERO ISZERO DUP2 MSTORE PUSH1 0x20 ADD DUP4 ISZERO ISZERO DUP2 MSTORE PUSH1 0x20 ADD PUSH0 ISZERO ISZERO DUP2 MSTORE POP SWAP1 POP DUP1 PUSH1 0x2 DUP7 PUSH1 0x40 MLOAD PUSH2 0x2B8 SWAP2 SWAP1 PUSH2 0xD49 JUMP JUMPDEST SWAP1 DUP2 MSTORE PUSH1 0x20 ADD PUSH1 0x40 MLOAD DUP1 SWAP2 SUB SWAP1 KECCAK256 PUSH0 DUP3 ADD MLOAD DUP2 PUSH0 ADD PUSH0 PUSH2 0x100 EXP DUP2 SLOAD DUP2 PUSH1 0xFF MUL NOT AND SWAP1 DUP4 ISZERO ISZERO MUL OR SWAP1 SSTORE POP PUSH1 0x20 DUP3 ADD MLOAD DUP2 PUSH0 ADD PUSH1 0x1 PUSH2 0x100 EXP DUP2 SLOAD DUP2 PUSH1 0xFF MUL NOT AND SWAP1 DUP4 ISZERO ISZERO MUL OR SWAP1 SSTORE POP PUSH1 0x40 DUP3 ADD MLOAD DUP2 PUSH0 ADD PUSH1 0x2 PUSH2 0x100 EXP DUP2 SLOAD DUP2 PUSH1 0xFF MUL NOT AND SWAP1 DUP4 ISZERO ISZERO MUL OR SWAP1 SSTORE POP PUSH1 0x60 DUP3 ADD MLOAD DUP2 PUSH0 ADD PUSH1 0x3 PUSH2 0x100 EXP DUP2 SLOAD DUP2 PUSH1 0xFF MUL NOT AND SWAP1 DUP4 ISZERO ISZERO MUL OR SWAP1 SSTORE POP SWAP1 POP POP POP POP POP POP POP JUMP JUMPDEST PUSH0 PUSH1 0x2 DUP4 PUSH1 0x40 MLOAD PUSH2 0x35B SWAP2 SWAP1 PUSH2 0xD49 JUMP JUMPDEST SWAP1 DUP2 MSTORE PUSH1 0x20 ADD PUSH1 0x40 MLOAD DUP1 SWAP2 SUB SWAP1 KECCAK256 SWAP1 POP PUSH0 DUP3 MLOAD GT PUSH2 0x3AE JUMPI PUSH1 0x40 MLOAD PUSH32 0x8C379A000000000000000000000000000000000000000000000000000000000 DUP2 MSTORE PUSH1 0x4 ADD PUSH2 0x3A5 SWAP1 PUSH2 0xDA9 JUMP JUMPDEST PUSH1 0x40 MLOAD DUP1 SWAP2 SUB SWAP1 REVERT JUMPDEST DUP1 PUSH0 ADD PUSH0 SWAP1 SLOAD SWAP1 PUSH2 0x100 EXP SWAP1 DIV PUSH1 0xFF AND PUSH2 0x3FD JUMPI PUSH1 0x40 MLOAD PUSH32 0x8C379A000000000000000000000000000000000000000000000000000000000 DUP2 MSTORE PUSH1 0x4 ADD PUSH2 0x3F4 SWAP1 PUSH2 0xE37 JUMP JUMPDEST PUSH1 0x40 MLOAD DUP1 SWAP2 SUB SWAP1 REVERT JUMPDEST DUP1 PUSH0 ADD PUSH1 0x1 SWAP1 SLOAD SWAP1 PUSH2 0x100 EXP SWAP1 DIV PUSH1 0xFF AND PUSH2 0x44D JUMPI PUSH1 0x40 MLOAD PUSH32 0x8C379A000000000000000000000000000000000000000000000000000000000 DUP2 MSTORE PUSH1 0x4 ADD PUSH2 0x444 SWAP1 PUSH2 0xE9F JUMP JUMPDEST PUSH1 0x40 MLOAD DUP1 SWAP2 SUB SWAP1 REVERT JUMPDEST DUP1 PUSH0 ADD PUSH1 0x2 SWAP1 SLOAD SWAP1 PUSH2 0x100 EXP SWAP1 DIV PUSH1 0xFF AND PUSH2 0x49D JUMPI PUSH1 0x40 MLOAD PUSH32 0x8C379A000000000000000000000000000000000000000000000000000000000 DUP2 MSTORE PUSH1 0x4 ADD PUSH2 0x494 SWAP1 PUSH2 0xF07 JUMP JUMPDEST PUSH1 0x40 MLOAD DUP1 SWAP2 SUB SWAP1 REVERT JUMPDEST DUP1 PUSH0 ADD PUSH1 0x3 SWAP1 SLOAD SWAP1 PUSH2 0x100 EXP SWAP1 DIV PUSH1 0xFF AND ISZERO PUSH2 0x4EE JUMPI PUSH1 0x40 MLOAD PUSH32 0x8C379A000000000000000000000000000000000000000000000000000000000 DUP2 MSTORE PUSH1 0x4 ADD PUSH2 0x4E5 SWAP1 PUSH2 0xF6F JUMP JUMPDEST PUSH1 0x40 MLOAD DUP1 SWAP2 SUB SWAP1 REVERT JUMPDEST PUSH0 DUP1 JUMPDEST PUSH1 0x4 DUP1 SLOAD SWAP1 POP DUP2 LT ISZERO PUSH2 0x552 JUMPI DUP4 DUP1 MLOAD SWAP1 PUSH1 0x20 ADD KECCAK256 PUSH1 0x4 DUP3 DUP2 SLOAD DUP2 LT PUSH2 0x51A JUMPI PUSH2 0x519 PUSH2 0xF8D JUMP JUMPDEST JUMPDEST SWAP1 PUSH0 MSTORE PUSH1 0x20 PUSH0 KECCAK256 ADD PUSH1 0x40 MLOAD PUSH2 0x52F SWAP2 SWAP1 PUSH2 0x10B3 JUMP JUMPDEST PUSH1 0x40 MLOAD DUP1 SWAP2 SUB SWAP1 KECCAK256 SUB PUSH2 0x545 JUMPI PUSH1 0x1 SWAP2 POP PUSH2 0x552 JUMP JUMPDEST DUP1 DUP1 PUSH1 0x1 ADD SWAP2 POP POP PUSH2 0x4F1 JUMP JUMPDEST POP DUP1 PUSH2 0x593 JUMPI PUSH1 0x40 MLOAD PUSH32 0x8C379A000000000000000000000000000000000000000000000000000000000 DUP2 MSTORE PUSH1 0x4 ADD PUSH2 0x58A SWAP1 PUSH2 0x1113 JUMP JUMPDEST PUSH1 0x40 MLOAD DUP1 SWAP2 SUB SWAP1 REVERT JUMPDEST PUSH1 0x3 DUP4 PUSH1 0x40 MLOAD PUSH2 0x5A3 SWAP2 SWAP1 PUSH2 0xD49 JUMP JUMPDEST SWAP1 DUP2 MSTORE PUSH1 0x20 ADD PUSH1 0x40 MLOAD DUP1 SWAP2 SUB SWAP1 KECCAK256 PUSH0 DUP2 SLOAD DUP1 SWAP3 SWAP2 SWAP1 PUSH2 0x5C1 SWAP1 PUSH2 0x115E JUMP JUMPDEST SWAP2 SWAP1 POP SSTORE POP PUSH1 0x1 DUP3 PUSH0 ADD PUSH1 0x3 PUSH2 0x100 EXP DUP2 SLOAD DUP2 PUSH1 0xFF MUL NOT AND SWAP1 DUP4 ISZERO ISZERO MUL OR SWAP1 SSTORE POP PUSH32 0x791F7D5F0B0D6E798F239CCCA607156FF12F293D6709379301DC1A27E5206181 DUP5 DUP5 PUSH1 0x40 MLOAD PUSH2 0x613 SWAP3 SWAP2 SWAP1 PUSH2 0x11A5 JUMP JUMPDEST PUSH1 0x40 MLOAD DUP1 SWAP2 SUB SWAP1 LOG1 POP POP POP POP JUMP JUMPDEST PUSH1 0x4 DUP2 DUP2 SLOAD DUP2 LT PUSH2 0x630 JUMPI PUSH0 DUP1 REVERT JUMPDEST SWAP1 PUSH0 MSTORE PUSH1 0x20 PUSH0 KECCAK256 ADD PUSH0 SWAP2 POP SWAP1 POP DUP1 SLOAD PUSH2 0x648 SWAP1 PUSH2 0xFE7 JUMP JUMPDEST DUP1 PUSH1 0x1F ADD PUSH1 0x20 DUP1 SWAP2 DIV MUL PUSH1 0x20 ADD PUSH1 0x40 MLOAD SWAP1 DUP2 ADD PUSH1 0x40 MSTORE DUP1 SWAP3 SWAP2 SWAP1 DUP2 DUP2 MSTORE PUSH1 0x20 ADD DUP3 DUP1 SLOAD PUSH2 0x674 SWAP1 PUSH2 0xFE7 JUMP JUMPDEST DUP1 ISZERO PUSH2 0x6BF JUMPI DUP1 PUSH1 0x1F LT PUSH2 0x696 JUMPI PUSH2 0x100 DUP1 DUP4 SLOAD DIV MUL DUP4 MSTORE SWAP2 PUSH1 0x20 ADD SWAP2 PUSH2 0x6BF JUMP JUMPDEST DUP3 ADD SWAP2 SWAP1 PUSH0 MSTORE PUSH1 0x20 PUSH0 KECCAK256 SWAP1 JUMPDEST DUP2 SLOAD DUP2 MSTORE SWAP1 PUSH1 0x1 ADD SWAP1 PUSH1 0x20 ADD DUP1 DUP4 GT PUSH2 0x6A2 JUMPI DUP3 SWAP1 SUB PUSH1 0x1F AND DUP3 ADD SWAP2 JUMPDEST POP POP POP POP POP DUP2 JUMP JUMPDEST PUSH0 DUP1 PUSH0 SWAP1 SLOAD SWAP1 PUSH2 0x100 EXP SWAP1 DIV PUSH20 0xFFFFFFFFFFFFFFFFFFFFFFFFFFFFFFFFFFFFFFFF AND PUSH20 0xFFFFFFFFFFFFFFFFFFFFFFFFFFFFFFFFFFFFFFFF AND CALLER PUSH20 0xFFFFFFFFFFFFFFFFFFFFFFFFFFFFFFFFFFFFFFFF AND EQ PUSH2 0x756 JUMPI PUSH1 0x40 MLOAD PUSH32 0x8C379A000000000000000000000000000000000000000000000000000000000 DUP2 MSTORE PUSH1 0x4 ADD PUSH2 0x74D SWAP1 PUSH2 0xCF1 JUMP JUMPDEST PUSH1 0x40 MLOAD DUP1 SWAP2 SUB SWAP1 REVERT JUMPDEST PUSH1 0x3 DUP3 PUSH1 0x40 MLOAD PUSH2 0x766 SWAP2 SWAP1 PUSH2 0xD49 JUMP JUMPDEST SWAP1 DUP2 MSTORE PUSH1 0x20 ADD PUSH1 0x40 MLOAD DUP1 SWAP2 SUB SWAP1 KECCAK256 SLOAD SWAP1 POP SWAP2 SWAP1 POP JUMP JUMPDEST PUSH1 0x1 PUSH0 SWAP1 SLOAD SWAP1 PUSH2 0x100 EXP SWAP1 DIV PUSH20 0xFFFFFFFFFFFFFFFFFFFFFFFFFFFFFFFFFFFFFFFF AND DUP2 JUMP JUMPDEST PUSH1 0x2 DUP2 DUP1 MLOAD PUSH1 0x20 DUP2 ADD DUP3 ADD DUP1 MLOAD DUP5 DUP3 MSTORE PUSH1 0x20 DUP4 ADD PUSH1 0x20 DUP6 ADD KECCAK256 DUP2 DUP4 MSTORE DUP1 SWAP6 POP POP POP POP POP POP PUSH0 SWAP2 POP SWAP1 POP DUP1 PUSH0 ADD PUSH0 SWAP1 SLOAD SWAP1 PUSH2 0x100 EXP SWAP1 DIV PUSH1 0xFF AND SWAP1 DUP1 PUSH0 ADD PUSH1 0x1 SWAP1 SLOAD SWAP1 PUSH2 0x100 EXP SWAP1 DIV PUSH1 0xFF AND SWAP1 DUP1 PUSH0 ADD PUSH1 0x2 SWAP1 SLOAD SWAP1 PUSH2 0x100 EXP SWAP1 DIV PUSH1 0xFF AND SWAP1 DUP1 PUSH0 ADD PUSH1 0x3 SWAP1 SLOAD SWAP1 PUSH2 0x100 EXP SWAP1 DIV PUSH1 0xFF AND SWAP1 POP DUP5 JUMP JUMPDEST PUSH0 DUP1 SLOAD SWAP1 PUSH2 0x100 EXP SWAP1 DIV PUSH20 0xFFFFFFFFFFFFFFFFFFFFFFFFFFFFFFFFFFFFFFFF AND DUP2 JUMP JUMPDEST PUSH0 PUSH1 0x40 MLOAD SWAP1 POP SWAP1 JUMP JUMPDEST PUSH0 DUP1 REVERT JUMPDEST PUSH0 DUP1 REVERT JUMPDEST PUSH0 DUP1 REVERT JUMPDEST PUSH0 DUP1 REVERT JUMPDEST PUSH0 PUSH1 0x1F NOT PUSH1 0x1F DUP4 ADD AND SWAP1 POP SWAP2 SWAP1 POP JUMP JUMPDEST PUSH32 0x4E487B7100000000000000000000000000000000000000000000000000000000 PUSH0 MSTORE PUSH1 0x41 PUSH1 0x4 MSTORE PUSH1 0x24 PUSH0 REVERT JUMPDEST PUSH2 0x897 DUP3 PUSH2 0x851 JUMP JUMPDEST DUP2 ADD DUP2 DUP2 LT PUSH8 0xFFFFFFFFFFFFFFFF DUP3 GT OR ISZERO PUSH2 0x8B6 JUMPI PUSH2 0x8B5 PUSH2 0x861 JUMP JUMPDEST JUMPDEST DUP1 PUSH1 0x40 MSTORE POP POP POP JUMP JUMPDEST PUSH0 PUSH2 0x8C8 PUSH2 0x838 JUMP JUMPDEST SWAP1 POP PUSH2 0x8D4 DUP3 DUP3 PUSH2 0x88E JUMP JUMPDEST SWAP2 SWAP1 POP JUMP JUMPDEST PUSH0 PUSH8 0xFFFFFFFFFFFFFFFF DUP3 GT ISZERO PUSH2 0x8F3 JUMPI PUSH2 0x8F2 PUSH2 0x861 JUMP JUMPDEST JUMPDEST PUSH2 0x8FC DUP3 PUSH2 0x851 JUMP JUMPDEST SWAP1 POP PUSH1 0x20 DUP2 ADD SWAP1 POP SWAP2 SWAP1 POP JUMP JUMPDEST DUP3 DUP2 DUP4 CALLDATACOPY PUSH0 DUP4 DUP4 ADD MSTORE POP POP POP JUMP JUMPDEST PUSH0 PUSH2 0x929 PUSH2 0x924 DUP5 PUSH2 0x8D9 JUMP JUMPDEST PUSH2 0x8BF JUMP JUMPDEST SWAP1 POP DUP3 DUP2 MSTORE PUSH1 0x20 DUP2 ADD DUP5 DUP5 DUP5 ADD GT ISZERO PUSH2 0x945 JUMPI PUSH2 0x944 PUSH2 0x84D JUMP JUMPDEST JUMPDEST PUSH2 0x950 DUP5 DUP3 DUP6 PUSH2 0x909 JUMP JUMPDEST POP SWAP4 SWAP3 POP POP POP JUMP JUMPDEST PUSH0 DUP3 PUSH1 0x1F DUP4 ADD SLT PUSH2 0x96C JUMPI PUSH2 0x96B PUSH2 0x849 JUMP JUMPDEST JUMPDEST DUP2 CALLDATALOAD PUSH2 0x97C DUP5 DUP3 PUSH1 0x20 DUP7 ADD PUSH2 0x917 JUMP JUMPDEST SWAP2 POP POP SWAP3 SWAP2 POP POP JUMP JUMPDEST PUSH0 PUSH1 0x20 DUP3 DUP5 SUB SLT ISZERO PUSH2 0x99A JUMPI PUSH2 0x999 PUSH2 0x841 JUMP JUMPDEST JUMPDEST PUSH0 DUP3 ADD CALLDATALOAD PUSH8 0xFFFFFFFFFFFFFFFF DUP2 GT ISZERO PUSH2 0x9B7 JUMPI PUSH2 0x9B6 PUSH2 0x845 JUMP JUMPDEST JUMPDEST PUSH2 0x9C3 DUP5 DUP3 DUP6 ADD PUSH2 0x958 JUMP JUMPDEST SWAP2 POP POP SWAP3 SWAP2 POP POP JUMP JUMPDEST PUSH0 DUP2 SWAP1 POP SWAP2 SWAP1 POP JUMP JUMPDEST PUSH2 0x9DE DUP2 PUSH2 0x9CC JUMP JUMPDEST DUP3 MSTORE POP POP JUMP JUMPDEST PUSH0 PUSH1 0x20 DUP3 ADD SWAP1 POP PUSH2 0x9F7 PUSH0 DUP4 ADD DUP5 PUSH2 0x9D5 JUMP JUMPDEST SWAP3 SWAP2 POP POP JUMP JUMPDEST PUSH0 DUP2 ISZERO ISZERO SWAP1 POP SWAP2 SWAP1 POP JUMP JUMPDEST PUSH2 0xA11 DUP2 PUSH2 0x9FD JUMP JUMPDEST DUP2 EQ PUSH2 0xA1B JUMPI PUSH0 DUP1 REVERT JUMPDEST POP JUMP JUMPDEST PUSH0 DUP2 CALLDATALOAD SWAP1 POP PUSH2 0xA2C DUP2 PUSH2 0xA08 JUMP JUMPDEST SWAP3 SWAP2 POP POP JUMP JUMPDEST PUSH0 DUP1 PUSH0 DUP1 PUSH1 0x80 DUP6 DUP8 SUB SLT ISZERO PUSH2 0xA4A JUMPI PUSH2 0xA49 PUSH2 0x841 JUMP JUMPDEST JUMPDEST PUSH0 DUP6 ADD CALLDATALOAD PUSH8 0xFFFFFFFFFFFFFFFF DUP2 GT ISZERO PUSH2 0xA67 JUMPI PUSH2 0xA66 PUSH2 0x845 JUMP JUMPDEST JUMPDEST PUSH2 0xA73 DUP8 DUP3 DUP9 ADD PUSH2 0x958 JUMP JUMPDEST SWAP5 POP POP PUSH1 0x20 PUSH2 0xA84 DUP8 DUP3 DUP9 ADD PUSH2 0xA1E JUMP JUMPDEST SWAP4 POP POP PUSH1 0x40 PUSH2 0xA95 DUP8 DUP3 DUP9 ADD PUSH2 0xA1E JUMP JUMPDEST SWAP3 POP POP PUSH1 0x60 PUSH2 0xAA6 DUP8 DUP3 DUP9 ADD PUSH2 0xA1E JUMP JUMPDEST SWAP2 POP POP SWAP3 SWAP6 SWAP2 SWAP5 POP SWAP3 POP JUMP JUMPDEST PUSH0 DUP1 PUSH1 0x40 DUP4 DUP6 SUB SLT ISZERO PUSH2 0xAC8 JUMPI PUSH2 0xAC7 PUSH2 0x841 JUMP JUMPDEST JUMPDEST PUSH0 DUP4 ADD CALLDATALOAD PUSH8 0xFFFFFFFFFFFFFFFF DUP2 GT ISZERO PUSH2 0xAE5 JUMPI PUSH2 0xAE4 PUSH2 0x845 JUMP JUMPDEST JUMPDEST PUSH2 0xAF1 DUP6 DUP3 DUP7 ADD PUSH2 0x958 JUMP JUMPDEST SWAP3 POP POP PUSH1 0x20 DUP4 ADD CALLDATALOAD PUSH8 0xFFFFFFFFFFFFFFFF DUP2 GT ISZERO PUSH2 0xB12 JUMPI PUSH2 0xB11 PUSH2 0x845 JUMP JUMPDEST JUMPDEST PUSH2 0xB1E DUP6 DUP3 DUP7 ADD PUSH2 0x958 JUMP JUMPDEST SWAP2 POP POP SWAP3 POP SWAP3 SWAP1 POP JUMP JUMPDEST PUSH2 0xB31 DUP2 PUSH2 0x9CC JUMP JUMPDEST DUP2 EQ PUSH2 0xB3B JUMPI PUSH0 DUP1 REVERT JUMPDEST POP JUMP JUMPDEST PUSH0 DUP2 CALLDATALOAD SWAP1 POP PUSH2 0xB4C DUP2 PUSH2 0xB28 JUMP JUMPDEST SWAP3 SWAP2 POP POP JUMP JUMPDEST PUSH0 PUSH1 0x20 DUP3 DUP5 SUB SLT ISZERO PUSH2 0xB67 JUMPI PUSH2 0xB66 PUSH2 0x841 JUMP JUMPDEST JUMPDEST PUSH0 PUSH2 0xB74 DUP5 DUP3 DUP6 ADD PUSH2 0xB3E JUMP JUMPDEST SWAP2 POP POP SWAP3 SWAP2 POP POP JUMP JUMPDEST PUSH0 DUP2 MLOAD SWAP1 POP SWAP2 SWAP1 POP JUMP JUMPDEST PUSH0 DUP3 DUP3 MSTORE PUSH1 0x20 DUP3 ADD SWAP1 POP SWAP3 SWAP2 POP POP JUMP JUMPDEST DUP3 DUP2 DUP4 MCOPY PUSH0 DUP4 DUP4 ADD MSTORE POP POP POP JUMP JUMPDEST PUSH0 PUSH2 0xBAF DUP3 PUSH2 0xB7D JUMP JUMPDEST PUSH2 0xBB9 DUP2 DUP6 PUSH2 0xB87 JUMP JUMPDEST SWAP4 POP PUSH2 0xBC9 DUP2 DUP6 PUSH1 0x20 DUP7 ADD PUSH2 0xB97 JUMP JUMPDEST PUSH2 0xBD2 DUP2 PUSH2 0x851 JUMP JUMPDEST DUP5 ADD SWAP2 POP POP SWAP3 SWAP2 POP POP JUMP JUMPDEST PUSH0 PUSH1 0x20 DUP3 ADD SWAP1 POP DUP2 DUP2 SUB PUSH0 DUP4 ADD MSTORE PUSH2 0xBF5 DUP2 DUP5 PUSH2 0xBA5 JUMP JUMPDEST SWAP1 POP SWAP3 SWAP2 POP POP JUMP JUMPDEST PUSH0 PUSH20 0xFFFFFFFFFFFFFFFFFFFFFFFFFFFFFFFFFFFFFFFF DUP3 AND SWAP1 POP SWAP2 SWAP1 POP JUMP JUMPDEST PUSH0 PUSH2 0xC26 DUP3 PUSH2 0xBFD JUMP JUMPDEST SWAP1 POP SWAP2 SWAP1 POP JUMP JUMPDEST PUSH2 0xC36 DUP2 PUSH2 0xC1C JUMP JUMPDEST DUP3 MSTORE POP POP JUMP JUMPDEST PUSH0 PUSH1 0x20 DUP3 ADD SWAP1 POP PUSH2 0xC4F PUSH0 DUP4 ADD DUP5 PUSH2 0xC2D JUMP JUMPDEST SWAP3 SWAP2 POP POP JUMP JUMPDEST PUSH2 0xC5E DUP2 PUSH2 0x9FD JUMP JUMPDEST DUP3 MSTORE POP POP JUMP JUMPDEST PUSH0 PUSH1 0x80 DUP3 ADD SWAP1 POP PUSH2 0xC77 PUSH0 DUP4 ADD DUP8 PUSH2 0xC55 JUMP JUMPDEST PUSH2 0xC84 PUSH1 0x20 DUP4 ADD DUP7 PUSH2 0xC55 JUMP JUMPDEST PUSH2 0xC91 PUSH1 0x40 DUP4 ADD DUP6 PUSH2 0xC55 JUMP JUMPDEST PUSH2 0xC9E PUSH1 0x60 DUP4 ADD DUP5 PUSH2 0xC55 JUMP JUMPDEST SWAP6 SWAP5 POP POP POP POP POP JUMP JUMPDEST PUSH32 0x596F7520617265206E6F7420617574686F72697A656400000000000000000000 PUSH0 DUP3 ADD MSTORE POP JUMP JUMPDEST PUSH0 PUSH2 0xCDB PUSH1 0x16 DUP4 PUSH2 0xB87 JUMP JUMPDEST SWAP2 POP PUSH2 0xCE6 DUP3 PUSH2 0xCA7 JUMP JUMPDEST PUSH1 0x20 DUP3 ADD SWAP1 POP SWAP2 SWAP1 POP JUMP JUMPDEST PUSH0 PUSH1 0x20 DUP3 ADD SWAP1 POP DUP2 DUP2 SUB PUSH0 DUP4 ADD MSTORE PUSH2 0xD08 DUP2 PUSH2 0xCCF JUMP JUMPDEST SWAP1 POP SWAP2 SWAP1 POP JUMP JUMPDEST PUSH0 DUP2 SWAP1 POP SWAP3 SWAP2 POP POP JUMP JUMPDEST PUSH0 PUSH2 0xD23 DUP3 PUSH2 0xB7D JUMP JUMPDEST PUSH2 0xD2D DUP2 DUP6 PUSH2 0xD0F JUMP JUMPDEST SWAP4 POP PUSH2 0xD3D DUP2 DUP6 PUSH1 0x20 DUP7 ADD PUSH2 0xB97 JUMP JUMPDEST DUP1 DUP5 ADD SWAP2 POP POP SWAP3 SWAP2 POP POP JUMP JUMPDEST PUSH0 PUSH2 0xD54 DUP3 DUP5 PUSH2 0xD19 JUMP JUMPDEST SWAP2 POP DUP2 SWAP1 POP SWAP3 SWAP2 POP POP JUMP JUMPDEST PUSH32 0x43616E6469646174652063616E6E6F7420626520656D70747900000000000000 PUSH0 DUP3 ADD MSTORE POP JUMP JUMPDEST PUSH0 PUSH2 0xD93 PUSH1 0x19 DUP4 PUSH2 0xB87 JUMP JUMPDEST SWAP2 POP PUSH2 0xD9E DUP3 PUSH2 0xD5F JUMP JUMPDEST PUSH1 0x20 DUP3 ADD SWAP1 POP SWAP2 SWAP1 POP JUMP JUMPDEST PUSH0 PUSH1 0x20 DUP3 ADD SWAP1 POP DUP2 DUP2 SUB PUSH0 DUP4 ADD MSTORE PUSH2 0xDC0 DUP2 PUSH2 0xD87 JUMP JUMPDEST SWAP1 POP SWAP2 SWAP1 POP JUMP JUMPDEST PUSH32 0x596F75206D75737420726567697374657220612076616C69642066696E676572 PUSH0 DUP3 ADD MSTORE PUSH32 0x7072696E74000000000000000000000000000000000000000000000000000000 PUSH1 0x20 DUP3 ADD MSTORE POP JUMP JUMPDEST PUSH0 PUSH2 0xE21 PUSH1 0x25 DUP4 PUSH2 0xB87 JUMP JUMPDEST SWAP2 POP PUSH2 0xE2C DUP3 PUSH2 0xDC7 JUMP JUMPDEST PUSH1 0x40 DUP3 ADD SWAP1 POP SWAP2 SWAP1 POP JUMP JUMPDEST PUSH0 PUSH1 0x20 DUP3 ADD SWAP1 POP DUP2 DUP2 SUB PUSH0 DUP4 ADD MSTORE PUSH2 0xE4E DUP2 PUSH2 0xE15 JUMP JUMPDEST SWAP1 POP SWAP2 SWAP1 POP JUMP JUMPDEST PUSH32 0x4461746120697320696E76616C69643B00000000000000000000000000000000 PUSH0 DUP3 ADD MSTORE POP JUMP JUMPDEST PUSH0 PUSH2 0xE89 PUSH1 0x10 DUP4 PUSH2 0xB87 JUMP JUMPDEST SWAP2 POP PUSH2 0xE94 DUP3 PUSH2 0xE55 JUMP JUMPDEST PUSH1 0x20 DUP3 ADD SWAP1 POP SWAP2 SWAP1 POP JUMP JUMPDEST PUSH0 PUSH1 0x20 DUP3 ADD SWAP1 POP DUP2 DUP2 SUB PUSH0 DUP4 ADD MSTORE PUSH2 0xEB6 DUP2 PUSH2 0xE7D JUMP JUMPDEST SWAP1 POP SWAP2 SWAP1 POP JUMP JUMPDEST PUSH32 0x596F7520617265206E6F7420656C696769626C6520746F20766F746500000000 PUSH0 DUP3 ADD MSTORE POP JUMP JUMPDEST PUSH0 PUSH2 0xEF1 PUSH1 0x1C DUP4 PUSH2 0xB87 JUMP JUMPDEST SWAP2 POP PUSH2 0xEFC DUP3 PUSH2 0xEBD JUMP JUMPDEST PUSH1 0x20 DUP3 ADD SWAP1 POP SWAP2 SWAP1 POP JUMP JUMPDEST PUSH0 PUSH1 0x20 DUP3 ADD SWAP1 POP DUP2 DUP2 SUB PUSH0 DUP4 ADD MSTORE PUSH2 0xF1E DUP2 PUSH2 0xEE5 JUMP JUMPDEST SWAP1 POP SWAP2 SWAP1 POP JUMP JUMPDEST PUSH32 0x596F75206861766520616C726561647920766F74656400000000000000000000 PUSH0 DUP3 ADD MSTORE POP JUMP JUMPDEST PUSH0 PUSH2 0xF59 PUSH1 0x16 DUP4 PUSH2 0xB87 JUMP JUMPDEST SWAP2 POP PUSH2 0xF64 DUP3 PUSH2 0xF25 JUMP JUMPDEST PUSH1 0x20 DUP3 ADD SWAP1 POP SWAP2 SWAP1 POP JUMP JUMPDEST PUSH0 PUSH1 0x20 DUP3 ADD SWAP1 POP DUP2 DUP2 SUB PUSH0 DUP4 ADD MSTORE PUSH2 0xF86 DUP2 PUSH2 0xF4D JUMP JUMPDEST SWAP1 POP SWAP2 SWAP1 POP JUMP JUMPDEST PUSH32 0x4E487B7100000000000000000000000000000000000000000000000000000000 PUSH0 MSTORE PUSH1 0x32 PUSH1 0x4 MSTORE PUSH1 0x24 PUSH0 REVERT JUMPDEST PUSH32 0x4E487B7100000000000000000000000000000000000000000000000000000000 PUSH0 MSTORE PUSH1 0x22 PUSH1 0x4 MSTORE PUSH1 0x24 PUSH0 REVERT JUMPDEST PUSH0 PUSH1 0x2 DUP3 DIV SWAP1 POP PUSH1 0x1 DUP3 AND DUP1 PUSH2 0xFFE JUMPI PUSH1 0x7F DUP3 AND SWAP2 POP JUMPDEST PUSH1 0x20 DUP3 LT DUP2 SUB PUSH2 0x1011 JUMPI PUSH2 0x1010 PUSH2 0xFBA JUMP JUMPDEST JUMPDEST POP SWAP2 SWAP1 POP JUMP JUMPDEST PUSH0 DUP2 SWAP1 POP SWAP3 SWAP2 POP POP JUMP JUMPDEST PUSH0 DUP2 SWAP1 POP DUP2 PUSH0 MSTORE PUSH1 0x20 PUSH0 KECCAK256 SWAP1 POP SWAP2 SWAP1 POP JUMP JUMPDEST PUSH0 DUP2 SLOAD PUSH2 0x103F DUP2 PUSH2 0xFE7 JUMP JUMPDEST PUSH2 0x1049 DUP2 DUP7 PUSH2 0x1017 JUMP JUMPDEST SWAP5 POP PUSH1 0x1 DUP3 AND PUSH0 DUP2 EQ PUSH2 0x1063 JUMPI PUSH1 0x1 DUP2 EQ PUSH2 0x1078 JUMPI PUSH2 0x10AA JUMP JUMPDEST PUSH1 0xFF NOT DUP4 AND DUP7 MSTORE DUP2 ISZERO ISZERO DUP3 MUL DUP7 ADD SWAP4 POP PUSH2 0x10AA JUMP JUMPDEST PUSH2 0x1081 DUP6 PUSH2 0x1021 JUMP JUMPDEST PUSH0 JUMPDEST DUP4 DUP2 LT ISZERO PUSH2 0x10A2 JUMPI DUP2 SLOAD DUP2 DUP10 ADD MSTORE PUSH1 0x1 DUP3 ADD SWAP2 POP PUSH1 0x20 DUP2 ADD SWAP1 POP PUSH2 0x1083 JUMP JUMPDEST DUP4 DUP9 ADD SWAP6 POP POP POP JUMPDEST POP POP POP SWAP3 SWAP2 POP POP JUMP JUMPDEST PUSH0 PUSH2 0x10BE DUP3 DUP5 PUSH2 0x1033 JUMP JUMPDEST SWAP2 POP DUP2 SWAP1 POP SWAP3 SWAP2 POP POP JUMP JUMPDEST PUSH32 0x496E76616C69642043616E646964617465206E616D653B000000000000000000 PUSH0 DUP3 ADD MSTORE POP JUMP JUMPDEST PUSH0 PUSH2 0x10FD PUSH1 0x17 DUP4 PUSH2 0xB87 JUMP JUMPDEST SWAP2 POP PUSH2 0x1108 DUP3 PUSH2 0x10C9 JUMP JUMPDEST PUSH1 0x20 DUP3 ADD SWAP1 POP SWAP2 SWAP1 POP JUMP JUMPDEST PUSH0 PUSH1 0x20 DUP3 ADD SWAP1 POP DUP2 DUP2 SUB PUSH0 DUP4 ADD MSTORE PUSH2 0x112A DUP2 PUSH2 0x10F1 JUMP JUMPDEST SWAP1 POP SWAP2 SWAP1 POP JUMP JUMPDEST PUSH32 0x4E487B7100000000000000000000000000000000000000000000000000000000 PUSH0 MSTORE PUSH1 0x11 PUSH1 0x4 MSTORE PUSH1 0x24 PUSH0 REVERT JUMPDEST PUSH0 PUSH2 0x1168 DUP3 PUSH2 0x9CC JUMP JUMPDEST SWAP2 POP PUSH32 0xFFFFFFFFFFFFFFFFFFFFFFFFFFFFFFFFFFFFFFFFFFFFFFFFFFFFFFFFFFFFFFFF DUP3 SUB PUSH2 0x119A JUMPI PUSH2 0x1199 PUSH2 0x1131 JUMP JUMPDEST JUMPDEST PUSH1 0x1 DUP3 ADD SWAP1 POP SWAP2 SWAP1 POP JUMP JUMPDEST PUSH0 PUSH1 0x40 DUP3 ADD SWAP1 POP DUP2 DUP2 SUB PUSH0 DUP4 ADD MSTORE PUSH2 0x11BD DUP2 DUP6 PUSH2 0xBA5 JUMP JUMPDEST SWAP1 POP DUP2 DUP2 SUB PUSH1 0x20 DUP4 ADD MSTORE PUSH2 0x11D1 DUP2 DUP5 PUSH2 0xBA5 JUMP JUMPDEST SWAP1 POP SWAP4 SWAP3 POP POP POP JUMP INVALID LOG2 PUSH5 0x6970667358 0x22 SLT KECCAK256 0xEE 0xF6 INVALID LOG2 0xB4 CALLCODE 0xBD 0xCC SELFBALANCE DUP13 DUP6 SWAP4 PUSH1 0x84 PREVRANDAO PUSH18 0xDE30C870AB766507BD4FCD01754C373B6473 PUSH16 0x6C634300081A00330000000000000000 "
				},
				"gasEstimates": {
					"creation": {
						"codeDepositCost": "924800",
						"executionCost": "infinite",
						"totalCost": "infinite"
					},
					"external": {
						"COMELEC()": "2571",
						"Government()": "2530",
						"Vote(string,string)": "infinite",
						"allVotes(string)": "infinite",
						"count(string)": "infinite",
						"master_list(uint256)": "infinite",
						"registerVoter(string,bool,bool,bool)": "infinite",
						"voter(string)": "infinite"
					}
				},
				"methodIdentifiers": {
					"COMELEC()": "e6f5ef91",
					"Government()": "7c25f260",
					"Vote(string,string)": "17072d6b",
					"allVotes(string)": "4440bb12",
					"count(string)": "0dc641e6",
					"master_list(uint256)": "3d2f7551",
					"registerVoter(string,bool,bool,bool)": "14d952de",
					"voter(string)": "8671bd6c"
				}
			},
			"storageLayout": {
				"storage": [
					{
						"astId": 3,
						"contract": "eVoter.sol:eVoting",
						"label": "COMELEC",
						"offset": 0,
						"slot": "0",
						"type": "t_address"
					},
					{
						"astId": 14,
						"contract": "eVoter.sol:eVoting",
						"label": "Government",
						"offset": 0,
						"slot": "1",
						"type": "t_address"
					},
					{
						"astId": 19,
						"contract": "eVoter.sol:eVoting",
						"label": "voter",
						"offset": 0,
						"slot": "2",
						"type": "t_mapping(t_string_memory_ptr,t_struct(PhilSys)12_storage)"
					},
					{
						"astId": 23,
						"contract": "eVoter.sol:eVoting",
						"label": "count",
						"offset": 0,
						"slot": "3",
						"type": "t_mapping(t_string_memory_ptr,t_uint256)"
					},
					{
						"astId": 26,
						"contract": "eVoter.sol:eVoting",
						"label": "master_list",
						"offset": 0,
						"slot": "4",
						"type": "t_array(t_string_storage)dyn_storage"
					}
				],
				"types": {
					"t_address": {
						"encoding": "inplace",
						"label": "address",
						"numberOfBytes": "20"
					},
					"t_array(t_string_storage)dyn_storage": {
						"base": "t_string_storage",
						"encoding": "dynamic_array",
						"label": "string[]",
						"numberOfBytes": "32"
					},
					"t_bool": {
						"encoding": "inplace",
						"label": "bool",
						"numberOfBytes": "1"
					},
					"t_mapping(t_string_memory_ptr,t_struct(PhilSys)12_storage)": {
						"encoding": "mapping",
						"key": "t_string_memory_ptr",
						"label": "mapping(string => struct eVoting.PhilSys)",
						"numberOfBytes": "32",
						"value": "t_struct(PhilSys)12_storage"
					},
					"t_mapping(t_string_memory_ptr,t_uint256)": {
						"encoding": "mapping",
						"key": "t_string_memory_ptr",
						"label": "mapping(string => uint256)",
						"numberOfBytes": "32",
						"value": "t_uint256"
					},
					"t_string_memory_ptr": {
						"encoding": "bytes",
						"label": "string",
						"numberOfBytes": "32"
					},
					"t_string_storage": {
						"encoding": "bytes",
						"label": "string",
						"numberOfBytes": "32"
					},
					"t_struct(PhilSys)12_storage": {
						"encoding": "inplace",
						"label": "struct eVoting.PhilSys",
						"members": [
							{
								"astId": 5,
								"contract": "eVoter.sol:eVoting",
								"label": "fingerprint_registered",
								"offset": 0,
								"slot": "0",
								"type": "t_bool"
							},
							{
								"astId": 7,
								"contract": "eVoter.sol:eVoting",
								"label": "data_valid",
								"offset": 1,
								"slot": "0",
								"type": "t_bool"
							},
							{
								"astId": 9,
								"contract": "eVoter.sol:eVoting",
								"label": "eligible",
								"offset": 2,
								"slot": "0",
								"type": "t_bool"
							},
							{
								"astId": 11,
								"contract": "eVoter.sol:eVoting",
								"label": "has_voted",
								"offset": 3,
								"slot": "0",
								"type": "t_bool"
							}
						],
						"numberOfBytes": "32"
					},
					"t_uint256": {
						"encoding": "inplace",
						"label": "uint256",
						"numberOfBytes": "32"
					}
				}
			},
			"userdoc": {
				"kind": "user",
				"methods": {},
				"version": 1
			}
		}
	}
}